No.     Time        Source                Destination           Protocol Length Info
     10 0.103006    host                  2.0                   USB      36     SET CONFIGURATION Request

Frame 10: 36 bytes on wire (288 bits), 36 bytes captured (288 bits)
    Encapsulation type: USB packets with USBPcap header (153)
    Arrival Time: Mar 15, 2014 08:06:41.221009000 CET
    [Time shift for this packet: 0.000000000 seconds]
    Epoch Time: 1394867201.221009000 seconds
    [Time delta from previous captured frame: 0.102006000 seconds]
    [Time delta from previous displayed frame: 0.000000000 seconds]
    [Time since reference or first frame: 0.103006000 seconds]
    Frame Number: 10
    Frame Length: 36 bytes (288 bits)
    Capture Length: 36 bytes (288 bits)
    [Frame is marked: False]
    [Frame is ignored: False]
    [Protocols in frame: usb]
USB URB
    USBPcap pseudoheader length: 28
    IRP ID: 0xfffffa800448a6b0
    IRP USBD_STATUS: Unknown (0xffffffff)
    URB Function: URB_FUNCTION_SELECT_CONFIGURATION (0x0000)
    IRP information: 0x00, Direction: FDO -> PDO
        0000 000. = Reserved: 0x00
        .... ...0 = Direction: FDO -> PDO (0x00)
    URB bus id: 3
    Device address: 2
    Endpoint: 0x80, Direction: IN
        1... .... = Direction: IN (1)
        .000 0000 = Endpoint value: 0
    URB transfer type: URB_CONTROL (0x02)
    Packet Data Length: 8
    Control transfer stage: Setup (0)
URB setup
    bmRequestType: 0x00
        0... .... = Direction: Host-to-device
        .00. .... = Type: Standard (0x00)
        ...0 0000 = Recipient: Device (0x00)
    bRequest: SET CONFIGURATION (9)
    bConfigurationValue: 0
    wIndex: 0
    wLength: 0

0000  1c 00 b0 a6 48 04 80 fa ff ff ff ff ff ff 00 00   ....H...........
0010  00 03 00 02 00 80 02 08 00 00 00 00 00 09 00 00   ................
0020  00 00 00 00                                       ....

No.     Time        Source                Destination           Protocol Length Info
     85 5.596320    host                  2.0                   USB      36     GET DESCRIPTOR Request DEVICE

Frame 85: 36 bytes on wire (288 bits), 36 bytes captured (288 bits)
    Encapsulation type: USB packets with USBPcap header (153)
    Arrival Time: Mar 15, 2014 08:06:46.714323000 CET
    [Time shift for this packet: 0.000000000 seconds]
    Epoch Time: 1394867206.714323000 seconds
    [Time delta from previous captured frame: 0.006000000 seconds]
    [Time delta from previous displayed frame: 5.493314000 seconds]
    [Time since reference or first frame: 5.596320000 seconds]
    Frame Number: 85
    Frame Length: 36 bytes (288 bits)
    Capture Length: 36 bytes (288 bits)
    [Frame is marked: False]
    [Frame is ignored: False]
    [Protocols in frame: usb]
USB URB
    USBPcap pseudoheader length: 28
    IRP ID: 0xfffffa8009eba750
    IRP USBD_STATUS: USBD_STATUS_SUCCESS (0x00000000)
    URB Function: URB_FUNCTION_GET_DESCRIPTOR_FROM_DEVICE (0x000b)
    IRP information: 0x00, Direction: FDO -> PDO
        0000 000. = Reserved: 0x00
        .... ...0 = Direction: FDO -> PDO (0x00)
    URB bus id: 3
    Device address: 2
    Endpoint: 0x00, Direction: OUT
        0... .... = Direction: OUT (0)
        .000 0000 = Endpoint value: 0
    URB transfer type: URB_CONTROL (0x02)
    Packet Data Length: 8
    Control transfer stage: Setup (0)
    [Response in: 87]
URB setup
    bmRequestType: 0x80
        1... .... = Direction: Device-to-host
        .00. .... = Type: Standard (0x00)
        ...0 0000 = Recipient: Device (0x00)
    bRequest: GET DESCRIPTOR (6)
    Descriptor Index: 0x00
    bDescriptorType: DEVICE (1)
    Language Id: no language specified (0x0000)
    wLength: 18

0000  1c 00 50 a7 eb 09 80 fa ff ff 00 00 00 00 0b 00   ..P.............
0010  00 03 00 02 00 00 02 08 00 00 00 00 80 06 00 01   ................
0020  00 00 12 00                                       ....

No.     Time        Source                Destination           Protocol Length Info
     86 5.597320    2.0                   host                  USB      46     GET DESCRIPTOR Response DEVICE

Frame 86: 46 bytes on wire (368 bits), 46 bytes captured (368 bits)
    Encapsulation type: USB packets with USBPcap header (153)
    Arrival Time: Mar 15, 2014 08:06:46.715323000 CET
    [Time shift for this packet: 0.000000000 seconds]
    Epoch Time: 1394867206.715323000 seconds
    [Time delta from previous captured frame: 0.001000000 seconds]
    [Time delta from previous displayed frame: 0.001000000 seconds]
    [Time since reference or first frame: 5.597320000 seconds]
    Frame Number: 86
    Frame Length: 46 bytes (368 bits)
    Capture Length: 46 bytes (368 bits)
    [Frame is marked: False]
    [Frame is ignored: False]
    [Protocols in frame: usb]
USB URB
    USBPcap pseudoheader length: 28
    IRP ID: 0xfffffa8009eba750
    IRP USBD_STATUS: USBD_STATUS_SUCCESS (0x00000000)
    URB Function: URB_FUNCTION_CONTROL_TRANSFER (0x0008)
    IRP information: 0x01, Direction: PDO -> FDO
        0000 000. = Reserved: 0x00
        .... ...1 = Direction: PDO -> FDO (0x01)
    URB bus id: 3
    Device address: 2
    Endpoint: 0x80, Direction: IN
        1... .... = Direction: IN (1)
        .000 0000 = Endpoint value: 0
    URB transfer type: URB_CONTROL (0x02)
    Packet Data Length: 18
    Control transfer stage: Data (1)
    [Request in: 85]
    [Time from request: 0.001000000 seconds]
    [bInterfaceClass: Unknown (0xffff)]
DEVICE DESCRIPTOR
    bLength: 18
    bDescriptorType: DEVICE (1)
    bcdUSB: 0x0110
    bDeviceClass: Device (0x00)
    bDeviceSubClass: 0
    bDeviceProtocol: 0 (Use class code info from Interface Descriptors)
    bMaxPacketSize0: 64
    idVendor: Cygnal Integrated Products, Inc. (0x10c4)
    idProduct: CP210x UART Bridge (0xea61)
    bcdDevice: 0x0100
    iManufacturer: 1
    iProduct: 2
    iSerialNumber: 3
    bNumConfigurations: 1

0000  1c 00 50 a7 eb 09 80 fa ff ff 00 00 00 00 08 00   ..P.............
0010  01 03 00 02 00 80 02 12 00 00 00 01 12 01 10 01   ................
0020  00 00 00 40 c4 10 61 ea 00 01 01 02 03 01         ...@..a.......

No.     Time        Source                Destination           Protocol Length Info
     87 5.597320    2.0                   host                  USB      28     GET DESCRIPTOR Status

Frame 87: 28 bytes on wire (224 bits), 28 bytes captured (224 bits)
    Encapsulation type: USB packets with USBPcap header (153)
    Arrival Time: Mar 15, 2014 08:06:46.715323000 CET
    [Time shift for this packet: 0.000000000 seconds]
    Epoch Time: 1394867206.715323000 seconds
    [Time delta from previous captured frame: 0.000000000 seconds]
    [Time delta from previous displayed frame: 0.000000000 seconds]
    [Time since reference or first frame: 5.597320000 seconds]
    Frame Number: 87
    Frame Length: 28 bytes (224 bits)
    Capture Length: 28 bytes (224 bits)
    [Frame is marked: False]
    [Frame is ignored: False]
    [Protocols in frame: usb]
USB URB
    USBPcap pseudoheader length: 28
    IRP ID: 0xfffffa8009eba750
    IRP USBD_STATUS: USBD_STATUS_SUCCESS (0x00000000)
    URB Function: URB_FUNCTION_CONTROL_TRANSFER (0x0008)
    IRP information: 0x01, Direction: PDO -> FDO
        0000 000. = Reserved: 0x00
        .... ...1 = Direction: PDO -> FDO (0x01)
    URB bus id: 3
    Device address: 2
    Endpoint: 0x80, Direction: IN
        1... .... = Direction: IN (1)
        .000 0000 = Endpoint value: 0
    URB transfer type: URB_CONTROL (0x02)
    Packet Data Length: 0
    Control transfer stage: Status (2)
    [Request in: 85]
    [Time from request: 0.001000000 seconds]
    [bInterfaceClass: Unknown (0xffff)]

0000  1c 00 50 a7 eb 09 80 fa ff ff 00 00 00 00 08 00   ..P.............
0010  01 03 00 02 00 80 02 00 00 00 00 02               ............

No.     Time        Source                Destination           Protocol Length Info
     88 5.597320    host                  2.0                   USB      36     GET DESCRIPTOR Request STRING

Frame 88: 36 bytes on wire (288 bits), 36 bytes captured (288 bits)
    Encapsulation type: USB packets with USBPcap header (153)
    Arrival Time: Mar 15, 2014 08:06:46.715323000 CET
    [Time shift for this packet: 0.000000000 seconds]
    Epoch Time: 1394867206.715323000 seconds
    [Time delta from previous captured frame: 0.000000000 seconds]
    [Time delta from previous displayed frame: 0.000000000 seconds]
    [Time since reference or first frame: 5.597320000 seconds]
    Frame Number: 88
    Frame Length: 36 bytes (288 bits)
    Capture Length: 36 bytes (288 bits)
    [Frame is marked: False]
    [Frame is ignored: False]
    [Protocols in frame: usb]
USB URB
    USBPcap pseudoheader length: 28
    IRP ID: 0xfffffa8009eba750
    IRP USBD_STATUS: USBD_STATUS_SUCCESS (0x00000000)
    URB Function: URB_FUNCTION_GET_DESCRIPTOR_FROM_DEVICE (0x000b)
    IRP information: 0x00, Direction: FDO -> PDO
        0000 000. = Reserved: 0x00
        .... ...0 = Direction: FDO -> PDO (0x00)
    URB bus id: 3
    Device address: 2
    Endpoint: 0x00, Direction: OUT
        0... .... = Direction: OUT (0)
        .000 0000 = Endpoint value: 0
    URB transfer type: URB_CONTROL (0x02)
    Packet Data Length: 8
    Control transfer stage: Setup (0)
    [Response in: 90]
URB setup
    bmRequestType: 0x80
        1... .... = Direction: Device-to-host
        .00. .... = Type: Standard (0x00)
        ...0 0000 = Recipient: Device (0x00)
    bRequest: GET DESCRIPTOR (6)
    Descriptor Index: 0x00
    bDescriptorType: STRING (3)
    Language Id: no language specified (0x0000)
    wLength: 256

0000  1c 00 50 a7 eb 09 80 fa ff ff 00 00 00 00 0b 00   ..P.............
0010  00 03 00 02 00 00 02 08 00 00 00 00 80 06 00 03   ................
0020  00 00 00 01                                       ....

No.     Time        Source                Destination           Protocol Length Info
     89 5.597320    2.0                   host                  USB      32     GET DESCRIPTOR Response STRING

Frame 89: 32 bytes on wire (256 bits), 32 bytes captured (256 bits)
    Encapsulation type: USB packets with USBPcap header (153)
    Arrival Time: Mar 15, 2014 08:06:46.715323000 CET
    [Time shift for this packet: 0.000000000 seconds]
    Epoch Time: 1394867206.715323000 seconds
    [Time delta from previous captured frame: 0.000000000 seconds]
    [Time delta from previous displayed frame: 0.000000000 seconds]
    [Time since reference or first frame: 5.597320000 seconds]
    Frame Number: 89
    Frame Length: 32 bytes (256 bits)
    Capture Length: 32 bytes (256 bits)
    [Frame is marked: False]
    [Frame is ignored: False]
    [Protocols in frame: usb]
USB URB
    USBPcap pseudoheader length: 28
    IRP ID: 0xfffffa8009eba750
    IRP USBD_STATUS: USBD_STATUS_SUCCESS (0x00000000)
    URB Function: URB_FUNCTION_CONTROL_TRANSFER (0x0008)
    IRP information: 0x01, Direction: PDO -> FDO
        0000 000. = Reserved: 0x00
        .... ...1 = Direction: PDO -> FDO (0x01)
    URB bus id: 3
    Device address: 2
    Endpoint: 0x80, Direction: IN
        1... .... = Direction: IN (1)
        .000 0000 = Endpoint value: 0
    URB transfer type: URB_CONTROL (0x02)
    Packet Data Length: 4
    Control transfer stage: Data (1)
    [Request in: 88]
    [Time from request: 0.000000000 seconds]
    [bInterfaceClass: Unknown (0xffff)]
STRING DESCRIPTOR
    bLength: 4
    bDescriptorType: STRING (3)
    wLANGID: English (United States) (0x0409)

0000  1c 00 50 a7 eb 09 80 fa ff ff 00 00 00 00 08 00   ..P.............
0010  01 03 00 02 00 80 02 04 00 00 00 01 04 03 09 04   ................

No.     Time        Source                Destination           Protocol Length Info
     90 5.597320    2.0                   host                  USB      28     GET DESCRIPTOR Status

Frame 90: 28 bytes on wire (224 bits), 28 bytes captured (224 bits)
    Encapsulation type: USB packets with USBPcap header (153)
    Arrival Time: Mar 15, 2014 08:06:46.715323000 CET
    [Time shift for this packet: 0.000000000 seconds]
    Epoch Time: 1394867206.715323000 seconds
    [Time delta from previous captured frame: 0.000000000 seconds]
    [Time delta from previous displayed frame: 0.000000000 seconds]
    [Time since reference or first frame: 5.597320000 seconds]
    Frame Number: 90
    Frame Length: 28 bytes (224 bits)
    Capture Length: 28 bytes (224 bits)
    [Frame is marked: False]
    [Frame is ignored: False]
    [Protocols in frame: usb]
USB URB
    USBPcap pseudoheader length: 28
    IRP ID: 0xfffffa8009eba750
    IRP USBD_STATUS: USBD_STATUS_SUCCESS (0x00000000)
    URB Function: URB_FUNCTION_CONTROL_TRANSFER (0x0008)
    IRP information: 0x01, Direction: PDO -> FDO
        0000 000. = Reserved: 0x00
        .... ...1 = Direction: PDO -> FDO (0x01)
    URB bus id: 3
    Device address: 2
    Endpoint: 0x80, Direction: IN
        1... .... = Direction: IN (1)
        .000 0000 = Endpoint value: 0
    URB transfer type: URB_CONTROL (0x02)
    Packet Data Length: 0
    Control transfer stage: Status (2)
    [Request in: 88]
    [Time from request: 0.000000000 seconds]
    [bInterfaceClass: Unknown (0xffff)]

0000  1c 00 50 a7 eb 09 80 fa ff ff 00 00 00 00 08 00   ..P.............
0010  01 03 00 02 00 80 02 00 00 00 00 02               ............

No.     Time        Source                Destination           Protocol Length Info
     91 5.597320    host                  2.0                   USB      36     GET DESCRIPTOR Request STRING

Frame 91: 36 bytes on wire (288 bits), 36 bytes captured (288 bits)
    Encapsulation type: USB packets with USBPcap header (153)
    Arrival Time: Mar 15, 2014 08:06:46.715323000 CET
    [Time shift for this packet: 0.000000000 seconds]
    Epoch Time: 1394867206.715323000 seconds
    [Time delta from previous captured frame: 0.000000000 seconds]
    [Time delta from previous displayed frame: 0.000000000 seconds]
    [Time since reference or first frame: 5.597320000 seconds]
    Frame Number: 91
    Frame Length: 36 bytes (288 bits)
    Capture Length: 36 bytes (288 bits)
    [Frame is marked: False]
    [Frame is ignored: False]
    [Protocols in frame: usb]
USB URB
    USBPcap pseudoheader length: 28
    IRP ID: 0xfffffa8009eba750
    IRP USBD_STATUS: USBD_STATUS_SUCCESS (0x00000000)
    URB Function: URB_FUNCTION_GET_DESCRIPTOR_FROM_DEVICE (0x000b)
    IRP information: 0x00, Direction: FDO -> PDO
        0000 000. = Reserved: 0x00
        .... ...0 = Direction: FDO -> PDO (0x00)
    URB bus id: 3
    Device address: 2
    Endpoint: 0x00, Direction: OUT
        0... .... = Direction: OUT (0)
        .000 0000 = Endpoint value: 0
    URB transfer type: URB_CONTROL (0x02)
    Packet Data Length: 8
    Control transfer stage: Setup (0)
    [Response in: 93]
URB setup
    bmRequestType: 0x80
        1... .... = Direction: Device-to-host
        .00. .... = Type: Standard (0x00)
        ...0 0000 = Recipient: Device (0x00)
    bRequest: GET DESCRIPTOR (6)
    Descriptor Index: 0x02
    bDescriptorType: STRING (3)
    Language Id: English (United States) (0x0409)
    wLength: 256

0000  1c 00 50 a7 eb 09 80 fa ff ff 00 00 00 00 0b 00   ..P.............
0010  00 03 00 02 00 00 02 08 00 00 00 00 80 06 02 03   ................
0020  09 04 00 01                                       ....

No.     Time        Source                Destination           Protocol Length Info
     92 5.598320    2.0                   host                  USB      102    GET DESCRIPTOR Response STRING

Frame 92: 102 bytes on wire (816 bits), 102 bytes captured (816 bits)
    Encapsulation type: USB packets with USBPcap header (153)
    Arrival Time: Mar 15, 2014 08:06:46.716323000 CET
    [Time shift for this packet: 0.000000000 seconds]
    Epoch Time: 1394867206.716323000 seconds
    [Time delta from previous captured frame: 0.001000000 seconds]
    [Time delta from previous displayed frame: 0.001000000 seconds]
    [Time since reference or first frame: 5.598320000 seconds]
    Frame Number: 92
    Frame Length: 102 bytes (816 bits)
    Capture Length: 102 bytes (816 bits)
    [Frame is marked: False]
    [Frame is ignored: False]
    [Protocols in frame: usb]
USB URB
    USBPcap pseudoheader length: 28
    IRP ID: 0xfffffa8009eba750
    IRP USBD_STATUS: USBD_STATUS_SUCCESS (0x00000000)
    URB Function: URB_FUNCTION_CONTROL_TRANSFER (0x0008)
    IRP information: 0x01, Direction: PDO -> FDO
        0000 000. = Reserved: 0x00
        .... ...1 = Direction: PDO -> FDO (0x01)
    URB bus id: 3
    Device address: 2
    Endpoint: 0x80, Direction: IN
        1... .... = Direction: IN (1)
        .000 0000 = Endpoint value: 0
    URB transfer type: URB_CONTROL (0x02)
    Packet Data Length: 74
    Control transfer stage: Data (1)
    [Request in: 91]
    [Time from request: 0.001000000 seconds]
    [bInterfaceClass: Unknown (0xffff)]
STRING DESCRIPTOR
    bLength: 74
    bDescriptorType: STRING (3)
    bString: CP2102 USB to UART Bridge Controller

0000  1c 00 50 a7 eb 09 80 fa ff ff 00 00 00 00 08 00   ..P.............
0010  01 03 00 02 00 80 02 4a 00 00 00 01 4a 03 43 00   .......J....J.C.
0020  50 00 32 00 31 00 30 00 32 00 20 00 55 00 53 00   P.2.1.0.2. .U.S.
0030  42 00 20 00 74 00 6f 00 20 00 55 00 41 00 52 00   B. .t.o. .U.A.R.
0040  54 00 20 00 42 00 72 00 69 00 64 00 67 00 65 00   T. .B.r.i.d.g.e.
0050  20 00 43 00 6f 00 6e 00 74 00 72 00 6f 00 6c 00    .C.o.n.t.r.o.l.
0060  6c 00 65 00 72 00                                 l.e.r.

No.     Time        Source                Destination           Protocol Length Info
     93 5.598320    2.0                   host                  USB      28     GET DESCRIPTOR Status

Frame 93: 28 bytes on wire (224 bits), 28 bytes captured (224 bits)
    Encapsulation type: USB packets with USBPcap header (153)
    Arrival Time: Mar 15, 2014 08:06:46.716323000 CET
    [Time shift for this packet: 0.000000000 seconds]
    Epoch Time: 1394867206.716323000 seconds
    [Time delta from previous captured frame: 0.000000000 seconds]
    [Time delta from previous displayed frame: 0.000000000 seconds]
    [Time since reference or first frame: 5.598320000 seconds]
    Frame Number: 93
    Frame Length: 28 bytes (224 bits)
    Capture Length: 28 bytes (224 bits)
    [Frame is marked: False]
    [Frame is ignored: False]
    [Protocols in frame: usb]
USB URB
    USBPcap pseudoheader length: 28
    IRP ID: 0xfffffa8009eba750
    IRP USBD_STATUS: USBD_STATUS_SUCCESS (0x00000000)
    URB Function: URB_FUNCTION_CONTROL_TRANSFER (0x0008)
    IRP information: 0x01, Direction: PDO -> FDO
        0000 000. = Reserved: 0x00
        .... ...1 = Direction: PDO -> FDO (0x01)
    URB bus id: 3
    Device address: 2
    Endpoint: 0x80, Direction: IN
        1... .... = Direction: IN (1)
        .000 0000 = Endpoint value: 0
    URB transfer type: URB_CONTROL (0x02)
    Packet Data Length: 0
    Control transfer stage: Status (2)
    [Request in: 91]
    [Time from request: 0.001000000 seconds]
    [bInterfaceClass: Unknown (0xffff)]

0000  1c 00 50 a7 eb 09 80 fa ff ff 00 00 00 00 08 00   ..P.............
0010  01 03 00 02 00 80 02 00 00 00 00 02               ............

No.     Time        Source                Destination           Protocol Length Info
     94 5.598320    host                  2.0                   USB      36     GET DESCRIPTOR Request CONFIGURATION

Frame 94: 36 bytes on wire (288 bits), 36 bytes captured (288 bits)
    Encapsulation type: USB packets with USBPcap header (153)
    Arrival Time: Mar 15, 2014 08:06:46.716323000 CET
    [Time shift for this packet: 0.000000000 seconds]
    Epoch Time: 1394867206.716323000 seconds
    [Time delta from previous captured frame: 0.000000000 seconds]
    [Time delta from previous displayed frame: 0.000000000 seconds]
    [Time since reference or first frame: 5.598320000 seconds]
    Frame Number: 94
    Frame Length: 36 bytes (288 bits)
    Capture Length: 36 bytes (288 bits)
    [Frame is marked: False]
    [Frame is ignored: False]
    [Protocols in frame: usb]
USB URB
    USBPcap pseudoheader length: 28
    IRP ID: 0xfffffa8009eba750
    IRP USBD_STATUS: USBD_STATUS_SUCCESS (0x00000000)
    URB Function: URB_FUNCTION_GET_DESCRIPTOR_FROM_DEVICE (0x000b)
    IRP information: 0x00, Direction: FDO -> PDO
        0000 000. = Reserved: 0x00
        .... ...0 = Direction: FDO -> PDO (0x00)
    URB bus id: 3
    Device address: 2
    Endpoint: 0x00, Direction: OUT
        0... .... = Direction: OUT (0)
        .000 0000 = Endpoint value: 0
    URB transfer type: URB_CONTROL (0x02)
    Packet Data Length: 8
    Control transfer stage: Setup (0)
    [Response in: 96]
URB setup
    bmRequestType: 0x80
        1... .... = Direction: Device-to-host
        .00. .... = Type: Standard (0x00)
        ...0 0000 = Recipient: Device (0x00)
    bRequest: GET DESCRIPTOR (6)
    Descriptor Index: 0x00
    bDescriptorType: CONFIGURATION (2)
    Language Id: no language specified (0x0000)
    wLength: 9

0000  1c 00 50 a7 eb 09 80 fa ff ff 00 00 00 00 0b 00   ..P.............
0010  00 03 00 02 00 00 02 08 00 00 00 00 80 06 00 02   ................
0020  00 00 09 00                                       ....

No.     Time        Source                Destination           Protocol Length Info
     95 5.598320    2.0                   host                  USB      37     GET DESCRIPTOR Response CONFIGURATION

Frame 95: 37 bytes on wire (296 bits), 37 bytes captured (296 bits)
    Encapsulation type: USB packets with USBPcap header (153)
    Arrival Time: Mar 15, 2014 08:06:46.716323000 CET
    [Time shift for this packet: 0.000000000 seconds]
    Epoch Time: 1394867206.716323000 seconds
    [Time delta from previous captured frame: 0.000000000 seconds]
    [Time delta from previous displayed frame: 0.000000000 seconds]
    [Time since reference or first frame: 5.598320000 seconds]
    Frame Number: 95
    Frame Length: 37 bytes (296 bits)
    Capture Length: 37 bytes (296 bits)
    [Frame is marked: False]
    [Frame is ignored: False]
    [Protocols in frame: usb]
USB URB
    USBPcap pseudoheader length: 28
    IRP ID: 0xfffffa8009eba750
    IRP USBD_STATUS: USBD_STATUS_SUCCESS (0x00000000)
    URB Function: URB_FUNCTION_CONTROL_TRANSFER (0x0008)
    IRP information: 0x01, Direction: PDO -> FDO
        0000 000. = Reserved: 0x00
        .... ...1 = Direction: PDO -> FDO (0x01)
    URB bus id: 3
    Device address: 2
    Endpoint: 0x80, Direction: IN
        1... .... = Direction: IN (1)
        .000 0000 = Endpoint value: 0
    URB transfer type: URB_CONTROL (0x02)
    Packet Data Length: 9
    Control transfer stage: Data (1)
    [Request in: 94]
    [Time from request: 0.000000000 seconds]
    [bInterfaceClass: Unknown (0xffff)]
CONFIGURATION DESCRIPTOR
    bLength: 9
    bDescriptorType: CONFIGURATION (2)
    wTotalLength: 32
    bNumInterfaces: 1
    bConfigurationValue: 1
    iConfiguration: 0
    Configuration bmAttributes: 0x80  NOT SELF-POWERED  NO REMOTE-WAKEUP
        1... .... = Must be 1: Must be 1 for USB 1.1 and higher
        .0.. .... = Self-Powered: This device is powered from the USB bus
        ..0. .... = Remote Wakeup: This device does NOT support remote wakeup
    bMaxPower: 50  (100mA)

0000  1c 00 50 a7 eb 09 80 fa ff ff 00 00 00 00 08 00   ..P.............
0010  01 03 00 02 00 80 02 09 00 00 00 01 09 02 20 00   .............. .
0020  01 01 00 80 32                                    ....2

No.     Time        Source                Destination           Protocol Length Info
     96 5.598320    2.0                   host                  USB      28     GET DESCRIPTOR Status

Frame 96: 28 bytes on wire (224 bits), 28 bytes captured (224 bits)
    Encapsulation type: USB packets with USBPcap header (153)
    Arrival Time: Mar 15, 2014 08:06:46.716323000 CET
    [Time shift for this packet: 0.000000000 seconds]
    Epoch Time: 1394867206.716323000 seconds
    [Time delta from previous captured frame: 0.000000000 seconds]
    [Time delta from previous displayed frame: 0.000000000 seconds]
    [Time since reference or first frame: 5.598320000 seconds]
    Frame Number: 96
    Frame Length: 28 bytes (224 bits)
    Capture Length: 28 bytes (224 bits)
    [Frame is marked: False]
    [Frame is ignored: False]
    [Protocols in frame: usb]
USB URB
    USBPcap pseudoheader length: 28
    IRP ID: 0xfffffa8009eba750
    IRP USBD_STATUS: USBD_STATUS_SUCCESS (0x00000000)
    URB Function: URB_FUNCTION_CONTROL_TRANSFER (0x0008)
    IRP information: 0x01, Direction: PDO -> FDO
        0000 000. = Reserved: 0x00
        .... ...1 = Direction: PDO -> FDO (0x01)
    URB bus id: 3
    Device address: 2
    Endpoint: 0x80, Direction: IN
        1... .... = Direction: IN (1)
        .000 0000 = Endpoint value: 0
    URB transfer type: URB_CONTROL (0x02)
    Packet Data Length: 0
    Control transfer stage: Status (2)
    [Request in: 94]
    [Time from request: 0.000000000 seconds]
    [bInterfaceClass: Unknown (0xffff)]

0000  1c 00 50 a7 eb 09 80 fa ff ff 00 00 00 00 08 00   ..P.............
0010  01 03 00 02 00 80 02 00 00 00 00 02               ............

No.     Time        Source                Destination           Protocol Length Info
     97 5.598320    host                  2.0                   USB      36     GET DESCRIPTOR Request CONFIGURATION

Frame 97: 36 bytes on wire (288 bits), 36 bytes captured (288 bits)
    Encapsulation type: USB packets with USBPcap header (153)
    Arrival Time: Mar 15, 2014 08:06:46.716323000 CET
    [Time shift for this packet: 0.000000000 seconds]
    Epoch Time: 1394867206.716323000 seconds
    [Time delta from previous captured frame: 0.000000000 seconds]
    [Time delta from previous displayed frame: 0.000000000 seconds]
    [Time since reference or first frame: 5.598320000 seconds]
    Frame Number: 97
    Frame Length: 36 bytes (288 bits)
    Capture Length: 36 bytes (288 bits)
    [Frame is marked: False]
    [Frame is ignored: False]
    [Protocols in frame: usb]
USB URB
    USBPcap pseudoheader length: 28
    IRP ID: 0xfffffa8009eba750
    IRP USBD_STATUS: USBD_STATUS_SUCCESS (0x00000000)
    URB Function: URB_FUNCTION_GET_DESCRIPTOR_FROM_DEVICE (0x000b)
    IRP information: 0x00, Direction: FDO -> PDO
        0000 000. = Reserved: 0x00
        .... ...0 = Direction: FDO -> PDO (0x00)
    URB bus id: 3
    Device address: 2
    Endpoint: 0x00, Direction: OUT
        0... .... = Direction: OUT (0)
        .000 0000 = Endpoint value: 0
    URB transfer type: URB_CONTROL (0x02)
    Packet Data Length: 8
    Control transfer stage: Setup (0)
    [Response in: 99]
URB setup
    bmRequestType: 0x80
        1... .... = Direction: Device-to-host
        .00. .... = Type: Standard (0x00)
        ...0 0000 = Recipient: Device (0x00)
    bRequest: GET DESCRIPTOR (6)
    Descriptor Index: 0x00
    bDescriptorType: CONFIGURATION (2)
    Language Id: no language specified (0x0000)
    wLength: 32

0000  1c 00 50 a7 eb 09 80 fa ff ff 00 00 00 00 0b 00   ..P.............
0010  00 03 00 02 00 00 02 08 00 00 00 00 80 06 00 02   ................
0020  00 00 20 00                                       .. .

No.     Time        Source                Destination           Protocol Length Info
     98 5.599320    2.0                   host                  USB      60     GET DESCRIPTOR Response CONFIGURATION

Frame 98: 60 bytes on wire (480 bits), 60 bytes captured (480 bits)
    Encapsulation type: USB packets with USBPcap header (153)
    Arrival Time: Mar 15, 2014 08:06:46.717323000 CET
    [Time shift for this packet: 0.000000000 seconds]
    Epoch Time: 1394867206.717323000 seconds
    [Time delta from previous captured frame: 0.001000000 seconds]
    [Time delta from previous displayed frame: 0.001000000 seconds]
    [Time since reference or first frame: 5.599320000 seconds]
    Frame Number: 98
    Frame Length: 60 bytes (480 bits)
    Capture Length: 60 bytes (480 bits)
    [Frame is marked: False]
    [Frame is ignored: False]
    [Protocols in frame: usb]
USB URB
    USBPcap pseudoheader length: 28
    IRP ID: 0xfffffa8009eba750
    IRP USBD_STATUS: USBD_STATUS_SUCCESS (0x00000000)
    URB Function: URB_FUNCTION_CONTROL_TRANSFER (0x0008)
    IRP information: 0x01, Direction: PDO -> FDO
        0000 000. = Reserved: 0x00
        .... ...1 = Direction: PDO -> FDO (0x01)
    URB bus id: 3
    Device address: 2
    Endpoint: 0x80, Direction: IN
        1... .... = Direction: IN (1)
        .000 0000 = Endpoint value: 0
    URB transfer type: URB_CONTROL (0x02)
    Packet Data Length: 32
    Control transfer stage: Data (1)
    [Request in: 97]
    [Time from request: 0.001000000 seconds]
    [bInterfaceClass: Unknown (0xffff)]
CONFIGURATION DESCRIPTOR
    bLength: 9
    bDescriptorType: CONFIGURATION (2)
    wTotalLength: 32
    bNumInterfaces: 1
    bConfigurationValue: 1
    iConfiguration: 0
    Configuration bmAttributes: 0x80  NOT SELF-POWERED  NO REMOTE-WAKEUP
        1... .... = Must be 1: Must be 1 for USB 1.1 and higher
        .0.. .... = Self-Powered: This device is powered from the USB bus
        ..0. .... = Remote Wakeup: This device does NOT support remote wakeup
    bMaxPower: 50  (100mA)
INTERFACE DESCRIPTOR (0.0): class Vendor Specific
    bLength: 9
    bDescriptorType: INTERFACE (4)
    bInterfaceNumber: 0
    bAlternateSetting: 0
    bNumEndpoints: 2
    bInterfaceClass: Vendor Specific (0xff)
    bInterfaceSubClass: 0x00
    bInterfaceProtocol: 0x00
    iInterface: 2
ENDPOINT DESCRIPTOR
    bLength: 7
    bDescriptorType: ENDPOINT (5)
    bEndpointAddress: 0x81  IN  Endpoint:1
        1... .... = Direction: IN Endpoint
        .... 0001 = Endpoint Number: 0x01
    bmAttributes: 0x02
        .... ..10 = Transfertype: Bulk-Transfer (0x02)
        .... 00.. = Synchronisationtype: No Sync (0x00)
        ..00 .... = Behaviourtype: Data-Endpoint (0x00)
    wMaxPacketSize: 64
        .... ..00 0100 0000 = Maximum Packet Size: 64
    bInterval: 0
ENDPOINT DESCRIPTOR
    bLength: 7
    bDescriptorType: ENDPOINT (5)
    bEndpointAddress: 0x01  OUT  Endpoint:1
        0... .... = Direction: OUT Endpoint
        .... 0001 = Endpoint Number: 0x01
    bmAttributes: 0x02
        .... ..10 = Transfertype: Bulk-Transfer (0x02)
        .... 00.. = Synchronisationtype: No Sync (0x00)
        ..00 .... = Behaviourtype: Data-Endpoint (0x00)
    wMaxPacketSize: 64
        .... ..00 0100 0000 = Maximum Packet Size: 64
    bInterval: 0

0000  1c 00 50 a7 eb 09 80 fa ff ff 00 00 00 00 08 00   ..P.............
0010  01 03 00 02 00 80 02 20 00 00 00 01 09 02 20 00   ....... ...... .
0020  01 01 00 80 32 09 04 00 00 02 ff 00 00 02 07 05   ....2...........
0030  81 02 40 00 00 07 05 01 02 40 00 00               ..@......@..

No.     Time        Source                Destination           Protocol Length Info
     99 5.599320    2.0                   host                  USB      28     GET DESCRIPTOR Status

Frame 99: 28 bytes on wire (224 bits), 28 bytes captured (224 bits)
    Encapsulation type: USB packets with USBPcap header (153)
    Arrival Time: Mar 15, 2014 08:06:46.717323000 CET
    [Time shift for this packet: 0.000000000 seconds]
    Epoch Time: 1394867206.717323000 seconds
    [Time delta from previous captured frame: 0.000000000 seconds]
    [Time delta from previous displayed frame: 0.000000000 seconds]
    [Time since reference or first frame: 5.599320000 seconds]
    Frame Number: 99
    Frame Length: 28 bytes (224 bits)
    Capture Length: 28 bytes (224 bits)
    [Frame is marked: False]
    [Frame is ignored: False]
    [Protocols in frame: usb]
USB URB
    USBPcap pseudoheader length: 28
    IRP ID: 0xfffffa8009eba750
    IRP USBD_STATUS: USBD_STATUS_SUCCESS (0x00000000)
    URB Function: URB_FUNCTION_CONTROL_TRANSFER (0x0008)
    IRP information: 0x01, Direction: PDO -> FDO
        0000 000. = Reserved: 0x00
        .... ...1 = Direction: PDO -> FDO (0x01)
    URB bus id: 3
    Device address: 2
    Endpoint: 0x80, Direction: IN
        1... .... = Direction: IN (1)
        .000 0000 = Endpoint value: 0
    URB transfer type: URB_CONTROL (0x02)
    Packet Data Length: 0
    Control transfer stage: Status (2)
    [Request in: 97]
    [Time from request: 0.001000000 seconds]
    [bInterfaceClass: Unknown (0xffff)]

0000  1c 00 50 a7 eb 09 80 fa ff ff 00 00 00 00 08 00   ..P.............
0010  01 03 00 02 00 80 02 00 00 00 00 02               ............

No.     Time        Source                Destination           Protocol Length Info
    100 5.599320    host                  2.0                   USB      36     SET CONFIGURATION Request

Frame 100: 36 bytes on wire (288 bits), 36 bytes captured (288 bits)
    Encapsulation type: USB packets with USBPcap header (153)
    Arrival Time: Mar 15, 2014 08:06:46.717323000 CET
    [Time shift for this packet: 0.000000000 seconds]
    Epoch Time: 1394867206.717323000 seconds
    [Time delta from previous captured frame: 0.000000000 seconds]
    [Time delta from previous displayed frame: 0.000000000 seconds]
    [Time since reference or first frame: 5.599320000 seconds]
    Frame Number: 100
    Frame Length: 36 bytes (288 bits)
    Capture Length: 36 bytes (288 bits)
    [Frame is marked: False]
    [Frame is ignored: False]
    [Protocols in frame: usb]
USB URB
    USBPcap pseudoheader length: 28
    IRP ID: 0xfffffa8009eba750
    IRP USBD_STATUS: USBD_STATUS_SUCCESS (0x00000000)
    URB Function: URB_FUNCTION_SELECT_CONFIGURATION (0x0000)
    IRP information: 0x00, Direction: FDO -> PDO
        0000 000. = Reserved: 0x00
        .... ...0 = Direction: FDO -> PDO (0x00)
    URB bus id: 3
    Device address: 2
    Endpoint: 0x80, Direction: IN
        1... .... = Direction: IN (1)
        .000 0000 = Endpoint value: 0
    URB transfer type: URB_CONTROL (0x02)
    Packet Data Length: 8
    Control transfer stage: Setup (0)
    [Response in: 101]
URB setup
    bmRequestType: 0x00
        0... .... = Direction: Host-to-device
        .00. .... = Type: Standard (0x00)
        ...0 0000 = Recipient: Device (0x00)
    bRequest: SET CONFIGURATION (9)
    bConfigurationValue: 1
    wIndex: 0
    wLength: 0

0000  1c 00 50 a7 eb 09 80 fa ff ff 00 00 00 00 00 00   ..P.............
0010  00 03 00 02 00 80 02 08 00 00 00 00 00 09 01 00   ................
0020  00 00 00 00                                       ....

No.     Time        Source                Destination           Protocol Length Info
    101 5.599320    2.0                   host                  USB      28     SET CONFIGURATION Status

Frame 101: 28 bytes on wire (224 bits), 28 bytes captured (224 bits)
    Encapsulation type: USB packets with USBPcap header (153)
    Arrival Time: Mar 15, 2014 08:06:46.717323000 CET
    [Time shift for this packet: 0.000000000 seconds]
    Epoch Time: 1394867206.717323000 seconds
    [Time delta from previous captured frame: 0.000000000 seconds]
    [Time delta from previous displayed frame: 0.000000000 seconds]
    [Time since reference or first frame: 5.599320000 seconds]
    Frame Number: 101
    Frame Length: 28 bytes (224 bits)
    Capture Length: 28 bytes (224 bits)
    [Frame is marked: False]
    [Frame is ignored: False]
    [Protocols in frame: usb]
USB URB
    USBPcap pseudoheader length: 28
    IRP ID: 0xfffffa8009eba750
    IRP USBD_STATUS: USBD_STATUS_SUCCESS (0x00000000)
    URB Function: URB_FUNCTION_SELECT_CONFIGURATION (0x0000)
    IRP information: 0x01, Direction: PDO -> FDO
        0000 000. = Reserved: 0x00
        .... ...1 = Direction: PDO -> FDO (0x01)
    URB bus id: 3
    Device address: 2
    Endpoint: 0x80, Direction: IN
        1... .... = Direction: IN (1)
        .000 0000 = Endpoint value: 0
    URB transfer type: URB_CONTROL (0x02)
    Packet Data Length: 0
    Control transfer stage: Status (2)
    [Request in: 100]
    [Time from request: 0.000000000 seconds]
    [bInterfaceClass: Unknown (0xffff)]

0000  1c 00 50 a7 eb 09 80 fa ff ff 00 00 00 00 00 00   ..P.............
0010  01 03 00 02 00 80 02 00 00 00 00 02               ............

No.     Time        Source                Destination           Protocol Length Info
    102 59.596408   host                  2.0                   USB      36     URB_CONTROL out

Frame 102: 36 bytes on wire (288 bits), 36 bytes captured (288 bits)
    Encapsulation type: USB packets with USBPcap header (153)
    Arrival Time: Mar 15, 2014 08:07:40.714411000 CET
    [Time shift for this packet: 0.000000000 seconds]
    Epoch Time: 1394867260.714411000 seconds
    [Time delta from previous captured frame: 53.997088000 seconds]
    [Time delta from previous displayed frame: 53.997088000 seconds]
    [Time since reference or first frame: 59.596408000 seconds]
    Frame Number: 102
    Frame Length: 36 bytes (288 bits)
    Capture Length: 36 bytes (288 bits)
    [Frame is marked: False]
    [Frame is ignored: False]
    [Protocols in frame: usb]
USB URB
    USBPcap pseudoheader length: 28
    IRP ID: 0xfffffa8009934490
    IRP USBD_STATUS: Unknown (0xfffffa80)
    URB Function: URB_FUNCTION_VENDOR_DEVICE (0x0017)
    IRP information: 0x00, Direction: FDO -> PDO
        0000 000. = Reserved: 0x00
        .... ...0 = Direction: FDO -> PDO (0x00)
    URB bus id: 3
    Device address: 2
    Endpoint: 0x00, Direction: OUT
        0... .... = Direction: OUT (0)
        .000 0000 = Endpoint value: 0
    URB transfer type: URB_CONTROL (0x02)
    Packet Data Length: 8
    Control transfer stage: Setup (0)
    [Response in: 103]
URB setup
    bmRequestType: 0x40
        0... .... = Direction: Host-to-device
        .10. .... = Type: Vendor (0x02)
        ...0 0000 = Recipient: Device (0x00)
    bRequest: 0
    wValue: 0xffff
    wIndex: 0
    wLength: 0

0000  1c 00 90 44 93 09 80 fa ff ff 80 fa ff ff 17 00   ...D............
0010  00 03 00 02 00 00 02 08 00 00 00 00 40 00 ff ff   ............@...
0020  00 00 00 00                                       ....

No.     Time        Source                Destination           Protocol Length Info
    103 59.597409   2.0                   host                  USB      28     GET STATUS Status

Frame 103: 28 bytes on wire (224 bits), 28 bytes captured (224 bits)
    Encapsulation type: USB packets with USBPcap header (153)
    Arrival Time: Mar 15, 2014 08:07:40.715412000 CET
    [Time shift for this packet: 0.000000000 seconds]
    Epoch Time: 1394867260.715412000 seconds
    [Time delta from previous captured frame: 0.001001000 seconds]
    [Time delta from previous displayed frame: 0.001001000 seconds]
    [Time since reference or first frame: 59.597409000 seconds]
    Frame Number: 103
    Frame Length: 28 bytes (224 bits)
    Capture Length: 28 bytes (224 bits)
    [Frame is marked: False]
    [Frame is ignored: False]
    [Protocols in frame: usb]
USB URB
    USBPcap pseudoheader length: 28
    IRP ID: 0xfffffa8009934490
    IRP USBD_STATUS: USBD_STATUS_SUCCESS (0x00000000)
    URB Function: URB_FUNCTION_CONTROL_TRANSFER (0x0008)
    IRP information: 0x01, Direction: PDO -> FDO
        0000 000. = Reserved: 0x00
        .... ...1 = Direction: PDO -> FDO (0x01)
    URB bus id: 3
    Device address: 2
    Endpoint: 0x00, Direction: OUT
        0... .... = Direction: OUT (0)
        .000 0000 = Endpoint value: 0
    URB transfer type: URB_CONTROL (0x02)
    Packet Data Length: 0
    Control transfer stage: Status (2)
    [Request in: 102]
    [Time from request: 0.001001000 seconds]
    [bInterfaceClass: Unknown (0xffff)]

0000  1c 00 90 44 93 09 80 fa ff ff 00 00 00 00 08 00   ...D............
0010  01 03 00 02 00 00 02 00 00 00 00 02               ............

No.     Time        Source                Destination           Protocol Length Info
    104 59.597409   host                  2.0                   USB      36     URB_CONTROL out

Frame 104: 36 bytes on wire (288 bits), 36 bytes captured (288 bits)
    Encapsulation type: USB packets with USBPcap header (153)
    Arrival Time: Mar 15, 2014 08:07:40.715412000 CET
    [Time shift for this packet: 0.000000000 seconds]
    Epoch Time: 1394867260.715412000 seconds
    [Time delta from previous captured frame: 0.000000000 seconds]
    [Time delta from previous displayed frame: 0.000000000 seconds]
    [Time since reference or first frame: 59.597409000 seconds]
    Frame Number: 104
    Frame Length: 36 bytes (288 bits)
    Capture Length: 36 bytes (288 bits)
    [Frame is marked: False]
    [Frame is ignored: False]
    [Protocols in frame: usb]
USB URB
    USBPcap pseudoheader length: 28
    IRP ID: 0xfffffa8009934490
    IRP USBD_STATUS: USBD_STATUS_SUCCESS (0x00000000)
    URB Function: URB_FUNCTION_VENDOR_DEVICE (0x0017)
    IRP information: 0x00, Direction: FDO -> PDO
        0000 000. = Reserved: 0x00
        .... ...0 = Direction: FDO -> PDO (0x00)
    URB bus id: 3
    Device address: 2
    Endpoint: 0x00, Direction: OUT
        0... .... = Direction: OUT (0)
        .000 0000 = Endpoint value: 0
    URB transfer type: URB_CONTROL (0x02)
    Packet Data Length: 8
    Control transfer stage: Setup (0)
    [Response in: 105]
URB setup
    bmRequestType: 0x40
        0... .... = Direction: Host-to-device
        .10. .... = Type: Vendor (0x02)
        ...0 0000 = Recipient: Device (0x00)
    bRequest: 1
    wValue: 0x2000
    wIndex: 0
    wLength: 0

0000  1c 00 90 44 93 09 80 fa ff ff 00 00 00 00 17 00   ...D............
0010  00 03 00 02 00 00 02 08 00 00 00 00 40 01 00 20   ............@.. 
0020  00 00 00 00                                       ....

No.     Time        Source                Destination           Protocol Length Info
    105 59.597409   2.0                   host                  USB      28     CLEAR FEATURE Status

Frame 105: 28 bytes on wire (224 bits), 28 bytes captured (224 bits)
    Encapsulation type: USB packets with USBPcap header (153)
    Arrival Time: Mar 15, 2014 08:07:40.715412000 CET
    [Time shift for this packet: 0.000000000 seconds]
    Epoch Time: 1394867260.715412000 seconds
    [Time delta from previous captured frame: 0.000000000 seconds]
    [Time delta from previous displayed frame: 0.000000000 seconds]
    [Time since reference or first frame: 59.597409000 seconds]
    Frame Number: 105
    Frame Length: 28 bytes (224 bits)
    Capture Length: 28 bytes (224 bits)
    [Frame is marked: False]
    [Frame is ignored: False]
    [Protocols in frame: usb]
USB URB
    USBPcap pseudoheader length: 28
    IRP ID: 0xfffffa8009934490
    IRP USBD_STATUS: USBD_STATUS_SUCCESS (0x00000000)
    URB Function: URB_FUNCTION_CONTROL_TRANSFER (0x0008)
    IRP information: 0x01, Direction: PDO -> FDO
        0000 000. = Reserved: 0x00
        .... ...1 = Direction: PDO -> FDO (0x01)
    URB bus id: 3
    Device address: 2
    Endpoint: 0x00, Direction: OUT
        0... .... = Direction: OUT (0)
        .000 0000 = Endpoint value: 0
    URB transfer type: URB_CONTROL (0x02)
    Packet Data Length: 0
    Control transfer stage: Status (2)
    [Request in: 104]
    [Time from request: 0.000000000 seconds]
    [bInterfaceClass: Unknown (0xffff)]

0000  1c 00 90 44 93 09 80 fa ff ff 00 00 00 00 08 00   ...D............
0010  01 03 00 02 00 00 02 00 00 00 00 02               ............

No.     Time        Source                Destination           Protocol Length Info
    106 59.597409   host                  2.0                   USB      36     URB_CONTROL in

Frame 106: 36 bytes on wire (288 bits), 36 bytes captured (288 bits)
    Encapsulation type: USB packets with USBPcap header (153)
    Arrival Time: Mar 15, 2014 08:07:40.715412000 CET
    [Time shift for this packet: 0.000000000 seconds]
    Epoch Time: 1394867260.715412000 seconds
    [Time delta from previous captured frame: 0.000000000 seconds]
    [Time delta from previous displayed frame: 0.000000000 seconds]
    [Time since reference or first frame: 59.597409000 seconds]
    Frame Number: 106
    Frame Length: 36 bytes (288 bits)
    Capture Length: 36 bytes (288 bits)
    [Frame is marked: False]
    [Frame is ignored: False]
    [Protocols in frame: usb]
USB URB
    USBPcap pseudoheader length: 28
    IRP ID: 0xfffffa8009934490
    IRP USBD_STATUS: Unknown (0xfffffa80)
    URB Function: URB_FUNCTION_VENDOR_DEVICE (0x0017)
    IRP information: 0x00, Direction: FDO -> PDO
        0000 000. = Reserved: 0x00
        .... ...0 = Direction: FDO -> PDO (0x00)
    URB bus id: 3
    Device address: 2
    Endpoint: 0x80, Direction: IN
        1... .... = Direction: IN (1)
        .000 0000 = Endpoint value: 0
    URB transfer type: URB_CONTROL (0x02)
    Packet Data Length: 8
    Control transfer stage: Setup (0)
    [Response in: 108]
URB setup
    bmRequestType: 0xc0
        1... .... = Direction: Device-to-host
        .10. .... = Type: Vendor (0x02)
        ...0 0000 = Recipient: Device (0x00)
    bRequest: 255
    wValue: 0x370b
    wIndex: 0
    wLength: 1

0000  1c 00 90 44 93 09 80 fa ff ff 80 fa ff ff 17 00   ...D............
0010  00 03 00 02 00 80 02 08 00 00 00 00 c0 ff 0b 37   ...............7
0020  00 00 01 00                                       ....

No.     Time        Source                Destination           Protocol Length Info
    107 59.599409   2.0                   host                  USB      29     URB_CONTROL in

Frame 107: 29 bytes on wire (232 bits), 29 bytes captured (232 bits)
    Encapsulation type: USB packets with USBPcap header (153)
    Arrival Time: Mar 15, 2014 08:07:40.717412000 CET
    [Time shift for this packet: 0.000000000 seconds]
    Epoch Time: 1394867260.717412000 seconds
    [Time delta from previous captured frame: 0.002000000 seconds]
    [Time delta from previous displayed frame: 0.002000000 seconds]
    [Time since reference or first frame: 59.599409000 seconds]
    Frame Number: 107
    Frame Length: 29 bytes (232 bits)
    Capture Length: 29 bytes (232 bits)
    [Frame is marked: False]
    [Frame is ignored: False]
    [Protocols in frame: usb]
USB URB
    USBPcap pseudoheader length: 28
    IRP ID: 0xfffffa8009934490
    IRP USBD_STATUS: USBD_STATUS_SUCCESS (0x00000000)
    URB Function: URB_FUNCTION_CONTROL_TRANSFER (0x0008)
    IRP information: 0x01, Direction: PDO -> FDO
        0000 000. = Reserved: 0x00
        .... ...1 = Direction: PDO -> FDO (0x01)
    URB bus id: 3
    Device address: 2
    Endpoint: 0x80, Direction: IN
        1... .... = Direction: IN (1)
        .000 0000 = Endpoint value: 0
    URB transfer type: URB_CONTROL (0x02)
    Packet Data Length: 1
    Control transfer stage: Data (1)
    [Request in: 106]
    [Time from request: 0.002000000 seconds]
    [bInterfaceClass: Unknown (0xffff)]
CONTROL response data

0000  1c 00 90 44 93 09 80 fa ff ff 00 00 00 00 08 00   ...D............
0010  01 03 00 02 00 80 02 01 00 00 00 01 02            .............

No.     Time        Source                Destination           Protocol Length Info
    108 59.599409   2.0                   host                  USB      28     Unknown type ff Status

Frame 108: 28 bytes on wire (224 bits), 28 bytes captured (224 bits)
    Encapsulation type: USB packets with USBPcap header (153)
    Arrival Time: Mar 15, 2014 08:07:40.717412000 CET
    [Time shift for this packet: 0.000000000 seconds]
    Epoch Time: 1394867260.717412000 seconds
    [Time delta from previous captured frame: 0.000000000 seconds]
    [Time delta from previous displayed frame: 0.000000000 seconds]
    [Time since reference or first frame: 59.599409000 seconds]
    Frame Number: 108
    Frame Length: 28 bytes (224 bits)
    Capture Length: 28 bytes (224 bits)
    [Frame is marked: False]
    [Frame is ignored: False]
    [Protocols in frame: usb]
USB URB
    USBPcap pseudoheader length: 28
    IRP ID: 0xfffffa8009934490
    IRP USBD_STATUS: USBD_STATUS_SUCCESS (0x00000000)
    URB Function: URB_FUNCTION_CONTROL_TRANSFER (0x0008)
    IRP information: 0x01, Direction: PDO -> FDO
        0000 000. = Reserved: 0x00
        .... ...1 = Direction: PDO -> FDO (0x01)
    URB bus id: 3
    Device address: 2
    Endpoint: 0x80, Direction: IN
        1... .... = Direction: IN (1)
        .000 0000 = Endpoint value: 0
    URB transfer type: URB_CONTROL (0x02)
    Packet Data Length: 0
    Control transfer stage: Status (2)
    [Request in: 106]
    [Time from request: 0.002000000 seconds]
    [bInterfaceClass: Unknown (0xffff)]

0000  1c 00 90 44 93 09 80 fa ff ff 00 00 00 00 08 00   ...D............
0010  01 03 00 02 00 80 02 00 00 00 00 02               ............

No.     Time        Source                Destination           Protocol Length Info
    109 59.599409   host                  2.0                   USB      36     URB_CONTROL in

Frame 109: 36 bytes on wire (288 bits), 36 bytes captured (288 bits)
    Encapsulation type: USB packets with USBPcap header (153)
    Arrival Time: Mar 15, 2014 08:07:40.717412000 CET
    [Time shift for this packet: 0.000000000 seconds]
    Epoch Time: 1394867260.717412000 seconds
    [Time delta from previous captured frame: 0.000000000 seconds]
    [Time delta from previous displayed frame: 0.000000000 seconds]
    [Time since reference or first frame: 59.599409000 seconds]
    Frame Number: 109
    Frame Length: 36 bytes (288 bits)
    Capture Length: 36 bytes (288 bits)
    [Frame is marked: False]
    [Frame is ignored: False]
    [Protocols in frame: usb]
USB URB
    USBPcap pseudoheader length: 28
    IRP ID: 0xfffffa8009934490
    IRP USBD_STATUS: Unknown (0xfffffa80)
    URB Function: URB_FUNCTION_VENDOR_DEVICE (0x0017)
    IRP information: 0x00, Direction: FDO -> PDO
        0000 000. = Reserved: 0x00
        .... ...0 = Direction: FDO -> PDO (0x00)
    URB bus id: 3
    Device address: 2
    Endpoint: 0x80, Direction: IN
        1... .... = Direction: IN (1)
        .000 0000 = Endpoint value: 0
    URB transfer type: URB_CONTROL (0x02)
    Packet Data Length: 8
    Control transfer stage: Setup (0)
    [Response in: 111]
URB setup
    bmRequestType: 0xc0
        1... .... = Direction: Device-to-host
        .10. .... = Type: Vendor (0x02)
        ...0 0000 = Recipient: Device (0x00)
    bRequest: 255
    wValue: 0x370b
    wIndex: 0
    wLength: 1

0000  1c 00 90 44 93 09 80 fa ff ff 80 fa ff ff 17 00   ...D............
0010  00 03 00 02 00 80 02 08 00 00 00 00 c0 ff 0b 37   ...............7
0020  00 00 01 00                                       ....

No.     Time        Source                Destination           Protocol Length Info
    110 59.600409   2.0                   host                  USB      29     URB_CONTROL in

Frame 110: 29 bytes on wire (232 bits), 29 bytes captured (232 bits)
    Encapsulation type: USB packets with USBPcap header (153)
    Arrival Time: Mar 15, 2014 08:07:40.718412000 CET
    [Time shift for this packet: 0.000000000 seconds]
    Epoch Time: 1394867260.718412000 seconds
    [Time delta from previous captured frame: 0.001000000 seconds]
    [Time delta from previous displayed frame: 0.001000000 seconds]
    [Time since reference or first frame: 59.600409000 seconds]
    Frame Number: 110
    Frame Length: 29 bytes (232 bits)
    Capture Length: 29 bytes (232 bits)
    [Frame is marked: False]
    [Frame is ignored: False]
    [Protocols in frame: usb]
USB URB
    USBPcap pseudoheader length: 28
    IRP ID: 0xfffffa8009934490
    IRP USBD_STATUS: USBD_STATUS_SUCCESS (0x00000000)
    URB Function: URB_FUNCTION_CONTROL_TRANSFER (0x0008)
    IRP information: 0x01, Direction: PDO -> FDO
        0000 000. = Reserved: 0x00
        .... ...1 = Direction: PDO -> FDO (0x01)
    URB bus id: 3
    Device address: 2
    Endpoint: 0x80, Direction: IN
        1... .... = Direction: IN (1)
        .000 0000 = Endpoint value: 0
    URB transfer type: URB_CONTROL (0x02)
    Packet Data Length: 1
    Control transfer stage: Data (1)
    [Request in: 109]
    [Time from request: 0.001000000 seconds]
    [bInterfaceClass: Unknown (0xffff)]
CONTROL response data

0000  1c 00 90 44 93 09 80 fa ff ff 00 00 00 00 08 00   ...D............
0010  01 03 00 02 00 80 02 01 00 00 00 01 02            .............

No.     Time        Source                Destination           Protocol Length Info
    111 59.600409   2.0                   host                  USB      28     Unknown type ff Status

Frame 111: 28 bytes on wire (224 bits), 28 bytes captured (224 bits)
    Encapsulation type: USB packets with USBPcap header (153)
    Arrival Time: Mar 15, 2014 08:07:40.718412000 CET
    [Time shift for this packet: 0.000000000 seconds]
    Epoch Time: 1394867260.718412000 seconds
    [Time delta from previous captured frame: 0.000000000 seconds]
    [Time delta from previous displayed frame: 0.000000000 seconds]
    [Time since reference or first frame: 59.600409000 seconds]
    Frame Number: 111
    Frame Length: 28 bytes (224 bits)
    Capture Length: 28 bytes (224 bits)
    [Frame is marked: False]
    [Frame is ignored: False]
    [Protocols in frame: usb]
USB URB
    USBPcap pseudoheader length: 28
    IRP ID: 0xfffffa8009934490
    IRP USBD_STATUS: USBD_STATUS_SUCCESS (0x00000000)
    URB Function: URB_FUNCTION_CONTROL_TRANSFER (0x0008)
    IRP information: 0x01, Direction: PDO -> FDO
        0000 000. = Reserved: 0x00
        .... ...1 = Direction: PDO -> FDO (0x01)
    URB bus id: 3
    Device address: 2
    Endpoint: 0x80, Direction: IN
        1... .... = Direction: IN (1)
        .000 0000 = Endpoint value: 0
    URB transfer type: URB_CONTROL (0x02)
    Packet Data Length: 0
    Control transfer stage: Status (2)
    [Request in: 109]
    [Time from request: 0.001000000 seconds]
    [bInterfaceClass: Unknown (0xffff)]

0000  1c 00 90 44 93 09 80 fa ff ff 00 00 00 00 08 00   ...D............
0010  01 03 00 02 00 80 02 00 00 00 00 02               ............

No.     Time        Source                Destination           Protocol Length Info
    112 59.603409   host                  2.0                   USB      36     URB_CONTROL out

Frame 112: 36 bytes on wire (288 bits), 36 bytes captured (288 bits)
    Encapsulation type: USB packets with USBPcap header (153)
    Arrival Time: Mar 15, 2014 08:07:40.721412000 CET
    [Time shift for this packet: 0.000000000 seconds]
    Epoch Time: 1394867260.721412000 seconds
    [Time delta from previous captured frame: 0.003000000 seconds]
    [Time delta from previous displayed frame: 0.003000000 seconds]
    [Time since reference or first frame: 59.603409000 seconds]
    Frame Number: 112
    Frame Length: 36 bytes (288 bits)
    Capture Length: 36 bytes (288 bits)
    [Frame is marked: False]
    [Frame is ignored: False]
    [Protocols in frame: usb]
USB URB
    USBPcap pseudoheader length: 28
    IRP ID: 0xfffffa80098d7330
    IRP USBD_STATUS: USBD_STATUS_SUCCESS (0x00000000)
    URB Function: URB_FUNCTION_VENDOR_DEVICE (0x0017)
    IRP information: 0x00, Direction: FDO -> PDO
        0000 000. = Reserved: 0x00
        .... ...0 = Direction: FDO -> PDO (0x00)
    URB bus id: 3
    Device address: 2
    Endpoint: 0x00, Direction: OUT
        0... .... = Direction: OUT (0)
        .000 0000 = Endpoint value: 0
    URB transfer type: URB_CONTROL (0x02)
    Packet Data Length: 8
    Control transfer stage: Setup (0)
    [Response in: 114]
URB setup
    bmRequestType: 0x40
        0... .... = Direction: Host-to-device
        .10. .... = Type: Vendor (0x02)
        ...0 0000 = Recipient: Device (0x00)
    bRequest: 30
    wValue: 0x0000
    wIndex: 0
    wLength: 4

0000  1c 00 30 73 8d 09 80 fa ff ff 00 00 00 00 17 00   ..0s............
0010  00 03 00 02 00 00 02 08 00 00 00 00 40 1e 00 00   ............@...
0020  00 00 04 00                                       ....

No.     Time        Source                Destination           Protocol Length Info
    113 59.604409   2.0                   host                  USB      32     URB_CONTROL out

Frame 113: 32 bytes on wire (256 bits), 32 bytes captured (256 bits)
    Encapsulation type: USB packets with USBPcap header (153)
    Arrival Time: Mar 15, 2014 08:07:40.722412000 CET
    [Time shift for this packet: 0.000000000 seconds]
    Epoch Time: 1394867260.722412000 seconds
    [Time delta from previous captured frame: 0.001000000 seconds]
    [Time delta from previous displayed frame: 0.001000000 seconds]
    [Time since reference or first frame: 59.604409000 seconds]
    Frame Number: 113
    Frame Length: 32 bytes (256 bits)
    Capture Length: 32 bytes (256 bits)
    [Frame is marked: False]
    [Frame is ignored: False]
    [Protocols in frame: usb]
USB URB
    USBPcap pseudoheader length: 28
    IRP ID: 0xfffffa80098d7330
    IRP USBD_STATUS: USBD_STATUS_SUCCESS (0x00000000)
    URB Function: URB_FUNCTION_CONTROL_TRANSFER (0x0008)
    IRP information: 0x01, Direction: PDO -> FDO
        0000 000. = Reserved: 0x00
        .... ...1 = Direction: PDO -> FDO (0x01)
    URB bus id: 3
    Device address: 2
    Endpoint: 0x00, Direction: OUT
        0... .... = Direction: OUT (0)
        .000 0000 = Endpoint value: 0
    URB transfer type: URB_CONTROL (0x02)
    Packet Data Length: 4
    Control transfer stage: Data (1)
    [Request in: 112]
    [Time from request: 0.001000000 seconds]
    [bInterfaceClass: Unknown (0xffff)]
CONTROL response data

0000  1c 00 30 73 8d 09 80 fa ff ff 00 00 00 00 08 00   ..0s............
0010  01 03 00 02 00 00 02 04 00 00 00 01 00 c2 01 00   ................

No.     Time        Source                Destination           Protocol Length Info
    114 59.604409   2.0                   host                  USB      28     Unknown type 1e Status

Frame 114: 28 bytes on wire (224 bits), 28 bytes captured (224 bits)
    Encapsulation type: USB packets with USBPcap header (153)
    Arrival Time: Mar 15, 2014 08:07:40.722412000 CET
    [Time shift for this packet: 0.000000000 seconds]
    Epoch Time: 1394867260.722412000 seconds
    [Time delta from previous captured frame: 0.000000000 seconds]
    [Time delta from previous displayed frame: 0.000000000 seconds]
    [Time since reference or first frame: 59.604409000 seconds]
    Frame Number: 114
    Frame Length: 28 bytes (224 bits)
    Capture Length: 28 bytes (224 bits)
    [Frame is marked: False]
    [Frame is ignored: False]
    [Protocols in frame: usb]
USB URB
    USBPcap pseudoheader length: 28
    IRP ID: 0xfffffa80098d7330
    IRP USBD_STATUS: USBD_STATUS_SUCCESS (0x00000000)
    URB Function: URB_FUNCTION_CONTROL_TRANSFER (0x0008)
    IRP information: 0x01, Direction: PDO -> FDO
        0000 000. = Reserved: 0x00
        .... ...1 = Direction: PDO -> FDO (0x01)
    URB bus id: 3
    Device address: 2
    Endpoint: 0x00, Direction: OUT
        0... .... = Direction: OUT (0)
        .000 0000 = Endpoint value: 0
    URB transfer type: URB_CONTROL (0x02)
    Packet Data Length: 0
    Control transfer stage: Status (2)
    [Request in: 112]
    [Time from request: 0.001000000 seconds]
    [bInterfaceClass: Unknown (0xffff)]

0000  1c 00 30 73 8d 09 80 fa ff ff 00 00 00 00 08 00   ..0s............
0010  01 03 00 02 00 00 02 00 00 00 00 02               ............

No.     Time        Source                Destination           Protocol Length Info
    115 59.606409   host                  2.0                   USB      36     URB_CONTROL out

Frame 115: 36 bytes on wire (288 bits), 36 bytes captured (288 bits)
    Encapsulation type: USB packets with USBPcap header (153)
    Arrival Time: Mar 15, 2014 08:07:40.724412000 CET
    [Time shift for this packet: 0.000000000 seconds]
    Epoch Time: 1394867260.724412000 seconds
    [Time delta from previous captured frame: 0.002000000 seconds]
    [Time delta from previous displayed frame: 0.002000000 seconds]
    [Time since reference or first frame: 59.606409000 seconds]
    Frame Number: 115
    Frame Length: 36 bytes (288 bits)
    Capture Length: 36 bytes (288 bits)
    [Frame is marked: False]
    [Frame is ignored: False]
    [Protocols in frame: usb]
USB URB
    USBPcap pseudoheader length: 28
    IRP ID: 0xfffffa8004dc1610
    IRP USBD_STATUS: USBD_STATUS_SUCCESS (0x00000000)
    URB Function: URB_FUNCTION_VENDOR_DEVICE (0x0017)
    IRP information: 0x00, Direction: FDO -> PDO
        0000 000. = Reserved: 0x00
        .... ...0 = Direction: FDO -> PDO (0x00)
    URB bus id: 3
    Device address: 2
    Endpoint: 0x00, Direction: OUT
        0... .... = Direction: OUT (0)
        .000 0000 = Endpoint value: 0
    URB transfer type: URB_CONTROL (0x02)
    Packet Data Length: 8
    Control transfer stage: Setup (0)
    [Response in: 116]
URB setup
    bmRequestType: 0x40
        0... .... = Direction: Host-to-device
        .10. .... = Type: Vendor (0x02)
        ...0 0000 = Recipient: Device (0x00)
    bRequest: 18
    wValue: 0x000c
    wIndex: 0
    wLength: 0

0000  1c 00 10 16 dc 04 80 fa ff ff 00 00 00 00 17 00   ................
0010  00 03 00 02 00 00 02 08 00 00 00 00 40 12 0c 00   ............@...
0020  00 00 00 00                                       ....

No.     Time        Source                Destination           Protocol Length Info
    116 59.606409   2.0                   host                  USB      28     Unknown type 12 Status

Frame 116: 28 bytes on wire (224 bits), 28 bytes captured (224 bits)
    Encapsulation type: USB packets with USBPcap header (153)
    Arrival Time: Mar 15, 2014 08:07:40.724412000 CET
    [Time shift for this packet: 0.000000000 seconds]
    Epoch Time: 1394867260.724412000 seconds
    [Time delta from previous captured frame: 0.000000000 seconds]
    [Time delta from previous displayed frame: 0.000000000 seconds]
    [Time since reference or first frame: 59.606409000 seconds]
    Frame Number: 116
    Frame Length: 28 bytes (224 bits)
    Capture Length: 28 bytes (224 bits)
    [Frame is marked: False]
    [Frame is ignored: False]
    [Protocols in frame: usb]
USB URB
    USBPcap pseudoheader length: 28
    IRP ID: 0xfffffa8004dc1610
    IRP USBD_STATUS: USBD_STATUS_SUCCESS (0x00000000)
    URB Function: URB_FUNCTION_CONTROL_TRANSFER (0x0008)
    IRP information: 0x01, Direction: PDO -> FDO
        0000 000. = Reserved: 0x00
        .... ...1 = Direction: PDO -> FDO (0x01)
    URB bus id: 3
    Device address: 2
    Endpoint: 0x00, Direction: OUT
        0... .... = Direction: OUT (0)
        .000 0000 = Endpoint value: 0
    URB transfer type: URB_CONTROL (0x02)
    Packet Data Length: 0
    Control transfer stage: Status (2)
    [Request in: 115]
    [Time from request: 0.000000000 seconds]
    [bInterfaceClass: Unknown (0xffff)]

0000  1c 00 10 16 dc 04 80 fa ff ff 00 00 00 00 08 00   ................
0010  01 03 00 02 00 00 02 00 00 00 00 02               ............

No.     Time        Source                Destination           Protocol Length Info
    117 59.614410   host                  2.1                   USB      59     URB_BULK out

Frame 117: 59 bytes on wire (472 bits), 59 bytes captured (472 bits)
    Encapsulation type: USB packets with USBPcap header (153)
    Arrival Time: Mar 15, 2014 08:07:40.732413000 CET
    [Time shift for this packet: 0.000000000 seconds]
    Epoch Time: 1394867260.732413000 seconds
    [Time delta from previous captured frame: 0.008001000 seconds]
    [Time delta from previous displayed frame: 0.008001000 seconds]
    [Time since reference or first frame: 59.614410000 seconds]
    Frame Number: 117
    Frame Length: 59 bytes (472 bits)
    Capture Length: 59 bytes (472 bits)
    [Frame is marked: False]
    [Frame is ignored: False]
    [Protocols in frame: usb]
USB URB
    USBPcap pseudoheader length: 27
    IRP ID: 0xfffffa800471e910
    IRP USBD_STATUS: USBD_STATUS_SUCCESS (0x00000000)
    URB Function: URB_FUNCTION_BULK_OR_INTERRUPT_TRANSFER (0x0009)
    IRP information: 0x00, Direction: FDO -> PDO
        0000 000. = Reserved: 0x00
        .... ...0 = Direction: FDO -> PDO (0x00)
    URB bus id: 3
    Device address: 2
    Endpoint: 0x01, Direction: OUT
        0... .... = Direction: OUT (0)
        .000 0001 = Endpoint value: 1
    URB transfer type: URB_BULK (0x03)
    Packet Data Length: 32
    [Response in: 118]
    [bInterfaceClass: Vendor Specific (0xff)]
Leftover Capture Data: eeee00000000000000000000000000000000000000000000...

0000  1b 00 10 e9 71 04 80 fa ff ff 00 00 00 00 09 00   ....q...........
0010  00 03 00 02 00 01 03 20 00 00 00 ee ee 00 00 00   ....... ........
0020  00 00 00 00 00 00 00 00 00 00 00 00 00 00 00 00   ................
0030  00 00 00 00 00 00 00 00 00 00 00                  ...........

No.     Time        Source                Destination           Protocol Length Info
    118 59.621410   2.1                   host                  USB      63     URB_BULK in

Frame 118: 63 bytes on wire (504 bits), 63 bytes captured (504 bits)
    Encapsulation type: USB packets with USBPcap header (153)
    Arrival Time: Mar 15, 2014 08:07:40.739413000 CET
    [Time shift for this packet: 0.000000000 seconds]
    Epoch Time: 1394867260.739413000 seconds
    [Time delta from previous captured frame: 0.007000000 seconds]
    [Time delta from previous displayed frame: 0.007000000 seconds]
    [Time since reference or first frame: 59.621410000 seconds]
    Frame Number: 118
    Frame Length: 63 bytes (504 bits)
    Capture Length: 63 bytes (504 bits)
    [Frame is marked: False]
    [Frame is ignored: False]
    [Protocols in frame: usb]
USB URB
    USBPcap pseudoheader length: 27
    IRP ID: 0xfffffa8009c94600
    IRP USBD_STATUS: USBD_STATUS_SUCCESS (0x00000000)
    URB Function: URB_FUNCTION_BULK_OR_INTERRUPT_TRANSFER (0x0009)
    IRP information: 0x01, Direction: PDO -> FDO
        0000 000. = Reserved: 0x00
        .... ...1 = Direction: PDO -> FDO (0x01)
    URB bus id: 3
    Device address: 2
    Endpoint: 0x81, Direction: IN
        1... .... = Direction: IN (1)
        .000 0001 = Endpoint value: 1
    URB transfer type: URB_BULK (0x03)
    Packet Data Length: 36
    [Request in: 117]
    [Time from request: 0.007000000 seconds]
    [bInterfaceClass: Vendor Specific (0xff)]
Leftover Capture Data: 450c0c180165144d313139303930312d3031333132313030...

0000  1b 00 00 46 c9 09 80 fa ff ff 00 00 00 00 09 00   ...F............
0010  01 03 00 02 00 81 03 24 00 00 00 45 0c 0c 18 01   .......$...E....
0020  65 14 4d 31 31 39 30 39 30 31 2d 30 31 33 31 32   e.M1190901-01312
0030  31 30 30 37 31 24 01 00 64 6a 00 00 64 6a 00      10071$..dj..dj.

No.     Time        Source                Destination           Protocol Length Info
    119 61.603523   host                  2.0                   USB      36     URB_CONTROL out

Frame 119: 36 bytes on wire (288 bits), 36 bytes captured (288 bits)
    Encapsulation type: USB packets with USBPcap header (153)
    Arrival Time: Mar 15, 2014 08:07:42.721526000 CET
    [Time shift for this packet: 0.000000000 seconds]
    Epoch Time: 1394867262.721526000 seconds
    [Time delta from previous captured frame: 1.982113000 seconds]
    [Time delta from previous displayed frame: 1.982113000 seconds]
    [Time since reference or first frame: 61.603523000 seconds]
    Frame Number: 119
    Frame Length: 36 bytes (288 bits)
    Capture Length: 36 bytes (288 bits)
    [Frame is marked: False]
    [Frame is ignored: False]
    [Protocols in frame: usb]
USB URB
    USBPcap pseudoheader length: 28
    IRP ID: 0xfffffa8009934490
    IRP USBD_STATUS: USBD_STATUS_SUCCESS (0x00000000)
    URB Function: URB_FUNCTION_VENDOR_DEVICE (0x0017)
    IRP information: 0x00, Direction: FDO -> PDO
        0000 000. = Reserved: 0x00
        .... ...0 = Direction: FDO -> PDO (0x00)
    URB bus id: 3
    Device address: 2
    Endpoint: 0x00, Direction: OUT
        0... .... = Direction: OUT (0)
        .000 0000 = Endpoint value: 0
    URB transfer type: URB_CONTROL (0x02)
    Packet Data Length: 8
    Control transfer stage: Setup (0)
    [Response in: 120]
URB setup
    bmRequestType: 0x40
        0... .... = Direction: Host-to-device
        .10. .... = Type: Vendor (0x02)
        ...0 0000 = Recipient: Device (0x00)
    bRequest: 18
    wValue: 0x000c
    wIndex: 0
    wLength: 0

0000  1c 00 90 44 93 09 80 fa ff ff 00 00 00 00 17 00   ...D............
0010  00 03 00 02 00 00 02 08 00 00 00 00 40 12 0c 00   ............@...
0020  00 00 00 00                                       ....

No.     Time        Source                Destination           Protocol Length Info
    120 61.603523   2.0                   host                  USB      28     Unknown type 12 Status

Frame 120: 28 bytes on wire (224 bits), 28 bytes captured (224 bits)
    Encapsulation type: USB packets with USBPcap header (153)
    Arrival Time: Mar 15, 2014 08:07:42.721526000 CET
    [Time shift for this packet: 0.000000000 seconds]
    Epoch Time: 1394867262.721526000 seconds
    [Time delta from previous captured frame: 0.000000000 seconds]
    [Time delta from previous displayed frame: 0.000000000 seconds]
    [Time since reference or first frame: 61.603523000 seconds]
    Frame Number: 120
    Frame Length: 28 bytes (224 bits)
    Capture Length: 28 bytes (224 bits)
    [Frame is marked: False]
    [Frame is ignored: False]
    [Protocols in frame: usb]
USB URB
    USBPcap pseudoheader length: 28
    IRP ID: 0xfffffa8009934490
    IRP USBD_STATUS: USBD_STATUS_SUCCESS (0x00000000)
    URB Function: URB_FUNCTION_CONTROL_TRANSFER (0x0008)
    IRP information: 0x01, Direction: PDO -> FDO
        0000 000. = Reserved: 0x00
        .... ...1 = Direction: PDO -> FDO (0x01)
    URB bus id: 3
    Device address: 2
    Endpoint: 0x00, Direction: OUT
        0... .... = Direction: OUT (0)
        .000 0000 = Endpoint value: 0
    URB transfer type: URB_CONTROL (0x02)
    Packet Data Length: 0
    Control transfer stage: Status (2)
    [Request in: 119]
    [Time from request: 0.000000000 seconds]
    [bInterfaceClass: Unknown (0xffff)]

0000  1c 00 90 44 93 09 80 fa ff ff 00 00 00 00 08 00   ...D............
0010  01 03 00 02 00 00 02 00 00 00 00 02               ............

No.     Time        Source                Destination           Protocol Length Info
    121 61.610524   host                  2.1                   USB      59     URB_BULK out

Frame 121: 59 bytes on wire (472 bits), 59 bytes captured (472 bits)
    Encapsulation type: USB packets with USBPcap header (153)
    Arrival Time: Mar 15, 2014 08:07:42.728527000 CET
    [Time shift for this packet: 0.000000000 seconds]
    Epoch Time: 1394867262.728527000 seconds
    [Time delta from previous captured frame: 0.007001000 seconds]
    [Time delta from previous displayed frame: 0.007001000 seconds]
    [Time since reference or first frame: 61.610524000 seconds]
    Frame Number: 121
    Frame Length: 59 bytes (472 bits)
    Capture Length: 59 bytes (472 bits)
    [Frame is marked: False]
    [Frame is ignored: False]
    [Protocols in frame: usb]
USB URB
    USBPcap pseudoheader length: 27
    IRP ID: 0xfffffa80098d7330
    IRP USBD_STATUS: USBD_STATUS_SUCCESS (0x00000000)
    URB Function: URB_FUNCTION_BULK_OR_INTERRUPT_TRANSFER (0x0009)
    IRP information: 0x00, Direction: FDO -> PDO
        0000 000. = Reserved: 0x00
        .... ...0 = Direction: FDO -> PDO (0x00)
    URB bus id: 3
    Device address: 2
    Endpoint: 0x01, Direction: OUT
        0... .... = Direction: OUT (0)
        .000 0001 = Endpoint value: 1
    URB transfer type: URB_BULK (0x03)
    Packet Data Length: 32
    [Response in: 122]
    [bInterfaceClass: Vendor Specific (0xff)]
Leftover Capture Data: eeee00000000000000000000000000000000000000000000...

0000  1b 00 30 73 8d 09 80 fa ff ff 00 00 00 00 09 00   ..0s............
0010  00 03 00 02 00 01 03 20 00 00 00 ee ee 00 00 00   ....... ........
0020  00 00 00 00 00 00 00 00 00 00 00 00 00 00 00 00   ................
0030  00 00 00 00 00 00 00 00 00 00 00                  ...........

No.     Time        Source                Destination           Protocol Length Info
    122 61.617524   2.1                   host                  USB      63     URB_BULK in

Frame 122: 63 bytes on wire (504 bits), 63 bytes captured (504 bits)
    Encapsulation type: USB packets with USBPcap header (153)
    Arrival Time: Mar 15, 2014 08:07:42.735527000 CET
    [Time shift for this packet: 0.000000000 seconds]
    Epoch Time: 1394867262.735527000 seconds
    [Time delta from previous captured frame: 0.007000000 seconds]
    [Time delta from previous displayed frame: 0.007000000 seconds]
    [Time since reference or first frame: 61.617524000 seconds]
    Frame Number: 122
    Frame Length: 63 bytes (504 bits)
    Capture Length: 63 bytes (504 bits)
    [Frame is marked: False]
    [Frame is ignored: False]
    [Protocols in frame: usb]
USB URB
    USBPcap pseudoheader length: 27
    IRP ID: 0xfffffa8009c94600
    IRP USBD_STATUS: USBD_STATUS_SUCCESS (0x00000000)
    URB Function: URB_FUNCTION_BULK_OR_INTERRUPT_TRANSFER (0x0009)
    IRP information: 0x01, Direction: PDO -> FDO
        0000 000. = Reserved: 0x00
        .... ...1 = Direction: PDO -> FDO (0x01)
    URB bus id: 3
    Device address: 2
    Endpoint: 0x81, Direction: IN
        1... .... = Direction: IN (1)
        .000 0001 = Endpoint value: 1
    URB transfer type: URB_BULK (0x03)
    Packet Data Length: 36
    [Request in: 121]
    [Time from request: 0.007000000 seconds]
    [bInterfaceClass: Vendor Specific (0xff)]
Leftover Capture Data: 450c0c180165144d313139303930312d3031333132313030...

0000  1b 00 00 46 c9 09 80 fa ff ff 00 00 00 00 09 00   ...F............
0010  01 03 00 02 00 81 03 24 00 00 00 45 0c 0c 18 01   .......$...E....
0020  65 14 4d 31 31 39 30 39 30 31 2d 30 31 33 31 32   e.M1190901-01312
0030  31 30 30 37 31 24 01 00 64 6a 00 00 64 6a 00      10071$..dj..dj.

No.     Time        Source                Destination           Protocol Length Info
    123 63.606638   host                  2.0                   USB      36     URB_CONTROL out

Frame 123: 36 bytes on wire (288 bits), 36 bytes captured (288 bits)
    Encapsulation type: USB packets with USBPcap header (153)
    Arrival Time: Mar 15, 2014 08:07:44.724641000 CET
    [Time shift for this packet: 0.000000000 seconds]
    Epoch Time: 1394867264.724641000 seconds
    [Time delta from previous captured frame: 1.989114000 seconds]
    [Time delta from previous displayed frame: 1.989114000 seconds]
    [Time since reference or first frame: 63.606638000 seconds]
    Frame Number: 123
    Frame Length: 36 bytes (288 bits)
    Capture Length: 36 bytes (288 bits)
    [Frame is marked: False]
    [Frame is ignored: False]
    [Protocols in frame: usb]
USB URB
    USBPcap pseudoheader length: 28
    IRP ID: 0xfffffa80099484c0
    IRP USBD_STATUS: USBD_STATUS_SUCCESS (0x00000000)
    URB Function: URB_FUNCTION_VENDOR_DEVICE (0x0017)
    IRP information: 0x00, Direction: FDO -> PDO
        0000 000. = Reserved: 0x00
        .... ...0 = Direction: FDO -> PDO (0x00)
    URB bus id: 3
    Device address: 2
    Endpoint: 0x00, Direction: OUT
        0... .... = Direction: OUT (0)
        .000 0000 = Endpoint value: 0
    URB transfer type: URB_CONTROL (0x02)
    Packet Data Length: 8
    Control transfer stage: Setup (0)
    [Response in: 124]
URB setup
    bmRequestType: 0x40
        0... .... = Direction: Host-to-device
        .10. .... = Type: Vendor (0x02)
        ...0 0000 = Recipient: Device (0x00)
    bRequest: 18
    wValue: 0x000c
    wIndex: 0
    wLength: 0

0000  1c 00 c0 84 94 09 80 fa ff ff 00 00 00 00 17 00   ................
0010  00 03 00 02 00 00 02 08 00 00 00 00 40 12 0c 00   ............@...
0020  00 00 00 00                                       ....

No.     Time        Source                Destination           Protocol Length Info
    124 63.606638   2.0                   host                  USB      28     Unknown type 12 Status

Frame 124: 28 bytes on wire (224 bits), 28 bytes captured (224 bits)
    Encapsulation type: USB packets with USBPcap header (153)
    Arrival Time: Mar 15, 2014 08:07:44.724641000 CET
    [Time shift for this packet: 0.000000000 seconds]
    Epoch Time: 1394867264.724641000 seconds
    [Time delta from previous captured frame: 0.000000000 seconds]
    [Time delta from previous displayed frame: 0.000000000 seconds]
    [Time since reference or first frame: 63.606638000 seconds]
    Frame Number: 124
    Frame Length: 28 bytes (224 bits)
    Capture Length: 28 bytes (224 bits)
    [Frame is marked: False]
    [Frame is ignored: False]
    [Protocols in frame: usb]
USB URB
    USBPcap pseudoheader length: 28
    IRP ID: 0xfffffa80099484c0
    IRP USBD_STATUS: USBD_STATUS_SUCCESS (0x00000000)
    URB Function: URB_FUNCTION_CONTROL_TRANSFER (0x0008)
    IRP information: 0x01, Direction: PDO -> FDO
        0000 000. = Reserved: 0x00
        .... ...1 = Direction: PDO -> FDO (0x01)
    URB bus id: 3
    Device address: 2
    Endpoint: 0x00, Direction: OUT
        0... .... = Direction: OUT (0)
        .000 0000 = Endpoint value: 0
    URB transfer type: URB_CONTROL (0x02)
    Packet Data Length: 0
    Control transfer stage: Status (2)
    [Request in: 123]
    [Time from request: 0.000000000 seconds]
    [bInterfaceClass: Unknown (0xffff)]

0000  1c 00 c0 84 94 09 80 fa ff ff 00 00 00 00 08 00   ................
0010  01 03 00 02 00 00 02 00 00 00 00 02               ............

No.     Time        Source                Destination           Protocol Length Info
    125 63.613638   host                  2.1                   USB      59     URB_BULK out

Frame 125: 59 bytes on wire (472 bits), 59 bytes captured (472 bits)
    Encapsulation type: USB packets with USBPcap header (153)
    Arrival Time: Mar 15, 2014 08:07:44.731641000 CET
    [Time shift for this packet: 0.000000000 seconds]
    Epoch Time: 1394867264.731641000 seconds
    [Time delta from previous captured frame: 0.007000000 seconds]
    [Time delta from previous displayed frame: 0.007000000 seconds]
    [Time since reference or first frame: 63.613638000 seconds]
    Frame Number: 125
    Frame Length: 59 bytes (472 bits)
    Capture Length: 59 bytes (472 bits)
    [Frame is marked: False]
    [Frame is ignored: False]
    [Protocols in frame: usb]
USB URB
    USBPcap pseudoheader length: 27
    IRP ID: 0xfffffa8009829690
    IRP USBD_STATUS: USBD_STATUS_SUCCESS (0x00000000)
    URB Function: URB_FUNCTION_BULK_OR_INTERRUPT_TRANSFER (0x0009)
    IRP information: 0x00, Direction: FDO -> PDO
        0000 000. = Reserved: 0x00
        .... ...0 = Direction: FDO -> PDO (0x00)
    URB bus id: 3
    Device address: 2
    Endpoint: 0x01, Direction: OUT
        0... .... = Direction: OUT (0)
        .000 0001 = Endpoint value: 1
    URB transfer type: URB_BULK (0x03)
    Packet Data Length: 32
    [Response in: 126]
    [bInterfaceClass: Vendor Specific (0xff)]
Leftover Capture Data: eeee00000000000000000000000000000000000000000000...

0000  1b 00 90 96 82 09 80 fa ff ff 00 00 00 00 09 00   ................
0010  00 03 00 02 00 01 03 20 00 00 00 ee ee 00 00 00   ....... ........
0020  00 00 00 00 00 00 00 00 00 00 00 00 00 00 00 00   ................
0030  00 00 00 00 00 00 00 00 00 00 00                  ...........

No.     Time        Source                Destination           Protocol Length Info
    126 63.620639   2.1                   host                  USB      63     URB_BULK in

Frame 126: 63 bytes on wire (504 bits), 63 bytes captured (504 bits)
    Encapsulation type: USB packets with USBPcap header (153)
    Arrival Time: Mar 15, 2014 08:07:44.738642000 CET
    [Time shift for this packet: 0.000000000 seconds]
    Epoch Time: 1394867264.738642000 seconds
    [Time delta from previous captured frame: 0.007001000 seconds]
    [Time delta from previous displayed frame: 0.007001000 seconds]
    [Time since reference or first frame: 63.620639000 seconds]
    Frame Number: 126
    Frame Length: 63 bytes (504 bits)
    Capture Length: 63 bytes (504 bits)
    [Frame is marked: False]
    [Frame is ignored: False]
    [Protocols in frame: usb]
USB URB
    USBPcap pseudoheader length: 27
    IRP ID: 0xfffffa8009c94600
    IRP USBD_STATUS: USBD_STATUS_SUCCESS (0x00000000)
    URB Function: URB_FUNCTION_BULK_OR_INTERRUPT_TRANSFER (0x0009)
    IRP information: 0x01, Direction: PDO -> FDO
        0000 000. = Reserved: 0x00
        .... ...1 = Direction: PDO -> FDO (0x01)
    URB bus id: 3
    Device address: 2
    Endpoint: 0x81, Direction: IN
        1... .... = Direction: IN (1)
        .000 0001 = Endpoint value: 1
    URB transfer type: URB_BULK (0x03)
    Packet Data Length: 36
    [Request in: 125]
    [Time from request: 0.007001000 seconds]
    [bInterfaceClass: Vendor Specific (0xff)]
Leftover Capture Data: 450c0c180165144d313139303930312d3031333132313030...

0000  1b 00 00 46 c9 09 80 fa ff ff 00 00 00 00 09 00   ...F............
0010  01 03 00 02 00 81 03 24 00 00 00 45 0c 0c 18 01   .......$...E....
0020  65 14 4d 31 31 39 30 39 30 31 2d 30 31 33 31 32   e.M1190901-01312
0030  31 30 30 37 31 24 01 00 64 6a 00 00 64 6a 00      10071$..dj..dj.

No.     Time        Source                Destination           Protocol Length Info
    127 65.262733   host                  2.0                   USB      36     URB_CONTROL out

Frame 127: 36 bytes on wire (288 bits), 36 bytes captured (288 bits)
    Encapsulation type: USB packets with USBPcap header (153)
    Arrival Time: Mar 15, 2014 08:07:46.380736000 CET
    [Time shift for this packet: 0.000000000 seconds]
    Epoch Time: 1394867266.380736000 seconds
    [Time delta from previous captured frame: 1.642094000 seconds]
    [Time delta from previous displayed frame: 1.642094000 seconds]
    [Time since reference or first frame: 65.262733000 seconds]
    Frame Number: 127
    Frame Length: 36 bytes (288 bits)
    Capture Length: 36 bytes (288 bits)
    [Frame is marked: False]
    [Frame is ignored: False]
    [Protocols in frame: usb]
USB URB
    USBPcap pseudoheader length: 28
    IRP ID: 0xfffffa8004d31c60
    IRP USBD_STATUS: USBD_STATUS_SUCCESS (0x00000000)
    URB Function: URB_FUNCTION_VENDOR_DEVICE (0x0017)
    IRP information: 0x00, Direction: FDO -> PDO
        0000 000. = Reserved: 0x00
        .... ...0 = Direction: FDO -> PDO (0x00)
    URB bus id: 3
    Device address: 2
    Endpoint: 0x00, Direction: OUT
        0... .... = Direction: OUT (0)
        .000 0000 = Endpoint value: 0
    URB transfer type: URB_CONTROL (0x02)
    Packet Data Length: 8
    Control transfer stage: Setup (0)
    [Response in: 128]
URB setup
    bmRequestType: 0x40
        0... .... = Direction: Host-to-device
        .10. .... = Type: Vendor (0x02)
        ...0 0000 = Recipient: Device (0x00)
    bRequest: 18
    wValue: 0x000c
    wIndex: 0
    wLength: 0

0000  1c 00 60 1c d3 04 80 fa ff ff 00 00 00 00 17 00   ..`.............
0010  00 03 00 02 00 00 02 08 00 00 00 00 40 12 0c 00   ............@...
0020  00 00 00 00                                       ....

No.     Time        Source                Destination           Protocol Length Info
    128 65.262733   2.0                   host                  USB      28     Unknown type 12 Status

Frame 128: 28 bytes on wire (224 bits), 28 bytes captured (224 bits)
    Encapsulation type: USB packets with USBPcap header (153)
    Arrival Time: Mar 15, 2014 08:07:46.380736000 CET
    [Time shift for this packet: 0.000000000 seconds]
    Epoch Time: 1394867266.380736000 seconds
    [Time delta from previous captured frame: 0.000000000 seconds]
    [Time delta from previous displayed frame: 0.000000000 seconds]
    [Time since reference or first frame: 65.262733000 seconds]
    Frame Number: 128
    Frame Length: 28 bytes (224 bits)
    Capture Length: 28 bytes (224 bits)
    [Frame is marked: False]
    [Frame is ignored: False]
    [Protocols in frame: usb]
USB URB
    USBPcap pseudoheader length: 28
    IRP ID: 0xfffffa8004d31c60
    IRP USBD_STATUS: USBD_STATUS_SUCCESS (0x00000000)
    URB Function: URB_FUNCTION_CONTROL_TRANSFER (0x0008)
    IRP information: 0x01, Direction: PDO -> FDO
        0000 000. = Reserved: 0x00
        .... ...1 = Direction: PDO -> FDO (0x01)
    URB bus id: 3
    Device address: 2
    Endpoint: 0x00, Direction: OUT
        0... .... = Direction: OUT (0)
        .000 0000 = Endpoint value: 0
    URB transfer type: URB_CONTROL (0x02)
    Packet Data Length: 0
    Control transfer stage: Status (2)
    [Request in: 127]
    [Time from request: 0.000000000 seconds]
    [bInterfaceClass: Unknown (0xffff)]

0000  1c 00 60 1c d3 04 80 fa ff ff 00 00 00 00 08 00   ..`.............
0010  01 03 00 02 00 00 02 00 00 00 00 02               ............

No.     Time        Source                Destination           Protocol Length Info
    129 65.271733   host                  2.1                   USB      59     URB_BULK out

Frame 129: 59 bytes on wire (472 bits), 59 bytes captured (472 bits)
    Encapsulation type: USB packets with USBPcap header (153)
    Arrival Time: Mar 15, 2014 08:07:46.389736000 CET
    [Time shift for this packet: 0.000000000 seconds]
    Epoch Time: 1394867266.389736000 seconds
    [Time delta from previous captured frame: 0.009000000 seconds]
    [Time delta from previous displayed frame: 0.009000000 seconds]
    [Time since reference or first frame: 65.271733000 seconds]
    Frame Number: 129
    Frame Length: 59 bytes (472 bits)
    Capture Length: 59 bytes (472 bits)
    [Frame is marked: False]
    [Frame is ignored: False]
    [Protocols in frame: usb]
USB URB
    USBPcap pseudoheader length: 27
    IRP ID: 0xfffffa8006c2a260
    IRP USBD_STATUS: USBD_STATUS_SUCCESS (0x00000000)
    URB Function: URB_FUNCTION_BULK_OR_INTERRUPT_TRANSFER (0x0009)
    IRP information: 0x00, Direction: FDO -> PDO
        0000 000. = Reserved: 0x00
        .... ...0 = Direction: FDO -> PDO (0x00)
    URB bus id: 3
    Device address: 2
    Endpoint: 0x01, Direction: OUT
        0... .... = Direction: OUT (0)
        .000 0001 = Endpoint value: 1
    URB transfer type: URB_BULK (0x03)
    Packet Data Length: 32
    [Response in: 130]
    [bInterfaceClass: Vendor Specific (0xff)]
Leftover Capture Data: eeee00000000000000000000000000000000000000000000...

0000  1b 00 60 a2 c2 06 80 fa ff ff 00 00 00 00 09 00   ..`.............
0010  00 03 00 02 00 01 03 20 00 00 00 ee ee 00 00 00   ....... ........
0020  00 00 00 00 00 00 00 00 00 00 00 00 00 00 00 00   ................
0030  00 00 00 00 00 00 00 00 00 00 00                  ...........

No.     Time        Source                Destination           Protocol Length Info
    130 65.278734   2.1                   host                  USB      63     URB_BULK in

Frame 130: 63 bytes on wire (504 bits), 63 bytes captured (504 bits)
    Encapsulation type: USB packets with USBPcap header (153)
    Arrival Time: Mar 15, 2014 08:07:46.396737000 CET
    [Time shift for this packet: 0.000000000 seconds]
    Epoch Time: 1394867266.396737000 seconds
    [Time delta from previous captured frame: 0.007001000 seconds]
    [Time delta from previous displayed frame: 0.007001000 seconds]
    [Time since reference or first frame: 65.278734000 seconds]
    Frame Number: 130
    Frame Length: 63 bytes (504 bits)
    Capture Length: 63 bytes (504 bits)
    [Frame is marked: False]
    [Frame is ignored: False]
    [Protocols in frame: usb]
USB URB
    USBPcap pseudoheader length: 27
    IRP ID: 0xfffffa8009c94600
    IRP USBD_STATUS: USBD_STATUS_SUCCESS (0x00000000)
    URB Function: URB_FUNCTION_BULK_OR_INTERRUPT_TRANSFER (0x0009)
    IRP information: 0x01, Direction: PDO -> FDO
        0000 000. = Reserved: 0x00
        .... ...1 = Direction: PDO -> FDO (0x01)
    URB bus id: 3
    Device address: 2
    Endpoint: 0x81, Direction: IN
        1... .... = Direction: IN (1)
        .000 0001 = Endpoint value: 1
    URB transfer type: URB_BULK (0x03)
    Packet Data Length: 36
    [Request in: 129]
    [Time from request: 0.007001000 seconds]
    [bInterfaceClass: Vendor Specific (0xff)]
Leftover Capture Data: 450c0c180165144d313139303930312d3031333132313030...

0000  1b 00 00 46 c9 09 80 fa ff ff 00 00 00 00 09 00   ...F............
0010  01 03 00 02 00 81 03 24 00 00 00 45 0c 0c 18 01   .......$...E....
0020  65 14 4d 31 31 39 30 39 30 31 2d 30 31 33 31 32   e.M1190901-01312
0030  31 30 30 37 31 24 01 00 64 6a 00 00 64 6a 00      10071$..dj..dj.

No.     Time        Source                Destination           Protocol Length Info
    131 66.867824   host                  2.0                   USB      36     URB_CONTROL out

Frame 131: 36 bytes on wire (288 bits), 36 bytes captured (288 bits)
    Encapsulation type: USB packets with USBPcap header (153)
    Arrival Time: Mar 15, 2014 08:07:47.985827000 CET
    [Time shift for this packet: 0.000000000 seconds]
    Epoch Time: 1394867267.985827000 seconds
    [Time delta from previous captured frame: 1.589090000 seconds]
    [Time delta from previous displayed frame: 1.589090000 seconds]
    [Time since reference or first frame: 66.867824000 seconds]
    Frame Number: 131
    Frame Length: 36 bytes (288 bits)
    Capture Length: 36 bytes (288 bits)
    [Frame is marked: False]
    [Frame is ignored: False]
    [Protocols in frame: usb]
USB URB
    USBPcap pseudoheader length: 28
    IRP ID: 0xfffffa8006c2a260
    IRP USBD_STATUS: USBD_STATUS_SUCCESS (0x00000000)
    URB Function: URB_FUNCTION_VENDOR_DEVICE (0x0017)
    IRP information: 0x00, Direction: FDO -> PDO
        0000 000. = Reserved: 0x00
        .... ...0 = Direction: FDO -> PDO (0x00)
    URB bus id: 3
    Device address: 2
    Endpoint: 0x00, Direction: OUT
        0... .... = Direction: OUT (0)
        .000 0000 = Endpoint value: 0
    URB transfer type: URB_CONTROL (0x02)
    Packet Data Length: 8
    Control transfer stage: Setup (0)
    [Response in: 132]
URB setup
    bmRequestType: 0x40
        0... .... = Direction: Host-to-device
        .10. .... = Type: Vendor (0x02)
        ...0 0000 = Recipient: Device (0x00)
    bRequest: 18
    wValue: 0x000c
    wIndex: 0
    wLength: 0

0000  1c 00 60 a2 c2 06 80 fa ff ff 00 00 00 00 17 00   ..`.............
0010  00 03 00 02 00 00 02 08 00 00 00 00 40 12 0c 00   ............@...
0020  00 00 00 00                                       ....

No.     Time        Source                Destination           Protocol Length Info
    132 66.868824   2.0                   host                  USB      28     Unknown type 12 Status

Frame 132: 28 bytes on wire (224 bits), 28 bytes captured (224 bits)
    Encapsulation type: USB packets with USBPcap header (153)
    Arrival Time: Mar 15, 2014 08:07:47.986827000 CET
    [Time shift for this packet: 0.000000000 seconds]
    Epoch Time: 1394867267.986827000 seconds
    [Time delta from previous captured frame: 0.001000000 seconds]
    [Time delta from previous displayed frame: 0.001000000 seconds]
    [Time since reference or first frame: 66.868824000 seconds]
    Frame Number: 132
    Frame Length: 28 bytes (224 bits)
    Capture Length: 28 bytes (224 bits)
    [Frame is marked: False]
    [Frame is ignored: False]
    [Protocols in frame: usb]
USB URB
    USBPcap pseudoheader length: 28
    IRP ID: 0xfffffa8006c2a260
    IRP USBD_STATUS: USBD_STATUS_SUCCESS (0x00000000)
    URB Function: URB_FUNCTION_CONTROL_TRANSFER (0x0008)
    IRP information: 0x01, Direction: PDO -> FDO
        0000 000. = Reserved: 0x00
        .... ...1 = Direction: PDO -> FDO (0x01)
    URB bus id: 3
    Device address: 2
    Endpoint: 0x00, Direction: OUT
        0... .... = Direction: OUT (0)
        .000 0000 = Endpoint value: 0
    URB transfer type: URB_CONTROL (0x02)
    Packet Data Length: 0
    Control transfer stage: Status (2)
    [Request in: 131]
    [Time from request: 0.001000000 seconds]
    [bInterfaceClass: Unknown (0xffff)]

0000  1c 00 60 a2 c2 06 80 fa ff ff 00 00 00 00 08 00   ..`.............
0010  01 03 00 02 00 00 02 00 00 00 00 02               ............

No.     Time        Source                Destination           Protocol Length Info
    133 66.875825   host                  2.1                   USB      59     URB_BULK out

Frame 133: 59 bytes on wire (472 bits), 59 bytes captured (472 bits)
    Encapsulation type: USB packets with USBPcap header (153)
    Arrival Time: Mar 15, 2014 08:07:47.993828000 CET
    [Time shift for this packet: 0.000000000 seconds]
    Epoch Time: 1394867267.993828000 seconds
    [Time delta from previous captured frame: 0.007001000 seconds]
    [Time delta from previous displayed frame: 0.007001000 seconds]
    [Time since reference or first frame: 66.875825000 seconds]
    Frame Number: 133
    Frame Length: 59 bytes (472 bits)
    Capture Length: 59 bytes (472 bits)
    [Frame is marked: False]
    [Frame is ignored: False]
    [Protocols in frame: usb]
USB URB
    USBPcap pseudoheader length: 27
    IRP ID: 0xfffffa800448a6b0
    IRP USBD_STATUS: USBD_STATUS_SUCCESS (0x00000000)
    URB Function: URB_FUNCTION_BULK_OR_INTERRUPT_TRANSFER (0x0009)
    IRP information: 0x00, Direction: FDO -> PDO
        0000 000. = Reserved: 0x00
        .... ...0 = Direction: FDO -> PDO (0x00)
    URB bus id: 3
    Device address: 2
    Endpoint: 0x01, Direction: OUT
        0... .... = Direction: OUT (0)
        .000 0001 = Endpoint value: 1
    URB transfer type: URB_BULK (0x03)
    Packet Data Length: 32
    [Response in: 1395]
    [bInterfaceClass: Vendor Specific (0xff)]
Leftover Capture Data: 0808aaaa0000000000000000000000000000000000000000...

0000  1b 00 b0 a6 48 04 80 fa ff ff 00 00 00 00 09 00   ....H...........
0010  00 03 00 02 00 01 03 20 00 00 00 08 08 aa aa 00   ....... ........
0020  00 00 00 00 00 00 00 00 00 00 00 00 00 00 00 00   ................
0030  00 00 00 00 00 00 00 00 00 00 00                  ...........

No.     Time        Source                Destination           Protocol Length Info
    134 66.882825   2.1                   host                  USB      63     URB_BULK in

Frame 134: 63 bytes on wire (504 bits), 63 bytes captured (504 bits)
    Encapsulation type: USB packets with USBPcap header (153)
    Arrival Time: Mar 15, 2014 08:07:48.000828000 CET
    [Time shift for this packet: 0.000000000 seconds]
    Epoch Time: 1394867268.000828000 seconds
    [Time delta from previous captured frame: 0.007000000 seconds]
    [Time delta from previous displayed frame: 0.007000000 seconds]
    [Time since reference or first frame: 66.882825000 seconds]
    Frame Number: 134
    Frame Length: 63 bytes (504 bits)
    Capture Length: 63 bytes (504 bits)
    [Frame is marked: False]
    [Frame is ignored: False]
    [Protocols in frame: usb]
USB URB
    USBPcap pseudoheader length: 27
    IRP ID: 0xfffffa8009c94600
    IRP USBD_STATUS: USBD_STATUS_SUCCESS (0x00000000)
    URB Function: URB_FUNCTION_BULK_OR_INTERRUPT_TRANSFER (0x0009)
    IRP information: 0x01, Direction: PDO -> FDO
        0000 000. = Reserved: 0x00
        .... ...1 = Direction: PDO -> FDO (0x01)
    URB bus id: 3
    Device address: 2
    Endpoint: 0x81, Direction: IN
        1... .... = Direction: IN (1)
        .000 0001 = Endpoint value: 1
    URB transfer type: URB_BULK (0x03)
    Packet Data Length: 36
    [Request in: 133]
    [Time from request: 0.007000000 seconds]
    [bInterfaceClass: Vendor Specific (0xff)]
Leftover Capture Data: 00000100000000000100450c0c1801651431313930393031...

0000  1b 00 00 46 c9 09 80 fa ff ff 00 00 00 00 09 00   ...F............
0010  01 03 00 02 00 81 03 24 00 00 00 00 00 01 00 00   .......$........
0020  00 00 00 01 00 45 0c 0c 18 01 65 14 31 31 39 30   .....E....e.1190
0030  39 30 31 2d 30 31 33 03 00 00 00 00 00 00 ff      901-013........

No.     Time        Source                Destination           Protocol Length Info
    135 66.891826   2.1                   host                  USB      63     URB_BULK in

Frame 135: 63 bytes on wire (504 bits), 63 bytes captured (504 bits)
    Encapsulation type: USB packets with USBPcap header (153)
    Arrival Time: Mar 15, 2014 08:07:48.009829000 CET
    [Time shift for this packet: 0.000000000 seconds]
    Epoch Time: 1394867268.009829000 seconds
    [Time delta from previous captured frame: 0.009001000 seconds]
    [Time delta from previous displayed frame: 0.009001000 seconds]
    [Time since reference or first frame: 66.891826000 seconds]
    Frame Number: 135
    Frame Length: 63 bytes (504 bits)
    Capture Length: 63 bytes (504 bits)
    [Frame is marked: False]
    [Frame is ignored: False]
    [Protocols in frame: usb]
USB URB
    USBPcap pseudoheader length: 27
    IRP ID: 0xfffffa8009c94600
    IRP USBD_STATUS: USBD_STATUS_SUCCESS (0x00000000)
    URB Function: URB_FUNCTION_BULK_OR_INTERRUPT_TRANSFER (0x0009)
    IRP information: 0x01, Direction: PDO -> FDO
        0000 000. = Reserved: 0x00
        .... ...1 = Direction: PDO -> FDO (0x01)
    URB bus id: 3
    Device address: 2
    Endpoint: 0x81, Direction: IN
        1... .... = Direction: IN (1)
        .000 0001 = Endpoint value: 1
    URB transfer type: URB_BULK (0x03)
    Packet Data Length: 36
    [Request in: 133]
    [Time from request: 0.016001000 seconds]
    [bInterfaceClass: Vendor Specific (0xff)]
Leftover Capture Data: 12241303030e000200000000000000000000303330333130...

0000  1b 00 00 46 c9 09 80 fa ff ff 00 00 00 00 09 00   ...F............
0010  01 03 00 02 00 81 03 24 00 00 00 12 24 13 03 03   .......$....$...
0020  0e 00 02 00 00 00 00 00 00 00 00 00 00 30 33 30   .............030
0030  33 31 30 31 00 24 13 03 03 0e 29 00 00 00 fd      3101.$....)....

No.     Time        Source                Destination           Protocol Length Info
    136 66.900826   2.1                   host                  USB      63     URB_BULK in

Frame 136: 63 bytes on wire (504 bits), 63 bytes captured (504 bits)
    Encapsulation type: USB packets with USBPcap header (153)
    Arrival Time: Mar 15, 2014 08:07:48.018829000 CET
    [Time shift for this packet: 0.000000000 seconds]
    Epoch Time: 1394867268.018829000 seconds
    [Time delta from previous captured frame: 0.009000000 seconds]
    [Time delta from previous displayed frame: 0.009000000 seconds]
    [Time since reference or first frame: 66.900826000 seconds]
    Frame Number: 136
    Frame Length: 63 bytes (504 bits)
    Capture Length: 63 bytes (504 bits)
    [Frame is marked: False]
    [Frame is ignored: False]
    [Protocols in frame: usb]
USB URB
    USBPcap pseudoheader length: 27
    IRP ID: 0xfffffa8009c94600
    IRP USBD_STATUS: USBD_STATUS_SUCCESS (0x00000000)
    URB Function: URB_FUNCTION_BULK_OR_INTERRUPT_TRANSFER (0x0009)
    IRP information: 0x01, Direction: PDO -> FDO
        0000 000. = Reserved: 0x00
        .... ...1 = Direction: PDO -> FDO (0x01)
    URB bus id: 3
    Device address: 2
    Endpoint: 0x81, Direction: IN
        1... .... = Direction: IN (1)
        .000 0001 = Endpoint value: 1
    URB transfer type: URB_BULK (0x03)
    Packet Data Length: 36
    [Request in: 133]
    [Time from request: 0.025001000 seconds]
    [bInterfaceClass: Vendor Specific (0xff)]
Leftover Capture Data: 000015280000000000000000000000000000000000000000...

0000  1b 00 00 46 c9 09 80 fa ff ff 00 00 00 00 09 00   ...F............
0010  01 03 00 02 00 81 03 24 00 00 00 00 00 15 28 00   .......$......(.
0020  00 00 00 00 00 00 00 00 00 00 00 00 00 00 00 00   ................
0030  00 00 00 00 00 00 00 00 00 00 00 00 01 00 fd      ...............

No.     Time        Source                Destination           Protocol Length Info
    137 66.909827   2.1                   host                  USB      63     URB_BULK in

Frame 137: 63 bytes on wire (504 bits), 63 bytes captured (504 bits)
    Encapsulation type: USB packets with USBPcap header (153)
    Arrival Time: Mar 15, 2014 08:07:48.027830000 CET
    [Time shift for this packet: 0.000000000 seconds]
    Epoch Time: 1394867268.027830000 seconds
    [Time delta from previous captured frame: 0.009001000 seconds]
    [Time delta from previous displayed frame: 0.009001000 seconds]
    [Time since reference or first frame: 66.909827000 seconds]
    Frame Number: 137
    Frame Length: 63 bytes (504 bits)
    Capture Length: 63 bytes (504 bits)
    [Frame is marked: False]
    [Frame is ignored: False]
