No.     Time        Source                Destination           Protocol Length Info
      1 0.000000    host                  1.0                   USB      36     GET DESCRIPTOR Request DEVICE

Frame 1: 36 bytes on wire (288 bits), 36 bytes captured (288 bits)
    Encapsulation type: USB packets with USBPcap header (153)
    Arrival Time: Jun 22, 2014 18:09:22.860087000 CEST
    [Time shift for this packet: 0.000000000 seconds]
    Epoch Time: 1403453362.860087000 seconds
    [Time delta from previous captured frame: 0.000000000 seconds]
    [Time delta from previous displayed frame: 0.000000000 seconds]
    [Time since reference or first frame: 0.000000000 seconds]
    Frame Number: 1
    Frame Length: 36 bytes (288 bits)
    Capture Length: 36 bytes (288 bits)
    [Frame is marked: False]
    [Frame is ignored: False]
    [Protocols in frame: usb]
USB URB
    USBPcap pseudoheader length: 28
    IRP ID: 0xffffffff863dfc08
    IRP USBD_STATUS: USBD_STATUS_SUCCESS (0x00000000)
    URB Function: URB_FUNCTION_GET_DESCRIPTOR_FROM_DEVICE (0x000b)
    IRP information: 0x00, Direction: FDO -> PDO
        0000 000. = Reserved: 0x00
        .... ...0 = Direction: FDO -> PDO (0x00)
    URB bus id: 1
    Device address: 1
    Endpoint: 0x00, Direction: OUT
        0... .... = Direction: OUT (0)
        .000 0000 = Endpoint value: 0
    URB transfer type: URB_CONTROL (0x02)
    Packet Data Length: 8
    Control transfer stage: Setup (0)
    [Response in: 3]
URB setup
    bmRequestType: 0x80
        1... .... = Direction: Device-to-host
        .00. .... = Type: Standard (0x00)
        ...0 0000 = Recipient: Device (0x00)
    bRequest: GET DESCRIPTOR (6)
    Descriptor Index: 0x00
    bDescriptorType: DEVICE (1)
    Language Id: no language specified (0x0000)
    wLength: 18

0000  1c 00 08 fc 3d 86 ff ff ff ff 00 00 00 00 0b 00   ....=...........
0010  00 01 00 01 00 00 02 08 00 00 00 00 80 06 00 01   ................
0020  00 00 12 00                                       ....

No.     Time        Source                Destination           Protocol Length Info
      2 0.000000    1.0                   host                  USB      46     GET DESCRIPTOR Response DEVICE

Frame 2: 46 bytes on wire (368 bits), 46 bytes captured (368 bits)
    Encapsulation type: USB packets with USBPcap header (153)
    Arrival Time: Jun 22, 2014 18:09:22.860087000 CEST
    [Time shift for this packet: 0.000000000 seconds]
    Epoch Time: 1403453362.860087000 seconds
    [Time delta from previous captured frame: 0.000000000 seconds]
    [Time delta from previous displayed frame: 0.000000000 seconds]
    [Time since reference or first frame: 0.000000000 seconds]
    Frame Number: 2
    Frame Length: 46 bytes (368 bits)
    Capture Length: 46 bytes (368 bits)
    [Frame is marked: False]
    [Frame is ignored: False]
    [Protocols in frame: usb]
USB URB
    USBPcap pseudoheader length: 28
    IRP ID: 0xffffffff863dfc08
    IRP USBD_STATUS: USBD_STATUS_SUCCESS (0x00000000)
    URB Function: URB_FUNCTION_CONTROL_TRANSFER (0x0008)
    IRP information: 0x01, Direction: PDO -> FDO
        0000 000. = Reserved: 0x00
        .... ...1 = Direction: PDO -> FDO (0x01)
    URB bus id: 1
    Device address: 1
    Endpoint: 0x80, Direction: IN
        1... .... = Direction: IN (1)
        .000 0000 = Endpoint value: 0
    URB transfer type: URB_CONTROL (0x02)
    Packet Data Length: 18
    Control transfer stage: Data (1)
    [Request in: 1]
    [Time from request: 0.000000000 seconds]
    [bInterfaceClass: Unknown (0xffff)]
DEVICE DESCRIPTOR
    bLength: 18
    bDescriptorType: DEVICE (1)
    bcdUSB: 0x0200
    bDeviceClass: Device (0x00)
    bDeviceSubClass: 0
    bDeviceProtocol: 0 (Use class code info from Interface Descriptors)
    bMaxPacketSize0: 64
    idVendor: Cygnal Integrated Products, Inc. (0x10c4)
    idProduct: CP210x UART Bridge / myAVR mySmartUSB light (0xea60)
    bcdDevice: 0x0100
    iManufacturer: 1
    iProduct: 2
    iSerialNumber: 3
    bNumConfigurations: 1

0000  1c 00 08 fc 3d 86 ff ff ff ff 00 00 00 00 08 00   ....=...........
0010  01 01 00 01 00 80 02 12 00 00 00 01 12 01 00 02   ................
0020  00 00 00 40 c4 10 60 ea 00 01 01 02 03 01         ...@..`.......

No.     Time        Source                Destination           Protocol Length Info
      3 0.000000    1.0                   host                  USB      28     GET DESCRIPTOR Status

Frame 3: 28 bytes on wire (224 bits), 28 bytes captured (224 bits)
    Encapsulation type: USB packets with USBPcap header (153)
    Arrival Time: Jun 22, 2014 18:09:22.860087000 CEST
    [Time shift for this packet: 0.000000000 seconds]
    Epoch Time: 1403453362.860087000 seconds
    [Time delta from previous captured frame: 0.000000000 seconds]
    [Time delta from previous displayed frame: 0.000000000 seconds]
    [Time since reference or first frame: 0.000000000 seconds]
    Frame Number: 3
    Frame Length: 28 bytes (224 bits)
    Capture Length: 28 bytes (224 bits)
    [Frame is marked: False]
    [Frame is ignored: False]
    [Protocols in frame: usb]
USB URB
    USBPcap pseudoheader length: 28
    IRP ID: 0xffffffff863dfc08
    IRP USBD_STATUS: USBD_STATUS_SUCCESS (0x00000000)
    URB Function: URB_FUNCTION_CONTROL_TRANSFER (0x0008)
    IRP information: 0x01, Direction: PDO -> FDO
        0000 000. = Reserved: 0x00
        .... ...1 = Direction: PDO -> FDO (0x01)
    URB bus id: 1
    Device address: 1
    Endpoint: 0x80, Direction: IN
        1... .... = Direction: IN (1)
        .000 0000 = Endpoint value: 0
    URB transfer type: URB_CONTROL (0x02)
    Packet Data Length: 0
    Control transfer stage: Status (2)
    [Request in: 1]
    [Time from request: 0.000000000 seconds]
    [bInterfaceClass: Unknown (0xffff)]

0000  1c 00 08 fc 3d 86 ff ff ff ff 00 00 00 00 08 00   ....=...........
0010  01 01 00 01 00 80 02 00 00 00 00 02               ............

No.     Time        Source                Destination           Protocol Length Info
      4 0.000000    host                  1.0                   USB      36     GET DESCRIPTOR Request CONFIGURATION

Frame 4: 36 bytes on wire (288 bits), 36 bytes captured (288 bits)
    Encapsulation type: USB packets with USBPcap header (153)
    Arrival Time: Jun 22, 2014 18:09:22.860087000 CEST
    [Time shift for this packet: 0.000000000 seconds]
    Epoch Time: 1403453362.860087000 seconds
    [Time delta from previous captured frame: 0.000000000 seconds]
    [Time delta from previous displayed frame: 0.000000000 seconds]
    [Time since reference or first frame: 0.000000000 seconds]
    Frame Number: 4
    Frame Length: 36 bytes (288 bits)
    Capture Length: 36 bytes (288 bits)
    [Frame is marked: False]
    [Frame is ignored: False]
    [Protocols in frame: usb]
USB URB
    USBPcap pseudoheader length: 28
    IRP ID: 0xffffffff863dfc08
    IRP USBD_STATUS: USBD_STATUS_SUCCESS (0x00000000)
    URB Function: URB_FUNCTION_GET_DESCRIPTOR_FROM_DEVICE (0x000b)
    IRP information: 0x00, Direction: FDO -> PDO
        0000 000. = Reserved: 0x00
        .... ...0 = Direction: FDO -> PDO (0x00)
    URB bus id: 1
    Device address: 1
    Endpoint: 0x00, Direction: OUT
        0... .... = Direction: OUT (0)
        .000 0000 = Endpoint value: 0
    URB transfer type: URB_CONTROL (0x02)
    Packet Data Length: 8
    Control transfer stage: Setup (0)
    [Response in: 6]
URB setup
    bmRequestType: 0x80
        1... .... = Direction: Device-to-host
        .00. .... = Type: Standard (0x00)
        ...0 0000 = Recipient: Device (0x00)
    bRequest: GET DESCRIPTOR (6)
    Descriptor Index: 0x00
    bDescriptorType: CONFIGURATION (2)
    Language Id: no language specified (0x0000)
    wLength: 9

0000  1c 00 08 fc 3d 86 ff ff ff ff 00 00 00 00 0b 00   ....=...........
0010  00 01 00 01 00 00 02 08 00 00 00 00 80 06 00 02   ................
0020  00 00 09 00                                       ....

No.     Time        Source                Destination           Protocol Length Info
      5 0.000000    1.0                   host                  USB      37     GET DESCRIPTOR Response CONFIGURATION

Frame 5: 37 bytes on wire (296 bits), 37 bytes captured (296 bits)
    Encapsulation type: USB packets with USBPcap header (153)
    Arrival Time: Jun 22, 2014 18:09:22.860087000 CEST
    [Time shift for this packet: 0.000000000 seconds]
    Epoch Time: 1403453362.860087000 seconds
    [Time delta from previous captured frame: 0.000000000 seconds]
    [Time delta from previous displayed frame: 0.000000000 seconds]
    [Time since reference or first frame: 0.000000000 seconds]
    Frame Number: 5
    Frame Length: 37 bytes (296 bits)
    Capture Length: 37 bytes (296 bits)
    [Frame is marked: False]
    [Frame is ignored: False]
    [Protocols in frame: usb]
USB URB
    USBPcap pseudoheader length: 28
    IRP ID: 0xffffffff863dfc08
    IRP USBD_STATUS: USBD_STATUS_SUCCESS (0x00000000)
    URB Function: URB_FUNCTION_CONTROL_TRANSFER (0x0008)
    IRP information: 0x01, Direction: PDO -> FDO
        0000 000. = Reserved: 0x00
        .... ...1 = Direction: PDO -> FDO (0x01)
    URB bus id: 1
    Device address: 1
    Endpoint: 0x80, Direction: IN
        1... .... = Direction: IN (1)
        .000 0000 = Endpoint value: 0
    URB transfer type: URB_CONTROL (0x02)
    Packet Data Length: 9
    Control transfer stage: Data (1)
    [Request in: 4]
    [Time from request: 0.000000000 seconds]
    [bInterfaceClass: Unknown (0xffff)]
CONFIGURATION DESCRIPTOR
    bLength: 9
    bDescriptorType: CONFIGURATION (2)
    wTotalLength: 32
    bNumInterfaces: 1
    bConfigurationValue: 1
    iConfiguration: 0
    Configuration bmAttributes: 0x80  NOT SELF-POWERED  NO REMOTE-WAKEUP
        1... .... = Must be 1: Must be 1 for USB 1.1 and higher
        .0.. .... = Self-Powered: This device is powered from the USB bus
        ..0. .... = Remote Wakeup: This device does NOT support remote wakeup
    bMaxPower: 50  (100mA)

0000  1c 00 08 fc 3d 86 ff ff ff ff 00 00 00 00 08 00   ....=...........
0010  01 01 00 01 00 80 02 09 00 00 00 01 09 02 20 00   .............. .
0020  01 01 00 80 32                                    ....2

No.     Time        Source                Destination           Protocol Length Info
      6 0.000000    1.0                   host                  USB      28     GET DESCRIPTOR Status

Frame 6: 28 bytes on wire (224 bits), 28 bytes captured (224 bits)
    Encapsulation type: USB packets with USBPcap header (153)
    Arrival Time: Jun 22, 2014 18:09:22.860087000 CEST
    [Time shift for this packet: 0.000000000 seconds]
    Epoch Time: 1403453362.860087000 seconds
    [Time delta from previous captured frame: 0.000000000 seconds]
    [Time delta from previous displayed frame: 0.000000000 seconds]
    [Time since reference or first frame: 0.000000000 seconds]
    Frame Number: 6
    Frame Length: 28 bytes (224 bits)
    Capture Length: 28 bytes (224 bits)
    [Frame is marked: False]
    [Frame is ignored: False]
    [Protocols in frame: usb]
USB URB
    USBPcap pseudoheader length: 28
    IRP ID: 0xffffffff863dfc08
    IRP USBD_STATUS: USBD_STATUS_SUCCESS (0x00000000)
    URB Function: URB_FUNCTION_CONTROL_TRANSFER (0x0008)
    IRP information: 0x01, Direction: PDO -> FDO
        0000 000. = Reserved: 0x00
        .... ...1 = Direction: PDO -> FDO (0x01)
    URB bus id: 1
    Device address: 1
    Endpoint: 0x80, Direction: IN
        1... .... = Direction: IN (1)
        .000 0000 = Endpoint value: 0
    URB transfer type: URB_CONTROL (0x02)
    Packet Data Length: 0
    Control transfer stage: Status (2)
    [Request in: 4]
    [Time from request: 0.000000000 seconds]
    [bInterfaceClass: Unknown (0xffff)]

0000  1c 00 08 fc 3d 86 ff ff ff ff 00 00 00 00 08 00   ....=...........
0010  01 01 00 01 00 80 02 00 00 00 00 02               ............

No.     Time        Source                Destination           Protocol Length Info
      7 0.000000    host                  1.0                   USB      36     GET DESCRIPTOR Request CONFIGURATION

Frame 7: 36 bytes on wire (288 bits), 36 bytes captured (288 bits)
    Encapsulation type: USB packets with USBPcap header (153)
    Arrival Time: Jun 22, 2014 18:09:22.860087000 CEST
    [Time shift for this packet: 0.000000000 seconds]
    Epoch Time: 1403453362.860087000 seconds
    [Time delta from previous captured frame: 0.000000000 seconds]
    [Time delta from previous displayed frame: 0.000000000 seconds]
    [Time since reference or first frame: 0.000000000 seconds]
    Frame Number: 7
    Frame Length: 36 bytes (288 bits)
    Capture Length: 36 bytes (288 bits)
    [Frame is marked: False]
    [Frame is ignored: False]
    [Protocols in frame: usb]
USB URB
    USBPcap pseudoheader length: 28
    IRP ID: 0xffffffff863dfc08
    IRP USBD_STATUS: USBD_STATUS_SUCCESS (0x00000000)
    URB Function: URB_FUNCTION_GET_DESCRIPTOR_FROM_DEVICE (0x000b)
    IRP information: 0x00, Direction: FDO -> PDO
        0000 000. = Reserved: 0x00
        .... ...0 = Direction: FDO -> PDO (0x00)
    URB bus id: 1
    Device address: 1
    Endpoint: 0x00, Direction: OUT
        0... .... = Direction: OUT (0)
        .000 0000 = Endpoint value: 0
    URB transfer type: URB_CONTROL (0x02)
    Packet Data Length: 8
    Control transfer stage: Setup (0)
    [Response in: 11]
URB setup
    bmRequestType: 0x80
        1... .... = Direction: Device-to-host
        .00. .... = Type: Standard (0x00)
        ...0 0000 = Recipient: Device (0x00)
    bRequest: GET DESCRIPTOR (6)
    Descriptor Index: 0x00
    bDescriptorType: CONFIGURATION (2)
    Language Id: no language specified (0x0000)
    wLength: 32

0000  1c 00 08 fc 3d 86 ff ff ff ff 00 00 00 00 0b 00   ....=...........
0010  00 01 00 01 00 00 02 08 00 00 00 00 80 06 00 02   ................
0020  00 00 20 00                                       .. .

No.     Time        Source                Destination           Protocol Length Info
      8 0.015625    1.0                   host                  USB      60     GET DESCRIPTOR Response CONFIGURATION

Frame 8: 60 bytes on wire (480 bits), 60 bytes captured (480 bits)
    Encapsulation type: USB packets with USBPcap header (153)
    Arrival Time: Jun 22, 2014 18:09:22.875712000 CEST
    [Time shift for this packet: 0.000000000 seconds]
    Epoch Time: 1403453362.875712000 seconds
    [Time delta from previous captured frame: 0.015625000 seconds]
    [Time delta from previous displayed frame: 0.015625000 seconds]
    [Time since reference or first frame: 0.015625000 seconds]
    Frame Number: 8
    Frame Length: 60 bytes (480 bits)
    Capture Length: 60 bytes (480 bits)
    [Frame is marked: False]
    [Frame is ignored: False]
    [Protocols in frame: usb]
USB URB
    USBPcap pseudoheader length: 28
    IRP ID: 0xffffffff863dfc08
    IRP USBD_STATUS: USBD_STATUS_SUCCESS (0x00000000)
    URB Function: URB_FUNCTION_CONTROL_TRANSFER (0x0008)
    IRP information: 0x01, Direction: PDO -> FDO
        0000 000. = Reserved: 0x00
        .... ...1 = Direction: PDO -> FDO (0x01)
    URB bus id: 1
    Device address: 1
    Endpoint: 0x80, Direction: IN
        1... .... = Direction: IN (1)
        .000 0000 = Endpoint value: 0
    URB transfer type: URB_CONTROL (0x02)
    Packet Data Length: 32
    Control transfer stage: Data (1)
    [Request in: 7]
    [Time from request: 0.015625000 seconds]
    [bInterfaceClass: Unknown (0xffff)]
CONFIGURATION DESCRIPTOR
    bLength: 9
    bDescriptorType: CONFIGURATION (2)
    wTotalLength: 32
    bNumInterfaces: 1
    bConfigurationValue: 1
    iConfiguration: 0
    Configuration bmAttributes: 0x80  NOT SELF-POWERED  NO REMOTE-WAKEUP
        1... .... = Must be 1: Must be 1 for USB 1.1 and higher
        .0.. .... = Self-Powered: This device is powered from the USB bus
        ..0. .... = Remote Wakeup: This device does NOT support remote wakeup
    bMaxPower: 50  (100mA)
INTERFACE DESCRIPTOR (0.0): class Vendor Specific
    bLength: 9
    bDescriptorType: INTERFACE (4)
    bInterfaceNumber: 0
    bAlternateSetting: 0
    bNumEndpoints: 2
    bInterfaceClass: Vendor Specific (0xff)
    bInterfaceSubClass: 0x00
    bInterfaceProtocol: 0x00
    iInterface: 2
ENDPOINT DESCRIPTOR
    bLength: 7
    bDescriptorType: ENDPOINT (5)
    bEndpointAddress: 0x01  OUT  Endpoint:1
        0... .... = Direction: OUT Endpoint
        .... 0001 = Endpoint Number: 0x01
    bmAttributes: 0x02
        .... ..10 = Transfertype: Bulk-Transfer (0x02)
        .... 00.. = Synchronisationtype: No Sync (0x00)
        ..00 .... = Behaviourtype: Data-Endpoint (0x00)
    wMaxPacketSize: 64
        .... ..00 0100 0000 = Maximum Packet Size: 64
    bInterval: 0
ENDPOINT DESCRIPTOR
    bLength: 7
    bDescriptorType: ENDPOINT (5)
    bEndpointAddress: 0x82  IN  Endpoint:2
        1... .... = Direction: IN Endpoint
        .... 0010 = Endpoint Number: 0x02
    bmAttributes: 0x02
        .... ..10 = Transfertype: Bulk-Transfer (0x02)
        .... 00.. = Synchronisationtype: No Sync (0x00)
        ..00 .... = Behaviourtype: Data-Endpoint (0x00)
    wMaxPacketSize: 64
        .... ..00 0100 0000 = Maximum Packet Size: 64
    bInterval: 0

0000  1c 00 08 fc 3d 86 ff ff ff ff 00 00 00 00 08 00   ....=...........
0010  01 01 00 01 00 80 02 20 00 00 00 01 09 02 20 00   ....... ...... .
0020  01 01 00 80 32 09 04 00 00 02 ff 00 00 02 07 05   ....2...........
0030  01 02 40 00 00 07 05 82 02 40 00 00               ..@......@..

No.     Time        Source                Destination           Protocol Length Info
      9 0.015625    1.0                   host                  USB      28     GET DESCRIPTOR Status

Frame 9: 28 bytes on wire (224 bits), 28 bytes captured (224 bits)
    Encapsulation type: USB packets with USBPcap header (153)
    Arrival Time: Jun 22, 2014 18:09:22.875712000 CEST
    [Time shift for this packet: 0.000000000 seconds]
    Epoch Time: 1403453362.875712000 seconds
    [Time delta from previous captured frame: 0.000000000 seconds]
    [Time delta from previous displayed frame: 0.000000000 seconds]
    [Time since reference or first frame: 0.015625000 seconds]
    Frame Number: 9
    Frame Length: 28 bytes (224 bits)
    Capture Length: 28 bytes (224 bits)
    [Frame is marked: False]
    [Frame is ignored: False]
    [Protocols in frame: usb]
USB URB
    USBPcap pseudoheader length: 28
    IRP ID: 0xffffffff863dfc08
    IRP USBD_STATUS: USBD_STATUS_SUCCESS (0x00000000)
    URB Function: URB_FUNCTION_CONTROL_TRANSFER (0x0008)
    IRP information: 0x01, Direction: PDO -> FDO
        0000 000. = Reserved: 0x00
        .... ...1 = Direction: PDO -> FDO (0x01)
    URB bus id: 1
    Device address: 1
    Endpoint: 0x80, Direction: IN
        1... .... = Direction: IN (1)
        .000 0000 = Endpoint value: 0
    URB transfer type: URB_CONTROL (0x02)
    Packet Data Length: 0
    Control transfer stage: Status (2)
    [Request in: 7]
    [Time from request: 0.015625000 seconds]
    [bInterfaceClass: Unknown (0xffff)]

0000  1c 00 08 fc 3d 86 ff ff ff ff 00 00 00 00 08 00   ....=...........
0010  01 01 00 01 00 80 02 00 00 00 00 02               ............

No.     Time        Source                Destination           Protocol Length Info
     10 0.015625    1.0                   host                  USB      30     GET DESCRIPTOR Response CONFIGURATION[Malformed Packet]

Frame 10: 30 bytes on wire (240 bits), 30 bytes captured (240 bits)
    Encapsulation type: USB packets with USBPcap header (153)
    Arrival Time: Jun 22, 2014 18:09:22.875712000 CEST
    [Time shift for this packet: 0.000000000 seconds]
    Epoch Time: 1403453362.875712000 seconds
    [Time delta from previous captured frame: 0.000000000 seconds]
    [Time delta from previous displayed frame: 0.000000000 seconds]
    [Time since reference or first frame: 0.015625000 seconds]
    Frame Number: 10
    Frame Length: 30 bytes (240 bits)
    Capture Length: 30 bytes (240 bits)
    [Frame is marked: False]
    [Frame is ignored: False]
    [Protocols in frame: usb]
USB URB
    USBPcap pseudoheader length: 28
    IRP ID: 0xffffffff863dfc08
    IRP USBD_STATUS: USBD_STATUS_SUCCESS (0x00000000)
    URB Function: URB_FUNCTION_CONTROL_TRANSFER (0x0008)
    IRP information: 0x01, Direction: PDO -> FDO
        0000 000. = Reserved: 0x00
        .... ...1 = Direction: PDO -> FDO (0x01)
    URB bus id: 1
    Device address: 1
    Endpoint: 0x80, Direction: IN
        1... .... = Direction: IN (1)
        .000 0000 = Endpoint value: 0
    URB transfer type: URB_CONTROL (0x02)
    Packet Data Length: 2
    Control transfer stage: Data (1)
    [Request in: 7]
    [Time from request: 0.015625000 seconds]
    [bInterfaceClass: Unknown (0xffff)]
CONFIGURATION DESCRIPTOR
    bLength: 0
    bDescriptorType: Unknown (0)
[Malformed Packet: USB]
    [Expert Info (Error/Malformed): Malformed Packet (Exception occurred)]
        [Message: Malformed Packet (Exception occurred)]
        [Severity level: Error]
        [Group: Malformed]

0000  1c 00 08 fc 3d 86 ff ff ff ff 00 00 00 00 08 00   ....=...........
0010  01 01 00 01 00 80 02 02 00 00 00 01 00 00         ..............

No.     Time        Source                Destination           Protocol Length Info
     11 0.015625    1.0                   host                  USB      28     GET DESCRIPTOR Status

Frame 11: 28 bytes on wire (224 bits), 28 bytes captured (224 bits)
    Encapsulation type: USB packets with USBPcap header (153)
    Arrival Time: Jun 22, 2014 18:09:22.875712000 CEST
    [Time shift for this packet: 0.000000000 seconds]
    Epoch Time: 1403453362.875712000 seconds
    [Time delta from previous captured frame: 0.000000000 seconds]
    [Time delta from previous displayed frame: 0.000000000 seconds]
    [Time since reference or first frame: 0.015625000 seconds]
    Frame Number: 11
    Frame Length: 28 bytes (224 bits)
    Capture Length: 28 bytes (224 bits)
    [Frame is marked: False]
    [Frame is ignored: False]
    [Protocols in frame: usb]
USB URB
    USBPcap pseudoheader length: 28
    IRP ID: 0xffffffff863dfc08
    IRP USBD_STATUS: USBD_STATUS_SUCCESS (0x00000000)
    URB Function: URB_FUNCTION_CONTROL_TRANSFER (0x0008)
    IRP information: 0x01, Direction: PDO -> FDO
        0000 000. = Reserved: 0x00
        .... ...1 = Direction: PDO -> FDO (0x01)
    URB bus id: 1
    Device address: 1
    Endpoint: 0x80, Direction: IN
        1... .... = Direction: IN (1)
        .000 0000 = Endpoint value: 0
    URB transfer type: URB_CONTROL (0x02)
    Packet Data Length: 0
    Control transfer stage: Status (2)
    [Request in: 7]
    [Time from request: 0.015625000 seconds]
    [bInterfaceClass: Unknown (0xffff)]

0000  1c 00 08 fc 3d 86 ff ff ff ff 00 00 00 00 08 00   ....=...........
0010  01 01 00 01 00 80 02 00 00 00 00 02               ............

No.     Time        Source                Destination           Protocol Length Info
     12 0.015625    host                  1.0                   USB      36     SET CONFIGURATION Request

Frame 12: 36 bytes on wire (288 bits), 36 bytes captured (288 bits)
    Encapsulation type: USB packets with USBPcap header (153)
    Arrival Time: Jun 22, 2014 18:09:22.875712000 CEST
    [Time shift for this packet: 0.000000000 seconds]
    Epoch Time: 1403453362.875712000 seconds
    [Time delta from previous captured frame: 0.000000000 seconds]
    [Time delta from previous displayed frame: 0.000000000 seconds]
    [Time since reference or first frame: 0.015625000 seconds]
    Frame Number: 12
    Frame Length: 36 bytes (288 bits)
    Capture Length: 36 bytes (288 bits)
    [Frame is marked: False]
    [Frame is ignored: False]
    [Protocols in frame: usb]
USB URB
    USBPcap pseudoheader length: 28
    IRP ID: 0xffffffff863dfc08
    IRP USBD_STATUS: USBD_STATUS_SUCCESS (0x00000000)
    URB Function: URB_FUNCTION_SELECT_CONFIGURATION (0x0000)
    IRP information: 0x00, Direction: FDO -> PDO
        0000 000. = Reserved: 0x00
        .... ...0 = Direction: FDO -> PDO (0x00)
    URB bus id: 1
    Device address: 1
    Endpoint: 0x80, Direction: IN
        1... .... = Direction: IN (1)
        .000 0000 = Endpoint value: 0
    URB transfer type: URB_CONTROL (0x02)
    Packet Data Length: 8
    Control transfer stage: Setup (0)
    [Response in: 13]
URB setup
    bmRequestType: 0x00
        0... .... = Direction: Host-to-device
        .00. .... = Type: Standard (0x00)
        ...0 0000 = Recipient: Device (0x00)
    bRequest: SET CONFIGURATION (9)
    bConfigurationValue: 1
    wIndex: 0
    wLength: 0

0000  1c 00 08 fc 3d 86 ff ff ff ff 00 00 00 00 00 00   ....=...........
0010  00 01 00 01 00 80 02 08 00 00 00 00 00 09 01 00   ................
0020  00 00 00 00                                       ....

No.     Time        Source                Destination           Protocol Length Info
     13 0.015625    1.0                   host                  USB      28     SET CONFIGURATION Status

Frame 13: 28 bytes on wire (224 bits), 28 bytes captured (224 bits)
    Encapsulation type: USB packets with USBPcap header (153)
    Arrival Time: Jun 22, 2014 18:09:22.875712000 CEST
    [Time shift for this packet: 0.000000000 seconds]
    Epoch Time: 1403453362.875712000 seconds
    [Time delta from previous captured frame: 0.000000000 seconds]
    [Time delta from previous displayed frame: 0.000000000 seconds]
    [Time since reference or first frame: 0.015625000 seconds]
    Frame Number: 13
    Frame Length: 28 bytes (224 bits)
    Capture Length: 28 bytes (224 bits)
    [Frame is marked: False]
    [Frame is ignored: False]
    [Protocols in frame: usb]
USB URB
    USBPcap pseudoheader length: 28
    IRP ID: 0xffffffff863dfc08
    IRP USBD_STATUS: USBD_STATUS_SUCCESS (0x00000000)
    URB Function: URB_FUNCTION_SELECT_CONFIGURATION (0x0000)
    IRP information: 0x01, Direction: PDO -> FDO
        0000 000. = Reserved: 0x00
        .... ...1 = Direction: PDO -> FDO (0x01)
    URB bus id: 1
    Device address: 1
    Endpoint: 0x80, Direction: IN
        1... .... = Direction: IN (1)
        .000 0000 = Endpoint value: 0
    URB transfer type: URB_CONTROL (0x02)
    Packet Data Length: 0
    Control transfer stage: Status (2)
    [Request in: 12]
    [Time from request: 0.000000000 seconds]
    [bInterfaceClass: Unknown (0xffff)]

0000  1c 00 08 fc 3d 86 ff ff ff ff 00 00 00 00 00 00   ....=...........
0010  01 01 00 01 00 80 02 00 00 00 00 02               ............

No.     Time        Source                Destination           Protocol Length Info
     14 0.015625    host                  1.0                   USB      36     URB_CONTROL in

Frame 14: 36 bytes on wire (288 bits), 36 bytes captured (288 bits)
    Encapsulation type: USB packets with USBPcap header (153)
    Arrival Time: Jun 22, 2014 18:09:22.875712000 CEST
    [Time shift for this packet: 0.000000000 seconds]
    Epoch Time: 1403453362.875712000 seconds
    [Time delta from previous captured frame: 0.000000000 seconds]
    [Time delta from previous displayed frame: 0.000000000 seconds]
    [Time since reference or first frame: 0.015625000 seconds]
    Frame Number: 14
    Frame Length: 36 bytes (288 bits)
    Capture Length: 36 bytes (288 bits)
    [Frame is marked: False]
    [Frame is ignored: False]
    [Protocols in frame: usb]
USB URB
    USBPcap pseudoheader length: 28
    IRP ID: 0xffffffff863dfc08
    IRP USBD_STATUS: USBD_STATUS_SUCCESS (0x00000000)
    URB Function: URB_FUNCTION_CONTROL_TRANSFER (0x0008)
    IRP information: 0x00, Direction: FDO -> PDO
        0000 000. = Reserved: 0x00
        .... ...0 = Direction: FDO -> PDO (0x00)
    URB bus id: 1
    Device address: 1
    Endpoint: 0x80, Direction: IN
        1... .... = Direction: IN (1)
        .000 0000 = Endpoint value: 0
    URB transfer type: URB_CONTROL (0x02)
    Packet Data Length: 8
    Control transfer stage: Setup (0)
    [Response in: 16]
URB setup
    bmRequestType: 0xc0
        1... .... = Direction: Device-to-host
        .10. .... = Type: Vendor (0x02)
        ...0 0000 = Recipient: Device (0x00)
    bRequest: 255
    wValue: 0x370b
    wIndex: 0
    wLength: 1

0000  1c 00 08 fc 3d 86 ff ff ff ff 00 00 00 00 08 00   ....=...........
0010  00 01 00 01 00 80 02 08 00 00 00 00 c0 ff 0b 37   ...............7
0020  00 00 01 00                                       ....

No.     Time        Source                Destination           Protocol Length Info
     15 0.015625    1.0                   host                  USB      29     URB_CONTROL in

Frame 15: 29 bytes on wire (232 bits), 29 bytes captured (232 bits)
    Encapsulation type: USB packets with USBPcap header (153)
    Arrival Time: Jun 22, 2014 18:09:22.875712000 CEST
    [Time shift for this packet: 0.000000000 seconds]
    Epoch Time: 1403453362.875712000 seconds
    [Time delta from previous captured frame: 0.000000000 seconds]
    [Time delta from previous displayed frame: 0.000000000 seconds]
    [Time since reference or first frame: 0.015625000 seconds]
    Frame Number: 15
    Frame Length: 29 bytes (232 bits)
    Capture Length: 29 bytes (232 bits)
    [Frame is marked: False]
    [Frame is ignored: False]
    [Protocols in frame: usb]
USB URB
    USBPcap pseudoheader length: 28
    IRP ID: 0xffffffff863dfc08
    IRP USBD_STATUS: USBD_STATUS_SUCCESS (0x00000000)
    URB Function: URB_FUNCTION_CONTROL_TRANSFER (0x0008)
    IRP information: 0x01, Direction: PDO -> FDO
        0000 000. = Reserved: 0x00
        .... ...1 = Direction: PDO -> FDO (0x01)
    URB bus id: 1
    Device address: 1
    Endpoint: 0x80, Direction: IN
        1... .... = Direction: IN (1)
        .000 0000 = Endpoint value: 0
    URB transfer type: URB_CONTROL (0x02)
    Packet Data Length: 1
    Control transfer stage: Data (1)
    [Request in: 14]
    [Time from request: 0.000000000 seconds]
    [bInterfaceClass: Unknown (0xffff)]
CONTROL response data

0000  1c 00 08 fc 3d 86 ff ff ff ff 00 00 00 00 08 00   ....=...........
0010  01 01 00 01 00 80 02 01 00 00 00 01 04            .............

No.     Time        Source                Destination           Protocol Length Info
     16 0.015625    1.0                   host                  USB      28     Unknown type ff Status

Frame 16: 28 bytes on wire (224 bits), 28 bytes captured (224 bits)
    Encapsulation type: USB packets with USBPcap header (153)
    Arrival Time: Jun 22, 2014 18:09:22.875712000 CEST
    [Time shift for this packet: 0.000000000 seconds]
    Epoch Time: 1403453362.875712000 seconds
    [Time delta from previous captured frame: 0.000000000 seconds]
    [Time delta from previous displayed frame: 0.000000000 seconds]
    [Time since reference or first frame: 0.015625000 seconds]
    Frame Number: 16
    Frame Length: 28 bytes (224 bits)
    Capture Length: 28 bytes (224 bits)
    [Frame is marked: False]
    [Frame is ignored: False]
    [Protocols in frame: usb]
USB URB
    USBPcap pseudoheader length: 28
    IRP ID: 0xffffffff863dfc08
    IRP USBD_STATUS: USBD_STATUS_SUCCESS (0x00000000)
    URB Function: URB_FUNCTION_CONTROL_TRANSFER (0x0008)
    IRP information: 0x01, Direction: PDO -> FDO
        0000 000. = Reserved: 0x00
        .... ...1 = Direction: PDO -> FDO (0x01)
    URB bus id: 1
    Device address: 1
    Endpoint: 0x80, Direction: IN
        1... .... = Direction: IN (1)
        .000 0000 = Endpoint value: 0
    URB transfer type: URB_CONTROL (0x02)
    Packet Data Length: 0
    Control transfer stage: Status (2)
    [Request in: 14]
    [Time from request: 0.000000000 seconds]
    [bInterfaceClass: Unknown (0xffff)]

0000  1c 00 08 fc 3d 86 ff ff ff ff 00 00 00 00 08 00   ....=...........
0010  01 01 00 01 00 80 02 00 00 00 00 02               ............

No.     Time        Source                Destination           Protocol Length Info
     17 0.015625    host                  1.0                   USB      36     GET DESCRIPTOR Request STRING

Frame 17: 36 bytes on wire (288 bits), 36 bytes captured (288 bits)
    Encapsulation type: USB packets with USBPcap header (153)
    Arrival Time: Jun 22, 2014 18:09:22.875712000 CEST
    [Time shift for this packet: 0.000000000 seconds]
    Epoch Time: 1403453362.875712000 seconds
    [Time delta from previous captured frame: 0.000000000 seconds]
    [Time delta from previous displayed frame: 0.000000000 seconds]
    [Time since reference or first frame: 0.015625000 seconds]
    Frame Number: 17
    Frame Length: 36 bytes (288 bits)
    Capture Length: 36 bytes (288 bits)
    [Frame is marked: False]
    [Frame is ignored: False]
    [Protocols in frame: usb]
USB URB
    USBPcap pseudoheader length: 28
    IRP ID: 0xffffffff863dfc08
    IRP USBD_STATUS: USBD_STATUS_SUCCESS (0x00000000)
    URB Function: URB_FUNCTION_GET_DESCRIPTOR_FROM_DEVICE (0x000b)
    IRP information: 0x00, Direction: FDO -> PDO
        0000 000. = Reserved: 0x00
        .... ...0 = Direction: FDO -> PDO (0x00)
    URB bus id: 1
    Device address: 1
    Endpoint: 0x00, Direction: OUT
        0... .... = Direction: OUT (0)
        .000 0000 = Endpoint value: 0
    URB transfer type: URB_CONTROL (0x02)
    Packet Data Length: 8
    Control transfer stage: Setup (0)
    [Response in: 19]
URB setup
    bmRequestType: 0x80
        1... .... = Direction: Device-to-host
        .00. .... = Type: Standard (0x00)
        ...0 0000 = Recipient: Device (0x00)
    bRequest: GET DESCRIPTOR (6)
    Descriptor Index: 0x02
    bDescriptorType: STRING (3)
    Language Id: English (United States) (0x0409)
    wLength: 2

0000  1c 00 08 fc 3d 86 ff ff ff ff 00 00 00 00 0b 00   ....=...........
0010  00 01 00 01 00 00 02 08 00 00 00 00 80 06 02 03   ................
0020  09 04 02 00                                       ....

No.     Time        Source                Destination           Protocol Length Info
     18 0.031250    1.0                   host                  USB      30     GET DESCRIPTOR Response STRING[Malformed Packet]

Frame 18: 30 bytes on wire (240 bits), 30 bytes captured (240 bits)
    Encapsulation type: USB packets with USBPcap header (153)
    Arrival Time: Jun 22, 2014 18:09:22.891337000 CEST
    [Time shift for this packet: 0.000000000 seconds]
    Epoch Time: 1403453362.891337000 seconds
    [Time delta from previous captured frame: 0.015625000 seconds]
    [Time delta from previous displayed frame: 0.015625000 seconds]
    [Time since reference or first frame: 0.031250000 seconds]
    Frame Number: 18
    Frame Length: 30 bytes (240 bits)
    Capture Length: 30 bytes (240 bits)
    [Frame is marked: False]
    [Frame is ignored: False]
    [Protocols in frame: usb]
USB URB
    USBPcap pseudoheader length: 28
    IRP ID: 0xffffffff863dfc08
    IRP USBD_STATUS: USBD_STATUS_SUCCESS (0x00000000)
    URB Function: URB_FUNCTION_CONTROL_TRANSFER (0x0008)
    IRP information: 0x01, Direction: PDO -> FDO
        0000 000. = Reserved: 0x00
        .... ...1 = Direction: PDO -> FDO (0x01)
    URB bus id: 1
    Device address: 1
    Endpoint: 0x80, Direction: IN
        1... .... = Direction: IN (1)
        .000 0000 = Endpoint value: 0
    URB transfer type: URB_CONTROL (0x02)
    Packet Data Length: 2
    Control transfer stage: Data (1)
    [Request in: 17]
    [Time from request: 0.015625000 seconds]
    [bInterfaceClass: Unknown (0xffff)]
STRING DESCRIPTOR
    bLength: 74
    bDescriptorType: STRING (3)
[Malformed Packet: USB]
    [Expert Info (Error/Malformed): Malformed Packet (Exception occurred)]
        [Message: Malformed Packet (Exception occurred)]
        [Severity level: Error]
        [Group: Malformed]

0000  1c 00 08 fc 3d 86 ff ff ff ff 00 00 00 00 08 00   ....=...........
0010  01 01 00 01 00 80 02 02 00 00 00 01 4a 03         ............J.

No.     Time        Source                Destination           Protocol Length Info
     19 0.031250    1.0                   host                  USB      28     GET DESCRIPTOR Status

Frame 19: 28 bytes on wire (224 bits), 28 bytes captured (224 bits)
    Encapsulation type: USB packets with USBPcap header (153)
    Arrival Time: Jun 22, 2014 18:09:22.891337000 CEST
    [Time shift for this packet: 0.000000000 seconds]
    Epoch Time: 1403453362.891337000 seconds
    [Time delta from previous captured frame: 0.000000000 seconds]
    [Time delta from previous displayed frame: 0.000000000 seconds]
    [Time since reference or first frame: 0.031250000 seconds]
    Frame Number: 19
    Frame Length: 28 bytes (224 bits)
    Capture Length: 28 bytes (224 bits)
    [Frame is marked: False]
    [Frame is ignored: False]
    [Protocols in frame: usb]
USB URB
    USBPcap pseudoheader length: 28
    IRP ID: 0xffffffff863dfc08
    IRP USBD_STATUS: USBD_STATUS_SUCCESS (0x00000000)
    URB Function: URB_FUNCTION_CONTROL_TRANSFER (0x0008)
    IRP information: 0x01, Direction: PDO -> FDO
        0000 000. = Reserved: 0x00
        .... ...1 = Direction: PDO -> FDO (0x01)
    URB bus id: 1
    Device address: 1
    Endpoint: 0x80, Direction: IN
        1... .... = Direction: IN (1)
        .000 0000 = Endpoint value: 0
    URB transfer type: URB_CONTROL (0x02)
    Packet Data Length: 0
    Control transfer stage: Status (2)
    [Request in: 17]
    [Time from request: 0.015625000 seconds]
    [bInterfaceClass: Unknown (0xffff)]

0000  1c 00 08 fc 3d 86 ff ff ff ff 00 00 00 00 08 00   ....=...........
0010  01 01 00 01 00 80 02 00 00 00 00 02               ............

No.     Time        Source                Destination           Protocol Length Info
     20 0.031250    host                  1.0                   USB      36     GET DESCRIPTOR Request STRING

Frame 20: 36 bytes on wire (288 bits), 36 bytes captured (288 bits)
    Encapsulation type: USB packets with USBPcap header (153)
    Arrival Time: Jun 22, 2014 18:09:22.891337000 CEST
    [Time shift for this packet: 0.000000000 seconds]
    Epoch Time: 1403453362.891337000 seconds
    [Time delta from previous captured frame: 0.000000000 seconds]
    [Time delta from previous displayed frame: 0.000000000 seconds]
    [Time since reference or first frame: 0.031250000 seconds]
    Frame Number: 20
    Frame Length: 36 bytes (288 bits)
    Capture Length: 36 bytes (288 bits)
    [Frame is marked: False]
    [Frame is ignored: False]
    [Protocols in frame: usb]
USB URB
    USBPcap pseudoheader length: 28
    IRP ID: 0xffffffff863dfc08
    IRP USBD_STATUS: USBD_STATUS_SUCCESS (0x00000000)
    URB Function: URB_FUNCTION_GET_DESCRIPTOR_FROM_DEVICE (0x000b)
    IRP information: 0x00, Direction: FDO -> PDO
        0000 000. = Reserved: 0x00
        .... ...0 = Direction: FDO -> PDO (0x00)
    URB bus id: 1
    Device address: 1
    Endpoint: 0x00, Direction: OUT
        0... .... = Direction: OUT (0)
        .000 0000 = Endpoint value: 0
    URB transfer type: URB_CONTROL (0x02)
    Packet Data Length: 8
    Control transfer stage: Setup (0)
    [Response in: 22]
URB setup
    bmRequestType: 0x80
        1... .... = Direction: Device-to-host
        .00. .... = Type: Standard (0x00)
        ...0 0000 = Recipient: Device (0x00)
    bRequest: GET DESCRIPTOR (6)
    Descriptor Index: 0x02
    bDescriptorType: STRING (3)
    Language Id: English (United States) (0x0409)
    wLength: 74

0000  1c 00 08 fc 3d 86 ff ff ff ff 00 00 00 00 0b 00   ....=...........
0010  00 01 00 01 00 00 02 08 00 00 00 00 80 06 02 03   ................
0020  09 04 4a 00                                       ..J.

No.     Time        Source                Destination           Protocol Length Info
     21 0.031250    1.0                   host                  USB      102    GET DESCRIPTOR Response STRING

Frame 21: 102 bytes on wire (816 bits), 102 bytes captured (816 bits)
    Encapsulation type: USB packets with USBPcap header (153)
    Arrival Time: Jun 22, 2014 18:09:22.891337000 CEST
    [Time shift for this packet: 0.000000000 seconds]
    Epoch Time: 1403453362.891337000 seconds
    [Time delta from previous captured frame: 0.000000000 seconds]
    [Time delta from previous displayed frame: 0.000000000 seconds]
    [Time since reference or first frame: 0.031250000 seconds]
    Frame Number: 21
    Frame Length: 102 bytes (816 bits)
    Capture Length: 102 bytes (816 bits)
    [Frame is marked: False]
    [Frame is ignored: False]
    [Protocols in frame: usb]
USB URB
    USBPcap pseudoheader length: 28
    IRP ID: 0xffffffff863dfc08
    IRP USBD_STATUS: USBD_STATUS_SUCCESS (0x00000000)
    URB Function: URB_FUNCTION_CONTROL_TRANSFER (0x0008)
    IRP information: 0x01, Direction: PDO -> FDO
        0000 000. = Reserved: 0x00
        .... ...1 = Direction: PDO -> FDO (0x01)
    URB bus id: 1
    Device address: 1
    Endpoint: 0x80, Direction: IN
        1... .... = Direction: IN (1)
        .000 0000 = Endpoint value: 0
    URB transfer type: URB_CONTROL (0x02)
    Packet Data Length: 74
    Control transfer stage: Data (1)
    [Request in: 20]
    [Time from request: 0.000000000 seconds]
    [bInterfaceClass: Unknown (0xffff)]
STRING DESCRIPTOR
    bLength: 74
    bDescriptorType: STRING (3)
    bString: CP2104 USB to UART Bridge Controller

0000  1c 00 08 fc 3d 86 ff ff ff ff 00 00 00 00 08 00   ....=...........
0010  01 01 00 01 00 80 02 4a 00 00 00 01 4a 03 43 00   .......J....J.C.
0020  50 00 32 00 31 00 30 00 34 00 20 00 55 00 53 00   P.2.1.0.4. .U.S.
0030  42 00 20 00 74 00 6f 00 20 00 55 00 41 00 52 00   B. .t.o. .U.A.R.
0040  54 00 20 00 42 00 72 00 69 00 64 00 67 00 65 00   T. .B.r.i.d.g.e.
0050  20 00 43 00 6f 00 6e 00 74 00 72 00 6f 00 6c 00    .C.o.n.t.r.o.l.
0060  6c 00 65 00 72 00                                 l.e.r.

No.     Time        Source                Destination           Protocol Length Info
     22 0.031250    1.0                   host                  USB      28     GET DESCRIPTOR Status

Frame 22: 28 bytes on wire (224 bits), 28 bytes captured (224 bits)
    Encapsulation type: USB packets with USBPcap header (153)
    Arrival Time: Jun 22, 2014 18:09:22.891337000 CEST
    [Time shift for this packet: 0.000000000 seconds]
    Epoch Time: 1403453362.891337000 seconds
    [Time delta from previous captured frame: 0.000000000 seconds]
    [Time delta from previous displayed frame: 0.000000000 seconds]
    [Time since reference or first frame: 0.031250000 seconds]
    Frame Number: 22
    Frame Length: 28 bytes (224 bits)
    Capture Length: 28 bytes (224 bits)
    [Frame is marked: False]
    [Frame is ignored: False]
    [Protocols in frame: usb]
USB URB
    USBPcap pseudoheader length: 28
    IRP ID: 0xffffffff863dfc08
    IRP USBD_STATUS: USBD_STATUS_SUCCESS (0x00000000)
    URB Function: URB_FUNCTION_CONTROL_TRANSFER (0x0008)
    IRP information: 0x01, Direction: PDO -> FDO
        0000 000. = Reserved: 0x00
        .... ...1 = Direction: PDO -> FDO (0x01)
    URB bus id: 1
    Device address: 1
    Endpoint: 0x80, Direction: IN
        1... .... = Direction: IN (1)
        .000 0000 = Endpoint value: 0
    URB transfer type: URB_CONTROL (0x02)
    Packet Data Length: 0
    Control transfer stage: Status (2)
    [Request in: 20]
    [Time from request: 0.000000000 seconds]
    [bInterfaceClass: Unknown (0xffff)]

0000  1c 00 08 fc 3d 86 ff ff ff ff 00 00 00 00 08 00   ....=...........
0010  01 01 00 01 00 80 02 00 00 00 00 02               ............

No.     Time        Source                Destination           Protocol Length Info
     23 0.031250    host                  1.0                   USB      36     GET DESCRIPTOR Request STRING

Frame 23: 36 bytes on wire (288 bits), 36 bytes captured (288 bits)
    Encapsulation type: USB packets with USBPcap header (153)
    Arrival Time: Jun 22, 2014 18:09:22.891337000 CEST
    [Time shift for this packet: 0.000000000 seconds]
    Epoch Time: 1403453362.891337000 seconds
    [Time delta from previous captured frame: 0.000000000 seconds]
    [Time delta from previous displayed frame: 0.000000000 seconds]
    [Time since reference or first frame: 0.031250000 seconds]
    Frame Number: 23
    Frame Length: 36 bytes (288 bits)
    Capture Length: 36 bytes (288 bits)
    [Frame is marked: False]
    [Frame is ignored: False]
    [Protocols in frame: usb]
USB URB
    USBPcap pseudoheader length: 28
    IRP ID: 0xffffffff863dfc08
    IRP USBD_STATUS: USBD_STATUS_SUCCESS (0x00000000)
    URB Function: URB_FUNCTION_GET_DESCRIPTOR_FROM_DEVICE (0x000b)
    IRP information: 0x00, Direction: FDO -> PDO
        0000 000. = Reserved: 0x00
        .... ...0 = Direction: FDO -> PDO (0x00)
    URB bus id: 1
    Device address: 1
    Endpoint: 0x00, Direction: OUT
        0... .... = Direction: OUT (0)
        .000 0000 = Endpoint value: 0
    URB transfer type: URB_CONTROL (0x02)
    Packet Data Length: 8
    Control transfer stage: Setup (0)
    [Response in: 25]
URB setup
    bmRequestType: 0x80
        1... .... = Direction: Device-to-host
        .00. .... = Type: Standard (0x00)
        ...0 0000 = Recipient: Device (0x00)
    bRequest: GET DESCRIPTOR (6)
    Descriptor Index: 0x03
    bDescriptorType: STRING (3)
    Language Id: English (United States) (0x0409)
    wLength: 2

0000  1c 00 08 fc 3d 86 ff ff ff ff 00 00 00 00 0b 00   ....=...........
0010  00 01 00 01 00 00 02 08 00 00 00 00 80 06 03 03   ................
0020  09 04 02 00                                       ....

No.     Time        Source                Destination           Protocol Length Info
     24 0.031250    1.0                   host                  USB      30     GET DESCRIPTOR Response STRING[Malformed Packet]

Frame 24: 30 bytes on wire (240 bits), 30 bytes captured (240 bits)
    Encapsulation type: USB packets with USBPcap header (153)
    Arrival Time: Jun 22, 2014 18:09:22.891337000 CEST
    [Time shift for this packet: 0.000000000 seconds]
    Epoch Time: 1403453362.891337000 seconds
    [Time delta from previous captured frame: 0.000000000 seconds]
    [Time delta from previous displayed frame: 0.000000000 seconds]
    [Time since reference or first frame: 0.031250000 seconds]
    Frame Number: 24
    Frame Length: 30 bytes (240 bits)
    Capture Length: 30 bytes (240 bits)
    [Frame is marked: False]
    [Frame is ignored: False]
    [Protocols in frame: usb]
USB URB
    USBPcap pseudoheader length: 28
    IRP ID: 0xffffffff863dfc08
    IRP USBD_STATUS: USBD_STATUS_SUCCESS (0x00000000)
    URB Function: URB_FUNCTION_CONTROL_TRANSFER (0x0008)
    IRP information: 0x01, Direction: PDO -> FDO
        0000 000. = Reserved: 0x00
        .... ...1 = Direction: PDO -> FDO (0x01)
    URB bus id: 1
    Device address: 1
    Endpoint: 0x80, Direction: IN
        1... .... = Direction: IN (1)
        .000 0000 = Endpoint value: 0
    URB transfer type: URB_CONTROL (0x02)
    Packet Data Length: 2
    Control transfer stage: Data (1)
    [Request in: 23]
    [Time from request: 0.000000000 seconds]
    [bInterfaceClass: Unknown (0xffff)]
STRING DESCRIPTOR
    bLength: 18
    bDescriptorType: STRING (3)
[Malformed Packet: USB]
    [Expert Info (Error/Malformed): Malformed Packet (Exception occurred)]
        [Message: Malformed Packet (Exception occurred)]
        [Severity level: Error]
        [Group: Malformed]

0000  1c 00 08 fc 3d 86 ff ff ff ff 00 00 00 00 08 00   ....=...........
0010  01 01 00 01 00 80 02 02 00 00 00 01 12 03         ..............

No.     Time        Source                Destination           Protocol Length Info
     25 0.031250    1.0                   host                  USB      28     GET DESCRIPTOR Status

Frame 25: 28 bytes on wire (224 bits), 28 bytes captured (224 bits)
    Encapsulation type: USB packets with USBPcap header (153)
    Arrival Time: Jun 22, 2014 18:09:22.891337000 CEST
    [Time shift for this packet: 0.000000000 seconds]
    Epoch Time: 1403453362.891337000 seconds
    [Time delta from previous captured frame: 0.000000000 seconds]
    [Time delta from previous displayed frame: 0.000000000 seconds]
    [Time since reference or first frame: 0.031250000 seconds]
    Frame Number: 25
    Frame Length: 28 bytes (224 bits)
    Capture Length: 28 bytes (224 bits)
    [Frame is marked: False]
    [Frame is ignored: False]
    [Protocols in frame: usb]
USB URB
    USBPcap pseudoheader length: 28
    IRP ID: 0xffffffff863dfc08
    IRP USBD_STATUS: USBD_STATUS_SUCCESS (0x00000000)
    URB Function: URB_FUNCTION_CONTROL_TRANSFER (0x0008)
    IRP information: 0x01, Direction: PDO -> FDO
        0000 000. = Reserved: 0x00
        .... ...1 = Direction: PDO -> FDO (0x01)
    URB bus id: 1
    Device address: 1
    Endpoint: 0x80, Direction: IN
        1... .... = Direction: IN (1)
        .000 0000 = Endpoint value: 0
    URB transfer type: URB_CONTROL (0x02)
    Packet Data Length: 0
    Control transfer stage: Status (2)
    [Request in: 23]
    [Time from request: 0.000000000 seconds]
    [bInterfaceClass: Unknown (0xffff)]

0000  1c 00 08 fc 3d 86 ff ff ff ff 00 00 00 00 08 00   ....=...........
0010  01 01 00 01 00 80 02 00 00 00 00 02               ............

No.     Time        Source                Destination           Protocol Length Info
     26 0.031250    host                  1.0                   USB      36     GET DESCRIPTOR Request STRING

Frame 26: 36 bytes on wire (288 bits), 36 bytes captured (288 bits)
    Encapsulation type: USB packets with USBPcap header (153)
    Arrival Time: Jun 22, 2014 18:09:22.891337000 CEST
    [Time shift for this packet: 0.000000000 seconds]
    Epoch Time: 1403453362.891337000 seconds
    [Time delta from previous captured frame: 0.000000000 seconds]
    [Time delta from previous displayed frame: 0.000000000 seconds]
    [Time since reference or first frame: 0.031250000 seconds]
    Frame Number: 26
    Frame Length: 36 bytes (288 bits)
    Capture Length: 36 bytes (288 bits)
    [Frame is marked: False]
    [Frame is ignored: False]
    [Protocols in frame: usb]
USB URB
    USBPcap pseudoheader length: 28
    IRP ID: 0xffffffff863dfc08
    IRP USBD_STATUS: USBD_STATUS_SUCCESS (0x00000000)
    URB Function: URB_FUNCTION_GET_DESCRIPTOR_FROM_DEVICE (0x000b)
    IRP information: 0x00, Direction: FDO -> PDO
        0000 000. = Reserved: 0x00
        .... ...0 = Direction: FDO -> PDO (0x00)
    URB bus id: 1
    Device address: 1
    Endpoint: 0x00, Direction: OUT
        0... .... = Direction: OUT (0)
        .000 0000 = Endpoint value: 0
    URB transfer type: URB_CONTROL (0x02)
    Packet Data Length: 8
    Control transfer stage: Setup (0)
    [Response in: 28]
URB setup
    bmRequestType: 0x80
        1... .... = Direction: Device-to-host
        .00. .... = Type: Standard (0x00)
        ...0 0000 = Recipient: Device (0x00)
    bRequest: GET DESCRIPTOR (6)
    Descriptor Index: 0x03
    bDescriptorType: STRING (3)
    Language Id: English (United States) (0x0409)
    wLength: 18

0000  1c 00 08 fc 3d 86 ff ff ff ff 00 00 00 00 0b 00   ....=...........
0010  00 01 00 01 00 00 02 08 00 00 00 00 80 06 03 03   ................
0020  09 04 12 00                                       ....

No.     Time        Source                Destination           Protocol Length Info
     27 0.031250    1.0                   host                  USB      46     GET DESCRIPTOR Response STRING

Frame 27: 46 bytes on wire (368 bits), 46 bytes captured (368 bits)
    Encapsulation type: USB packets with USBPcap header (153)
    Arrival Time: Jun 22, 2014 18:09:22.891337000 CEST
    [Time shift for this packet: 0.000000000 seconds]
    Epoch Time: 1403453362.891337000 seconds
    [Time delta from previous captured frame: 0.000000000 seconds]
    [Time delta from previous displayed frame: 0.000000000 seconds]
    [Time since reference or first frame: 0.031250000 seconds]
    Frame Number: 27
    Frame Length: 46 bytes (368 bits)
    Capture Length: 46 bytes (368 bits)
    [Frame is marked: False]
    [Frame is ignored: False]
    [Protocols in frame: usb]
USB URB
    USBPcap pseudoheader length: 28
    IRP ID: 0xffffffff863dfc08
    IRP USBD_STATUS: USBD_STATUS_SUCCESS (0x00000000)
    URB Function: URB_FUNCTION_CONTROL_TRANSFER (0x0008)
    IRP information: 0x01, Direction: PDO -> FDO
        0000 000. = Reserved: 0x00
        .... ...1 = Direction: PDO -> FDO (0x01)
    URB bus id: 1
    Device address: 1
    Endpoint: 0x80, Direction: IN
        1... .... = Direction: IN (1)
        .000 0000 = Endpoint value: 0
    URB transfer type: URB_CONTROL (0x02)
    Packet Data Length: 18
    Control transfer stage: Data (1)
    [Request in: 26]
    [Time from request: 0.000000000 seconds]
    [bInterfaceClass: Unknown (0xffff)]
STRING DESCRIPTOR
    bLength: 18
    bDescriptorType: STRING (3)
    bString: 0087B968

0000  1c 00 08 fc 3d 86 ff ff ff ff 00 00 00 00 08 00   ....=...........
0010  01 01 00 01 00 80 02 12 00 00 00 01 12 03 30 00   ..............0.
0020  30 00 38 00 37 00 42 00 39 00 36 00 38 00         0.8.7.B.9.6.8.

No.     Time        Source                Destination           Protocol Length Info
     28 0.031250    1.0                   host                  USB      28     GET DESCRIPTOR Status

Frame 28: 28 bytes on wire (224 bits), 28 bytes captured (224 bits)
    Encapsulation type: USB packets with USBPcap header (153)
    Arrival Time: Jun 22, 2014 18:09:22.891337000 CEST
    [Time shift for this packet: 0.000000000 seconds]
    Epoch Time: 1403453362.891337000 seconds
    [Time delta from previous captured frame: 0.000000000 seconds]
    [Time delta from previous displayed frame: 0.000000000 seconds]
    [Time since reference or first frame: 0.031250000 seconds]
    Frame Number: 28
    Frame Length: 28 bytes (224 bits)
    Capture Length: 28 bytes (224 bits)
    [Frame is marked: False]
    [Frame is ignored: False]
    [Protocols in frame: usb]
USB URB
    USBPcap pseudoheader length: 28
    IRP ID: 0xffffffff863dfc08
    IRP USBD_STATUS: USBD_STATUS_SUCCESS (0x00000000)
    URB Function: URB_FUNCTION_CONTROL_TRANSFER (0x0008)
    IRP information: 0x01, Direction: PDO -> FDO
        0000 000. = Reserved: 0x00
        .... ...1 = Direction: PDO -> FDO (0x01)
    URB bus id: 1
    Device address: 1
    Endpoint: 0x80, Direction: IN
        1... .... = Direction: IN (1)
        .000 0000 = Endpoint value: 0
    URB transfer type: URB_CONTROL (0x02)
    Packet Data Length: 0
    Control transfer stage: Status (2)
    [Request in: 26]
    [Time from request: 0.000000000 seconds]
    [bInterfaceClass: Unknown (0xffff)]

0000  1c 00 08 fc 3d 86 ff ff ff ff 00 00 00 00 08 00   ....=...........
0010  01 01 00 01 00 80 02 00 00 00 00 02               ............

No.     Time        Source                Destination           Protocol Length Info
     29 0.031250    host                  1.0                   USB      36     GET DESCRIPTOR Request STRING

Frame 29: 36 bytes on wire (288 bits), 36 bytes captured (288 bits)
    Encapsulation type: USB packets with USBPcap header (153)
    Arrival Time: Jun 22, 2014 18:09:22.891337000 CEST
    [Time shift for this packet: 0.000000000 seconds]
    Epoch Time: 1403453362.891337000 seconds
    [Time delta from previous captured frame: 0.000000000 seconds]
    [Time delta from previous displayed frame: 0.000000000 seconds]
    [Time since reference or first frame: 0.031250000 seconds]
    Frame Number: 29
    Frame Length: 36 bytes (288 bits)
    Capture Length: 36 bytes (288 bits)
    [Frame is marked: False]
    [Frame is ignored: False]
    [Protocols in frame: usb]
USB URB
    USBPcap pseudoheader length: 28
    IRP ID: 0xffffffff863dfc08
    IRP USBD_STATUS: USBD_STATUS_SUCCESS (0x00000000)
    URB Function: URB_FUNCTION_GET_DESCRIPTOR_FROM_DEVICE (0x000b)
    IRP information: 0x00, Direction: FDO -> PDO
        0000 000. = Reserved: 0x00
        .... ...0 = Direction: FDO -> PDO (0x00)
    URB bus id: 1
    Device address: 1
    Endpoint: 0x00, Direction: OUT
        0... .... = Direction: OUT (0)
        .000 0000 = Endpoint value: 0
    URB transfer type: URB_CONTROL (0x02)
    Packet Data Length: 8
    Control transfer stage: Setup (0)
    [Response in: 31]
URB setup
    bmRequestType: 0x80
        1... .... = Direction: Device-to-host
        .00. .... = Type: Standard (0x00)
        ...0 0000 = Recipient: Device (0x00)
    bRequest: GET DESCRIPTOR (6)
    Descriptor Index: 0x02
    bDescriptorType: STRING (3)
    Language Id: English (United States) (0x0409)
    wLength: 2

0000  1c 00 08 fc 3d 86 ff ff ff ff 00 00 00 00 0b 00   ....=...........
0010  00 01 00 01 00 00 02 08 00 00 00 00 80 06 02 03   ................
0020  09 04 02 00                                       ....

No.     Time        Source                Destination           Protocol Length Info
     30 0.046875    1.0                   host                  USB      30     GET DESCRIPTOR Response STRING[Malformed Packet]

Frame 30: 30 bytes on wire (240 bits), 30 bytes captured (240 bits)
    Encapsulation type: USB packets with USBPcap header (153)
    Arrival Time: Jun 22, 2014 18:09:22.906962000 CEST
    [Time shift for this packet: 0.000000000 seconds]
    Epoch Time: 1403453362.906962000 seconds
    [Time delta from previous captured frame: 0.015625000 seconds]
    [Time delta from previous displayed frame: 0.015625000 seconds]
    [Time since reference or first frame: 0.046875000 seconds]
    Frame Number: 30
    Frame Length: 30 bytes (240 bits)
    Capture Length: 30 bytes (240 bits)
    [Frame is marked: False]
    [Frame is ignored: False]
    [Protocols in frame: usb]
USB URB
    USBPcap pseudoheader length: 28
    IRP ID: 0xffffffff863dfc08
    IRP USBD_STATUS: USBD_STATUS_SUCCESS (0x00000000)
    URB Function: URB_FUNCTION_CONTROL_TRANSFER (0x0008)
    IRP information: 0x01, Direction: PDO -> FDO
        0000 000. = Reserved: 0x00
        .... ...1 = Direction: PDO -> FDO (0x01)
    URB bus id: 1
    Device address: 1
    Endpoint: 0x80, Direction: IN
        1... .... = Direction: IN (1)
        .000 0000 = Endpoint value: 0
    URB transfer type: URB_CONTROL (0x02)
    Packet Data Length: 2
    Control transfer stage: Data (1)
    [Request in: 29]
    [Time from request: 0.015625000 seconds]
    [bInterfaceClass: Unknown (0xffff)]
STRING DESCRIPTOR
    bLength: 74
    bDescriptorType: STRING (3)
[Malformed Packet: USB]
    [Expert Info (Error/Malformed): Malformed Packet (Exception occurred)]
        [Message: Malformed Packet (Exception occurred)]
        [Severity level: Error]
        [Group: Malformed]

0000  1c 00 08 fc 3d 86 ff ff ff ff 00 00 00 00 08 00   ....=...........
0010  01 01 00 01 00 80 02 02 00 00 00 01 4a 03         ............J.

No.     Time        Source                Destination           Protocol Length Info
     31 0.046875    1.0                   host                  USB      28     GET DESCRIPTOR Status

Frame 31: 28 bytes on wire (224 bits), 28 bytes captured (224 bits)
    Encapsulation type: USB packets with USBPcap header (153)
    Arrival Time: Jun 22, 2014 18:09:22.906962000 CEST
    [Time shift for this packet: 0.000000000 seconds]
    Epoch Time: 1403453362.906962000 seconds
    [Time delta from previous captured frame: 0.000000000 seconds]
    [Time delta from previous displayed frame: 0.000000000 seconds]
    [Time since reference or first frame: 0.046875000 seconds]
    Frame Number: 31
    Frame Length: 28 bytes (224 bits)
    Capture Length: 28 bytes (224 bits)
    [Frame is marked: False]
    [Frame is ignored: False]
    [Protocols in frame: usb]
USB URB
    USBPcap pseudoheader length: 28
    IRP ID: 0xffffffff863dfc08
    IRP USBD_STATUS: USBD_STATUS_SUCCESS (0x00000000)
    URB Function: URB_FUNCTION_CONTROL_TRANSFER (0x0008)
    IRP information: 0x01, Direction: PDO -> FDO
        0000 000. = Reserved: 0x00
        .... ...1 = Direction: PDO -> FDO (0x01)
    URB bus id: 1
    Device address: 1
    Endpoint: 0x80, Direction: IN
        1... .... = Direction: IN (1)
        .000 0000 = Endpoint value: 0
    URB transfer type: URB_CONTROL (0x02)
    Packet Data Length: 0
    Control transfer stage: Status (2)
    [Request in: 29]
    [Time from request: 0.015625000 seconds]
    [bInterfaceClass: Unknown (0xffff)]

0000  1c 00 08 fc 3d 86 ff ff ff ff 00 00 00 00 08 00   ....=...........
0010  01 01 00 01 00 80 02 00 00 00 00 02               ............

No.     Time        Source                Destination           Protocol Length Info
     32 0.046875    host                  1.0                   USB      36     GET DESCRIPTOR Request STRING

Frame 32: 36 bytes on wire (288 bits), 36 bytes captured (288 bits)
    Encapsulation type: USB packets with USBPcap header (153)
    Arrival Time: Jun 22, 2014 18:09:22.906962000 CEST
    [Time shift for this packet: 0.000000000 seconds]
    Epoch Time: 1403453362.906962000 seconds
    [Time delta from previous captured frame: 0.000000000 seconds]
    [Time delta from previous displayed frame: 0.000000000 seconds]
    [Time since reference or first frame: 0.046875000 seconds]
    Frame Number: 32
    Frame Length: 36 bytes (288 bits)
    Capture Length: 36 bytes (288 bits)
    [Frame is marked: False]
    [Frame is ignored: False]
    [Protocols in frame: usb]
USB URB
    USBPcap pseudoheader length: 28
    IRP ID: 0xffffffff863dfc08
    IRP USBD_STATUS: USBD_STATUS_SUCCESS (0x00000000)
    URB Function: URB_FUNCTION_GET_DESCRIPTOR_FROM_DEVICE (0x000b)
    IRP information: 0x00, Direction: FDO -> PDO
        0000 000. = Reserved: 0x00
        .... ...0 = Direction: FDO -> PDO (0x00)
    URB bus id: 1
    Device address: 1
    Endpoint: 0x00, Direction: OUT
        0... .... = Direction: OUT (0)
        .000 0000 = Endpoint value: 0
    URB transfer type: URB_CONTROL (0x02)
    Packet Data Length: 8
    Control transfer stage: Setup (0)
    [Response in: 34]
URB setup
    bmRequestType: 0x80
        1... .... = Direction: Device-to-host
        .00. .... = Type: Standard (0x00)
        ...0 0000 = Recipient: Device (0x00)
    bRequest: GET DESCRIPTOR (6)
    Descriptor Index: 0x02
    bDescriptorType: STRING (3)
    Language Id: English (United States) (0x0409)
    wLength: 74

0000  1c 00 08 fc 3d 86 ff ff ff ff 00 00 00 00 0b 00   ....=...........
0010  00 01 00 01 00 00 02 08 00 00 00 00 80 06 02 03   ................
0020  09 04 4a 00                                       ..J.

No.     Time        Source                Destination           Protocol Length Info
     33 0.046875    1.0                   host                  USB      102    GET DESCRIPTOR Response STRING

Frame 33: 102 bytes on wire (816 bits), 102 bytes captured (816 bits)
    Encapsulation type: USB packets with USBPcap header (153)
    Arrival Time: Jun 22, 2014 18:09:22.906962000 CEST
    [Time shift for this packet: 0.000000000 seconds]
    Epoch Time: 1403453362.906962000 seconds
    [Time delta from previous captured frame: 0.000000000 seconds]
    [Time delta from previous displayed frame: 0.000000000 seconds]
    [Time since reference or first frame: 0.046875000 seconds]
    Frame Number: 33
    Frame Length: 102 bytes (816 bits)
    Capture Length: 102 bytes (816 bits)
    [Frame is marked: False]
    [Frame is ignored: False]
    [Protocols in frame: usb]
USB URB
    USBPcap pseudoheader length: 28
    IRP ID: 0xffffffff863dfc08
    IRP USBD_STATUS: USBD_STATUS_SUCCESS (0x00000000)
    URB Function: URB_FUNCTION_CONTROL_TRANSFER (0x0008)
    IRP information: 0x01, Direction: PDO -> FDO
        0000 000. = Reserved: 0x00
        .... ...1 = Direction: PDO -> FDO (0x01)
    URB bus id: 1
    Device address: 1
    Endpoint: 0x80, Direction: IN
        1... .... = Direction: IN (1)
        .000 0000 = Endpoint value: 0
    URB transfer type: URB_CONTROL (0x02)
    Packet Data Length: 74
    Control transfer stage: Data (1)
    [Request in: 32]
    [Time from request: 0.000000000 seconds]
    [bInterfaceClass: Unknown (0xffff)]
STRING DESCRIPTOR
    bLength: 74
    bDescriptorType: STRING (3)
    bString: CP2104 USB to UART Bridge Controller

0000  1c 00 08 fc 3d 86 ff ff ff ff 00 00 00 00 08 00   ....=...........
0010  01 01 00 01 00 80 02 4a 00 00 00 01 4a 03 43 00   .......J....J.C.
0020  50 00 32 00 31 00 30 00 34 00 20 00 55 00 53 00   P.2.1.0.4. .U.S.
0030  42 00 20 00 74 00 6f 00 20 00 55 00 41 00 52 00   B. .t.o. .U.A.R.
0040  54 00 20 00 42 00 72 00 69 00 64 00 67 00 65 00   T. .B.r.i.d.g.e.
0050  20 00 43 00 6f 00 6e 00 74 00 72 00 6f 00 6c 00    .C.o.n.t.r.o.l.
0060  6c 00 65 00 72 00                                 l.e.r.

No.     Time        Source                Destination           Protocol Length Info
     34 0.046875    1.0                   host                  USB      28     GET DESCRIPTOR Status

Frame 34: 28 bytes on wire (224 bits), 28 bytes captured (224 bits)
    Encapsulation type: USB packets with USBPcap header (153)
    Arrival Time: Jun 22, 2014 18:09:22.906962000 CEST
    [Time shift for this packet: 0.000000000 seconds]
    Epoch Time: 1403453362.906962000 seconds
    [Time delta from previous captured frame: 0.000000000 seconds]
    [Time delta from previous displayed frame: 0.000000000 seconds]
    [Time since reference or first frame: 0.046875000 seconds]
    Frame Number: 34
    Frame Length: 28 bytes (224 bits)
    Capture Length: 28 bytes (224 bits)
    [Frame is marked: False]
    [Frame is ignored: False]
    [Protocols in frame: usb]
USB URB
    USBPcap pseudoheader length: 28
    IRP ID: 0xffffffff863dfc08
    IRP USBD_STATUS: USBD_STATUS_SUCCESS (0x00000000)
    URB Function: URB_FUNCTION_CONTROL_TRANSFER (0x0008)
    IRP information: 0x01, Direction: PDO -> FDO
        0000 000. = Reserved: 0x00
        .... ...1 = Direction: PDO -> FDO (0x01)
    URB bus id: 1
    Device address: 1
    Endpoint: 0x80, Direction: IN
        1... .... = Direction: IN (1)
        .000 0000 = Endpoint value: 0
    URB transfer type: URB_CONTROL (0x02)
    Packet Data Length: 0
    Control transfer stage: Status (2)
    [Request in: 32]
    [Time from request: 0.000000000 seconds]
    [bInterfaceClass: Unknown (0xffff)]

0000  1c 00 08 fc 3d 86 ff ff ff ff 00 00 00 00 08 00   ....=...........
0010  01 01 00 01 00 80 02 00 00 00 00 02               ............

No.     Time        Source                Destination           Protocol Length Info
     35 0.046875    host                  1.0                   USB      36     URB_CONTROL in

Frame 35: 36 bytes on wire (288 bits), 36 bytes captured (288 bits)
    Encapsulation type: USB packets with USBPcap header (153)
    Arrival Time: Jun 22, 2014 18:09:22.906962000 CEST
    [Time shift for this packet: 0.000000000 seconds]
    Epoch Time: 1403453362.906962000 seconds
    [Time delta from previous captured frame: 0.000000000 seconds]
    [Time delta from previous displayed frame: 0.000000000 seconds]
    [Time since reference or first frame: 0.046875000 seconds]
    Frame Number: 35
    Frame Length: 36 bytes (288 bits)
    Capture Length: 36 bytes (288 bits)
    [Frame is marked: False]
    [Frame is ignored: False]
    [Protocols in frame: usb]
USB URB
    USBPcap pseudoheader length: 28
    IRP ID: 0xffffffff863dfc08
    IRP USBD_STATUS: USBD_STATUS_SUCCESS (0x00000000)
    URB Function: URB_FUNCTION_CONTROL_TRANSFER (0x0008)
    IRP information: 0x00, Direction: FDO -> PDO
        0000 000. = Reserved: 0x00
        .... ...0 = Direction: FDO -> PDO (0x00)
    URB bus id: 1
    Device address: 1
    Endpoint: 0x80, Direction: IN
        1... .... = Direction: IN (1)
        .000 0000 = Endpoint value: 0
    URB transfer type: URB_CONTROL (0x02)
    Packet Data Length: 8
    Control transfer stage: Setup (0)
    [Response in: 37]
URB setup
    bmRequestType: 0xc1
        1... .... = Direction: Device-to-host
        .10. .... = Type: Vendor (0x02)
        ...0 0001 = Recipient: Interface (0x01)
    bRequest: 15
    wValue: 0x0000
    wIndex: 0
    wLength: 64

0000  1c 00 08 fc 3d 86 ff ff ff ff 00 00 00 00 08 00   ....=...........
0010  00 01 00 01 00 80 02 08 00 00 00 00 c1 0f 00 00   ................
0020  00 00 40 00                                       ..@.

No.     Time        Source                Destination           Protocol Length Info
     36 0.046875    1.0                   host                  USB      92     URB_CONTROL in

Frame 36: 92 bytes on wire (736 bits), 92 bytes captured (736 bits)
    Encapsulation type: USB packets with USBPcap header (153)
    Arrival Time: Jun 22, 2014 18:09:22.906962000 CEST
    [Time shift for this packet: 0.000000000 seconds]
    Epoch Time: 1403453362.906962000 seconds
    [Time delta from previous captured frame: 0.000000000 seconds]
    [Time delta from previous displayed frame: 0.000000000 seconds]
    [Time since reference or first frame: 0.046875000 seconds]
    Frame Number: 36
    Frame Length: 92 bytes (736 bits)
    Capture Length: 92 bytes (736 bits)
    [Frame is marked: False]
    [Frame is ignored: False]
    [Protocols in frame: usb]
USB URB
    USBPcap pseudoheader length: 28
    IRP ID: 0xffffffff863dfc08
    IRP USBD_STATUS: USBD_STATUS_SUCCESS (0x00000000)
    URB Function: URB_FUNCTION_CONTROL_TRANSFER (0x0008)
    IRP information: 0x01, Direction: PDO -> FDO
        0000 000. = Reserved: 0x00
        .... ...1 = Direction: PDO -> FDO (0x01)
    URB bus id: 1
    Device address: 1
    Endpoint: 0x80, Direction: IN
        1... .... = Direction: IN (1)
        .000 0000 = Endpoint value: 0
    URB transfer type: URB_CONTROL (0x02)
    Packet Data Length: 64
    Control transfer stage: Data (1)
    [Request in: 35]
    [Time from request: 0.000000000 seconds]
    [bInterfaceClass: Unknown (0xffff)]
CONTROL response data

0000  1c 00 08 fc 3d 86 ff ff ff ff 00 00 00 00 08 00   ....=...........
0010  01 01 00 01 00 80 02 40 00 00 00 01 42 00 00 01   .......@....B...
0020  01 00 00 00 00 00 00 00 00 02 00 00 00 02 00 00   ................
0030  00 1b b7 00 01 00 00 00 3f 01 00 00 7f 00 00 00   ........?.......
0040  fe ff 07 10 0f 00 07 1f 00 02 00 00 00 02 00 00   ................
0050  00 00 00 00 00 00 00 00 33 00 2e 00               ........3...

No.     Time        Source                Destination           Protocol Length Info
     37 0.046875    1.0                   host                  USB      28     Unknown type f Status

Frame 37: 28 bytes on wire (224 bits), 28 bytes captured (224 bits)
    Encapsulation type: USB packets with USBPcap header (153)
    Arrival Time: Jun 22, 2014 18:09:22.906962000 CEST
    [Time shift for this packet: 0.000000000 seconds]
    Epoch Time: 1403453362.906962000 seconds
    [Time delta from previous captured frame: 0.000000000 seconds]
    [Time delta from previous displayed frame: 0.000000000 seconds]
    [Time since reference or first frame: 0.046875000 seconds]
    Frame Number: 37
    Frame Length: 28 bytes (224 bits)
    Capture Length: 28 bytes (224 bits)
    [Frame is marked: False]
    [Frame is ignored: False]
    [Protocols in frame: usb]
USB URB
    USBPcap pseudoheader length: 28
    IRP ID: 0xffffffff863dfc08
    IRP USBD_STATUS: USBD_STATUS_SUCCESS (0x00000000)
    URB Function: URB_FUNCTION_CONTROL_TRANSFER (0x0008)
    IRP information: 0x01, Direction: PDO -> FDO
        0000 000. = Reserved: 0x00
        .... ...1 = Direction: PDO -> FDO (0x01)
    URB bus id: 1
    Device address: 1
    Endpoint: 0x80, Direction: IN
        1... .... = Direction: IN (1)
        .000 0000 = Endpoint value: 0
    URB transfer type: URB_CONTROL (0x02)
    Packet Data Length: 0
    Control transfer stage: Status (2)
    [Request in: 35]
    [Time from request: 0.000000000 seconds]
    [bInterfaceClass: Unknown (0xffff)]

0000  1c 00 08 fc 3d 86 ff ff ff ff 00 00 00 00 08 00   ....=...........
0010  01 01 00 01 00 80 02 00 00 00 00 02               ............

No.     Time        Source                Destination           Protocol Length Info
     38 0.046875    host                  1.0                   USB      36     URB_CONTROL out

Frame 38: 36 bytes on wire (288 bits), 36 bytes captured (288 bits)
    Encapsulation type: USB packets with USBPcap header (153)
    Arrival Time: Jun 22, 2014 18:09:22.906962000 CEST
    [Time shift for this packet: 0.000000000 seconds]
    Epoch Time: 1403453362.906962000 seconds
    [Time delta from previous captured frame: 0.000000000 seconds]
    [Time delta from previous displayed frame: 0.000000000 seconds]
    [Time since reference or first frame: 0.046875000 seconds]
    Frame Number: 38
    Frame Length: 36 bytes (288 bits)
    Capture Length: 36 bytes (288 bits)
    [Frame is marked: False]
    [Frame is ignored: False]
    [Protocols in frame: usb]
USB URB
    USBPcap pseudoheader length: 28
    IRP ID: 0xffffffff863dfc08
    IRP USBD_STATUS: USBD_STATUS_SUCCESS (0x00000000)
    URB Function: URB_FUNCTION_CONTROL_TRANSFER (0x0008)
    IRP information: 0x00, Direction: FDO -> PDO
        0000 000. = Reserved: 0x00
        .... ...0 = Direction: FDO -> PDO (0x00)
    URB bus id: 1
    Device address: 1
    Endpoint: 0x00, Direction: OUT
        0... .... = Direction: OUT (0)
        .000 0000 = Endpoint value: 0
    URB transfer type: URB_CONTROL (0x02)
    Packet Data Length: 8
    Control transfer stage: Setup (0)
    [Response in: 39]
URB setup
    bmRequestType: 0x41
        0... .... = Direction: Host-to-device
        .10. .... = Type: Vendor (0x02)
        ...0 0001 = Recipient: Interface (0x01)
    bRequest: 3
    wValue: 0x0800
    wIndex: 0
    wLength: 0

0000  1c 00 08 fc 3d 86 ff ff ff ff 00 00 00 00 08 00   ....=...........
0010  00 01 00 01 00 00 02 08 00 00 00 00 41 03 00 08   ............A...
0020  00 00 00 00                                       ....

No.     Time        Source                Destination           Protocol Length Info
     39 0.046875    1.0                   host                  USB      28     SET FEATURE Status

Frame 39: 28 bytes on wire (224 bits), 28 bytes captured (224 bits)
    Encapsulation type: USB packets with USBPcap header (153)
    Arrival Time: Jun 22, 2014 18:09:22.906962000 CEST
    [Time shift for this packet: 0.000000000 seconds]
    Epoch Time: 1403453362.906962000 seconds
    [Time delta from previous captured frame: 0.000000000 seconds]
    [Time delta from previous displayed frame: 0.000000000 seconds]
    [Time since reference or first frame: 0.046875000 seconds]
    Frame Number: 39
    Frame Length: 28 bytes (224 bits)
    Capture Length: 28 bytes (224 bits)
    [Frame is marked: False]
    [Frame is ignored: False]
    [Protocols in frame: usb]
USB URB
    USBPcap pseudoheader length: 28
    IRP ID: 0xffffffff863dfc08
    IRP USBD_STATUS: USBD_STATUS_SUCCESS (0x00000000)
    URB Function: URB_FUNCTION_CONTROL_TRANSFER (0x0008)
    IRP information: 0x01, Direction: PDO -> FDO
        0000 000. = Reserved: 0x00
        .... ...1 = Direction: PDO -> FDO (0x01)
    URB bus id: 1
    Device address: 1
    Endpoint: 0x00, Direction: OUT
        0... .... = Direction: OUT (0)
        .000 0000 = Endpoint value: 0
    URB transfer type: URB_CONTROL (0x02)
    Packet Data Length: 0
    Control transfer stage: Status (2)
    [Request in: 38]
    [Time from request: 0.000000000 seconds]
    [bInterfaceClass: Unknown (0xffff)]

0000  1c 00 08 fc 3d 86 ff ff ff ff 00 00 00 00 08 00   ....=...........
0010  01 01 00 01 00 00 02 00 00 00 00 02               ............

No.     Time        Source                Destination           Protocol Length Info
     40 0.046875    host                  1.0                   USB      36     URB_CONTROL out

Frame 40: 36 bytes on wire (288 bits), 36 bytes captured (288 bits)
    Encapsulation type: USB packets with USBPcap header (153)
    Arrival Time: Jun 22, 2014 18:09:22.906962000 CEST
    [Time shift for this packet: 0.000000000 seconds]
    Epoch Time: 1403453362.906962000 seconds
    [Time delta from previous captured frame: 0.000000000 seconds]
    [Time delta from previous displayed frame: 0.000000000 seconds]
    [Time since reference or first frame: 0.046875000 seconds]
    Frame Number: 40
    Frame Length: 36 bytes (288 bits)
    Capture Length: 36 bytes (288 bits)
    [Frame is marked: False]
    [Frame is ignored: False]
    [Protocols in frame: usb]
USB URB
    USBPcap pseudoheader length: 28
    IRP ID: 0xffffffff863dfc08
    IRP USBD_STATUS: USBD_STATUS_SUCCESS (0x00000000)
    URB Function: URB_FUNCTION_CONTROL_TRANSFER (0x0008)
    IRP information: 0x00, Direction: FDO -> PDO
        0000 000. = Reserved: 0x00
        .... ...0 = Direction: FDO -> PDO (0x00)
    URB bus id: 1
    Device address: 1
    Endpoint: 0x00, Direction: OUT
        0... .... = Direction: OUT (0)
        .000 0000 = Endpoint value: 0
    URB transfer type: URB_CONTROL (0x02)
    Packet Data Length: 8
    Control transfer stage: Setup (0)
    [Response in: 42]
URB setup
    bmRequestType: 0x41
        0... .... = Direction: Host-to-device
        .10. .... = Type: Vendor (0x02)
        ...0 0001 = Recipient: Interface (0x01)
    bRequest: 19
    wValue: 0x0000
    wIndex: 0
    wLength: 16

0000  1c 00 08 fc 3d 86 ff ff ff ff 00 00 00 00 08 00   ....=...........
0010  00 01 00 01 00 00 02 08 00 00 00 00 41 13 00 00   ............A...
0020  00 00 10 00                                       ....

No.     Time        Source                Destination           Protocol Length Info
     41 0.062500    1.0                   host                  USB      44     URB_CONTROL out

Frame 41: 44 bytes on wire (352 bits), 44 bytes captured (352 bits)
    Encapsulation type: USB packets with USBPcap header (153)
    Arrival Time: Jun 22, 2014 18:09:22.922587000 CEST
    [Time shift for this packet: 0.000000000 seconds]
    Epoch Time: 1403453362.922587000 seconds
    [Time delta from previous captured frame: 0.015625000 seconds]
    [Time delta from previous displayed frame: 0.015625000 seconds]
    [Time since reference or first frame: 0.062500000 seconds]
    Frame Number: 41
    Frame Length: 44 bytes (352 bits)
    Capture Length: 44 bytes (352 bits)
    [Frame is marked: False]
    [Frame is ignored: False]
    [Protocols in frame: usb]
USB URB
    USBPcap pseudoheader length: 28
    IRP ID: 0xffffffff863dfc08
    IRP USBD_STATUS: USBD_STATUS_SUCCESS (0x00000000)
    URB Function: URB_FUNCTION_CONTROL_TRANSFER (0x0008)
    IRP information: 0x01, Direction: PDO -> FDO
        0000 000. = Reserved: 0x00
        .... ...1 = Direction: PDO -> FDO (0x01)
    URB bus id: 1
    Device address: 1
    Endpoint: 0x00, Direction: OUT
        0... .... = Direction: OUT (0)
        .000 0000 = Endpoint value: 0
    URB transfer type: URB_CONTROL (0x02)
    Packet Data Length: 16
    Control transfer stage: Data (1)
    [Request in: 40]
    [Time from request: 0.015625000 seconds]
    [bInterfaceClass: Unknown (0xffff)]
CONTROL response data

0000  1c 00 08 fc 3d 86 ff ff ff ff 00 00 00 00 08 00   ....=...........
0010  01 01 00 01 00 00 02 10 00 00 00 01 00 00 00 00   ................
0020  00 00 00 00 00 00 00 00 00 00 00 00               ............

No.     Time        Source                Destination           Protocol Length Info
     42 0.062500    1.0                   host                  USB      28     Unknown type 13 Status

Frame 42: 28 bytes on wire (224 bits), 28 bytes captured (224 bits)
    Encapsulation type: USB packets with USBPcap header (153)
    Arrival Time: Jun 22, 2014 18:09:22.922587000 CEST
    [Time shift for this packet: 0.000000000 seconds]
    Epoch Time: 1403453362.922587000 seconds
    [Time delta from previous captured frame: 0.000000000 seconds]
    [Time delta from previous displayed frame: 0.000000000 seconds]
    [Time since reference or first frame: 0.062500000 seconds]
    Frame Number: 42
    Frame Length: 28 bytes (224 bits)
    Capture Length: 28 bytes (224 bits)
    [Frame is marked: False]
    [Frame is ignored: False]
    [Protocols in frame: usb]
USB URB
    USBPcap pseudoheader length: 28
    IRP ID: 0xffffffff863dfc08
    IRP USBD_STATUS: USBD_STATUS_SUCCESS (0x00000000)
    URB Function: URB_FUNCTION_CONTROL_TRANSFER (0x0008)
    IRP information: 0x01, Direction: PDO -> FDO
        0000 000. = Reserved: 0x00
        .... ...1 = Direction: PDO -> FDO (0x01)
    URB bus id: 1
    Device address: 1
    Endpoint: 0x00, Direction: OUT
        0... .... = Direction: OUT (0)
        .000 0000 = Endpoint value: 0
    URB transfer type: URB_CONTROL (0x02)
    Packet Data Length: 0
    Control transfer stage: Status (2)
    [Request in: 40]
    [Time from request: 0.015625000 seconds]
    [bInterfaceClass: Unknown (0xffff)]

0000  1c 00 08 fc 3d 86 ff ff ff ff 00 00 00 00 08 00   ....=...........
0010  01 01 00 01 00 00 02 00 00 00 00 02               ............

No.     Time        Source                Destination           Protocol Length Info
     43 0.062500    host                  1.0                   USB      36     URB_CONTROL out

Frame 43: 36 bytes on wire (288 bits), 36 bytes captured (288 bits)
    Encapsulation type: USB packets with USBPcap header (153)
    Arrival Time: Jun 22, 2014 18:09:22.922587000 CEST
    [Time shift for this packet: 0.000000000 seconds]
    Epoch Time: 1403453362.922587000 seconds
    [Time delta from previous captured frame: 0.000000000 seconds]
    [Time delta from previous displayed frame: 0.000000000 seconds]
    [Time since reference or first frame: 0.062500000 seconds]
    Frame Number: 43
    Frame Length: 36 bytes (288 bits)
    Capture Length: 36 bytes (288 bits)
    [Frame is marked: False]
    [Frame is ignored: False]
    [Protocols in frame: usb]
USB URB
    USBPcap pseudoheader length: 28
    IRP ID: 0xffffffff863dfc08
    IRP USBD_STATUS: USBD_STATUS_SUCCESS (0x00000000)
    URB Function: URB_FUNCTION_CONTROL_TRANSFER (0x0008)
    IRP information: 0x00, Direction: FDO -> PDO
        0000 000. = Reserved: 0x00
        .... ...0 = Direction: FDO -> PDO (0x00)
    URB bus id: 1
    Device address: 1
    Endpoint: 0x00, Direction: OUT
        0... .... = Direction: OUT (0)
        .000 0000 = Endpoint value: 0
    URB transfer type: URB_CONTROL (0x02)
    Packet Data Length: 8
    Control transfer stage: Setup (0)
    [Response in: 45]
URB setup
    bmRequestType: 0x41
        0... .... = Direction: Host-to-device
        .10. .... = Type: Vendor (0x02)
        ...0 0001 = Recipient: Interface (0x01)
    bRequest: 25
    wValue: 0x0000
    wIndex: 0
    wLength: 6

0000  1c 00 08 fc 3d 86 ff ff ff ff 00 00 00 00 08 00   ....=...........
0010  00 01 00 01 00 00 02 08 00 00 00 00 41 19 00 00   ............A...
0020  00 00 06 00                                       ....

No.     Time        Source                Destination           Protocol Length Info
     44 0.062500    1.0                   host                  USB      34     URB_CONTROL out

Frame 44: 34 bytes on wire (272 bits), 34 bytes captured (272 bits)
    Encapsulation type: USB packets with USBPcap header (153)
    Arrival Time: Jun 22, 2014 18:09:22.922587000 CEST
    [Time shift for this packet: 0.000000000 seconds]
    Epoch Time: 1403453362.922587000 seconds
    [Time delta from previous captured frame: 0.000000000 seconds]
    [Time delta from previous displayed frame: 0.000000000 seconds]
    [Time since reference or first frame: 0.062500000 seconds]
    Frame Number: 44
    Frame Length: 34 bytes (272 bits)
    Capture Length: 34 bytes (272 bits)
    [Frame is marked: False]
    [Frame is ignored: False]
    [Protocols in frame: usb]
USB URB
    USBPcap pseudoheader length: 28
    IRP ID: 0xffffffff863dfc08
    IRP USBD_STATUS: USBD_STATUS_SUCCESS (0x00000000)
    URB Function: URB_FUNCTION_CONTROL_TRANSFER (0x0008)
    IRP information: 0x01, Direction: PDO -> FDO
        0000 000. = Reserved: 0x00
        .... ...1 = Direction: PDO -> FDO (0x01)
    URB bus id: 1
    Device address: 1
    Endpoint: 0x00, Direction: OUT
        0... .... = Direction: OUT (0)
        .000 0000 = Endpoint value: 0
    URB transfer type: URB_CONTROL (0x02)
    Packet Data Length: 6
    Control transfer stage: Data (1)
    [Request in: 43]
    [Time from request: 0.000000000 seconds]
    [bInterfaceClass: Unknown (0xffff)]
CONTROL response data

0000  1c 00 08 fc 3d 86 ff ff ff ff 00 00 00 00 08 00   ....=...........
0010  01 01 00 01 00 00 02 06 00 00 00 01 00 00 00 00   ................
0020  11 13                                             ..

No.     Time        Source                Destination           Protocol Length Info
     45 0.062500    1.0                   host                  USB      28     Unknown type 19 Status

Frame 45: 28 bytes on wire (224 bits), 28 bytes captured (224 bits)
    Encapsulation type: USB packets with USBPcap header (153)
    Arrival Time: Jun 22, 2014 18:09:22.922587000 CEST
    [Time shift for this packet: 0.000000000 seconds]
    Epoch Time: 1403453362.922587000 seconds
    [Time delta from previous captured frame: 0.000000000 seconds]
    [Time delta from previous displayed frame: 0.000000000 seconds]
    [Time since reference or first frame: 0.062500000 seconds]
    Frame Number: 45
    Frame Length: 28 bytes (224 bits)
    Capture Length: 28 bytes (224 bits)
    [Frame is marked: False]
    [Frame is ignored: False]
    [Protocols in frame: usb]
USB URB
    USBPcap pseudoheader length: 28
    IRP ID: 0xffffffff863dfc08
    IRP USBD_STATUS: USBD_STATUS_SUCCESS (0x00000000)
    URB Function: URB_FUNCTION_CONTROL_TRANSFER (0x0008)
    IRP information: 0x01, Direction: PDO -> FDO
        0000 000. = Reserved: 0x00
        .... ...1 = Direction: PDO -> FDO (0x01)
    URB bus id: 1
    Device address: 1
    Endpoint: 0x00, Direction: OUT
        0... .... = Direction: OUT (0)
        .000 0000 = Endpoint value: 0
    URB transfer type: URB_CONTROL (0x02)
    Packet Data Length: 0
    Control transfer stage: Status (2)
    [Request in: 43]
    [Time from request: 0.000000000 seconds]
    [bInterfaceClass: Unknown (0xffff)]

0000  1c 00 08 fc 3d 86 ff ff ff ff 00 00 00 00 08 00   ....=...........
0010  01 01 00 01 00 00 02 00 00 00 00 02               ............

No.     Time        Source                Destination           Protocol Length Info
     46 0.062500    host                  1.0                   USB      36     URB_CONTROL out

Frame 46: 36 bytes on wire (288 bits), 36 bytes captured (288 bits)
    Encapsulation type: USB packets with USBPcap header (153)
    Arrival Time: Jun 22, 2014 18:09:22.922587000 CEST
    [Time shift for this packet: 0.000000000 seconds]
    Epoch Time: 1403453362.922587000 seconds
    [Time delta from previous captured frame: 0.000000000 seconds]
    [Time delta from previous displayed frame: 0.000000000 seconds]
    [Time since reference or first frame: 0.062500000 seconds]
    Frame Number: 46
    Frame Length: 36 bytes (288 bits)
    Capture Length: 36 bytes (288 bits)
    [Frame is marked: False]
    [Frame is ignored: False]
    [Protocols in frame: usb]
USB URB
    USBPcap pseudoheader length: 28
    IRP ID: 0xffffffff863dfc08
    IRP USBD_STATUS: USBD_STATUS_SUCCESS (0x00000000)
    URB Function: URB_FUNCTION_CONTROL_TRANSFER (0x0008)
    IRP information: 0x00, Direction: FDO -> PDO
        0000 000. = Reserved: 0x00
        .... ...0 = Direction: FDO -> PDO (0x00)
    URB bus id: 1
    Device address: 1
    Endpoint: 0x00, Direction: OUT
        0... .... = Direction: OUT (0)
        .000 0000 = Endpoint value: 0
    URB transfer type: URB_CONTROL (0x02)
    Packet Data Length: 8
    Control transfer stage: Setup (0)
    [Response in: 48]
URB setup
    bmRequestType: 0x41
        0... .... = Direction: Host-to-device
        .10. .... = Type: Vendor (0x02)
        ...0 0001 = Recipient: Interface (0x01)
    bRequest: 30
    wValue: 0x0000
    wIndex: 0
    wLength: 4

0000  1c 00 08 fc 3d 86 ff ff ff ff 00 00 00 00 08 00   ....=...........
0010  00 01 00 01 00 00 02 08 00 00 00 00 41 1e 00 00   ............A...
0020  00 00 04 00                                       ....

No.     Time        Source                Destination           Protocol Length Info
     47 0.062500    1.0                   host                  USB      32     URB_CONTROL out

Frame 47: 32 bytes on wire (256 bits), 32 bytes captured (256 bits)
    Encapsulation type: USB packets with USBPcap header (153)
    Arrival Time: Jun 22, 2014 18:09:22.922587000 CEST
    [Time shift for this packet: 0.000000000 seconds]
    Epoch Time: 1403453362.922587000 seconds
    [Time delta from previous captured frame: 0.000000000 seconds]
    [Time delta from previous displayed frame: 0.000000000 seconds]
    [Time since reference or first frame: 0.062500000 seconds]
    Frame Number: 47
    Frame Length: 32 bytes (256 bits)
    Capture Length: 32 bytes (256 bits)
    [Frame is marked: False]
    [Frame is ignored: False]
    [Protocols in frame: usb]
USB URB
    USBPcap pseudoheader length: 28
    IRP ID: 0xffffffff863dfc08
    IRP USBD_STATUS: USBD_STATUS_SUCCESS (0x00000000)
    URB Function: URB_FUNCTION_CONTROL_TRANSFER (0x0008)
    IRP information: 0x01, Direction: PDO -> FDO
        0000 000. = Reserved: 0x00
        .... ...1 = Direction: PDO -> FDO (0x01)
    URB bus id: 1
    Device address: 1
    Endpoint: 0x00, Direction: OUT
        0... .... = Direction: OUT (0)
        .000 0000 = Endpoint value: 0
    URB transfer type: URB_CONTROL (0x02)
    Packet Data Length: 4
    Control transfer stage: Data (1)
    [Request in: 46]
    [Time from request: 0.000000000 seconds]
    [bInterfaceClass: Unknown (0xffff)]
CONTROL response data

0000  1c 00 08 fc 3d 86 ff ff ff ff 00 00 00 00 08 00   ....=...........
0010  01 01 00 01 00 00 02 04 00 00 00 01 00 c2 01 00   ................

No.     Time        Source                Destination           Protocol Length Info
     48 0.062500    1.0                   host                  USB      28     Unknown type 1e Status

Frame 48: 28 bytes on wire (224 bits), 28 bytes captured (224 bits)
    Encapsulation type: USB packets with USBPcap header (153)
    Arrival Time: Jun 22, 2014 18:09:22.922587000 CEST
    [Time shift for this packet: 0.000000000 seconds]
    Epoch Time: 1403453362.922587000 seconds
    [Time delta from previous captured frame: 0.000000000 seconds]
    [Time delta from previous displayed frame: 0.000000000 seconds]
    [Time since reference or first frame: 0.062500000 seconds]
    Frame Number: 48
    Frame Length: 28 bytes (224 bits)
    Capture Length: 28 bytes (224 bits)
    [Frame is marked: False]
    [Frame is ignored: False]
    [Protocols in frame: usb]
USB URB
    USBPcap pseudoheader length: 28
    IRP ID: 0xffffffff863dfc08
    IRP USBD_STATUS: USBD_STATUS_SUCCESS (0x00000000)
    URB Function: URB_FUNCTION_CONTROL_TRANSFER (0x0008)
    IRP information: 0x01, Direction: PDO -> FDO
        0000 000. = Reserved: 0x00
        .... ...1 = Direction: PDO -> FDO (0x01)
    URB bus id: 1
    Device address: 1
    Endpoint: 0x00, Direction: OUT
        0... .... = Direction: OUT (0)
        .000 0000 = Endpoint value: 0
    URB transfer type: URB_CONTROL (0x02)
    Packet Data Length: 0
    Control transfer stage: Status (2)
    [Request in: 46]
    [Time from request: 0.000000000 seconds]
    [bInterfaceClass: Unknown (0xffff)]

0000  1c 00 08 fc 3d 86 ff ff ff ff 00 00 00 00 08 00   ....=...........
0010  01 01 00 01 00 00 02 00 00 00 00 02               ............

No.     Time        Source                Destination           Protocol Length Info
     49 0.062500    host                  1.0                   USB      36     URB_CONTROL out

Frame 49: 36 bytes on wire (288 bits), 36 bytes captured (288 bits)
    Encapsulation type: USB packets with USBPcap header (153)
    Arrival Time: Jun 22, 2014 18:09:22.922587000 CEST
    [Time shift for this packet: 0.000000000 seconds]
    Epoch Time: 1403453362.922587000 seconds
    [Time delta from previous captured frame: 0.000000000 seconds]
    [Time delta from previous displayed frame: 0.000000000 seconds]
    [Time since reference or first frame: 0.062500000 seconds]
    Frame Number: 49
    Frame Length: 36 bytes (288 bits)
    Capture Length: 36 bytes (288 bits)
    [Frame is marked: False]
    [Frame is ignored: False]
    [Protocols in frame: usb]
USB URB
    USBPcap pseudoheader length: 28
    IRP ID: 0xffffffff86591aa0
    IRP USBD_STATUS: USBD_STATUS_SUCCESS (0x00000000)
    URB Function: URB_FUNCTION_CONTROL_TRANSFER (0x0008)
    IRP information: 0x00, Direction: FDO -> PDO
        0000 000. = Reserved: 0x00
        .... ...0 = Direction: FDO -> PDO (0x00)
    URB bus id: 1
    Device address: 1
    Endpoint: 0x00, Direction: OUT
        0... .... = Direction: OUT (0)
        .000 0000 = Endpoint value: 0
    URB transfer type: URB_CONTROL (0x02)
    Packet Data Length: 8
    Control transfer stage: Setup (0)
    [Response in: 50]
URB setup
    bmRequestType: 0x41
        0... .... = Direction: Host-to-device
        .10. .... = Type: Vendor (0x02)
        ...0 0001 = Recipient: Interface (0x01)
    bRequest: 0
    wValue: 0xffff
    wIndex: 0
    wLength: 0

0000  1c 00 a0 1a 59 86 ff ff ff ff 00 00 00 00 08 00   ....Y...........
0010  00 01 00 01 00 00 02 08 00 00 00 00 41 00 ff ff   ............A...
0020  00 00 00 00                                       ....

No.     Time        Source                Destination           Protocol Length Info
     50 0.078125    1.0                   host                  USB      28     GET STATUS Status

Frame 50: 28 bytes on wire (224 bits), 28 bytes captured (224 bits)
    Encapsulation type: USB packets with USBPcap header (153)
    Arrival Time: Jun 22, 2014 18:09:22.938212000 CEST
    [Time shift for this packet: 0.000000000 seconds]
    Epoch Time: 1403453362.938212000 seconds
    [Time delta from previous captured frame: 0.015625000 seconds]
    [Time delta from previous displayed frame: 0.015625000 seconds]
    [Time since reference or first frame: 0.078125000 seconds]
    Frame Number: 50
    Frame Length: 28 bytes (224 bits)
    Capture Length: 28 bytes (224 bits)
    [Frame is marked: False]
    [Frame is ignored: False]
    [Protocols in frame: usb]
USB URB
    USBPcap pseudoheader length: 28
    IRP ID: 0xffffffff86591aa0
    IRP USBD_STATUS: USBD_STATUS_SUCCESS (0x00000000)
    URB Function: URB_FUNCTION_CONTROL_TRANSFER (0x0008)
    IRP information: 0x01, Direction: PDO -> FDO
        0000 000. = Reserved: 0x00
        .... ...1 = Direction: PDO -> FDO (0x01)
    URB bus id: 1
    Device address: 1
    Endpoint: 0x00, Direction: OUT
        0... .... = Direction: OUT (0)
        .000 0000 = Endpoint value: 0
    URB transfer type: URB_CONTROL (0x02)
    Packet Data Length: 0
    Control transfer stage: Status (2)
    [Request in: 49]
    [Time from request: 0.015625000 seconds]
    [bInterfaceClass: Unknown (0xffff)]

0000  1c 00 a0 1a 59 86 ff ff ff ff 00 00 00 00 08 00   ....Y...........
0010  01 01 00 01 00 00 02 00 00 00 00 02               ............

No.     Time        Source                Destination           Protocol Length Info
     51 0.078125    host                  1.0                   USB      36     URB_CONTROL in

Frame 51: 36 bytes on wire (288 bits), 36 bytes captured (288 bits)
    Encapsulation type: USB packets with USBPcap header (153)
    Arrival Time: Jun 22, 2014 18:09:22.938212000 CEST
    [Time shift for this packet: 0.000000000 seconds]
    Epoch Time: 1403453362.938212000 seconds
    [Time delta from previous captured frame: 0.000000000 seconds]
    [Time delta from previous displayed frame: 0.000000000 seconds]
    [Time since reference or first frame: 0.078125000 seconds]
    Frame Number: 51
    Frame Length: 36 bytes (288 bits)
    Capture Length: 36 bytes (288 bits)
    [Frame is marked: False]
    [Frame is ignored: False]
    [Protocols in frame: usb]
USB URB
    USBPcap pseudoheader length: 28
    IRP ID: 0xffffffff86591aa0
    IRP USBD_STATUS: USBD_STATUS_SUCCESS (0x00000000)
    URB Function: URB_FUNCTION_CONTROL_TRANSFER (0x0008)
    IRP information: 0x00, Direction: FDO -> PDO
        0000 000. = Reserved: 0x00
        .... ...0 = Direction: FDO -> PDO (0x00)
    URB bus id: 1
    Device address: 1
    Endpoint: 0x80, Direction: IN
        1... .... = Direction: IN (1)
        .000 0000 = Endpoint value: 0
    URB transfer type: URB_CONTROL (0x02)
    Packet Data Length: 8
    Control transfer stage: Setup (0)
    [Response in: 53]
URB setup
    bmRequestType: 0xc1
        1... .... = Direction: Device-to-host
        .10. .... = Type: Vendor (0x02)
        ...0 0001 = Recipient: Interface (0x01)
    bRequest: 8
    wValue: 0x0000
    wIndex: 0
    wLength: 1

0000  1c 00 a0 1a 59 86 ff ff ff ff 00 00 00 00 08 00   ....Y...........
0010  00 01 00 01 00 80 02 08 00 00 00 00 c1 08 00 00   ................
0020  00 00 01 00                                       ....

No.     Time        Source                Destination           Protocol Length Info
     52 0.078125    1.0                   host                  USB      29     URB_CONTROL in

Frame 52: 29 bytes on wire (232 bits), 29 bytes captured (232 bits)
    Encapsulation type: USB packets with USBPcap header (153)
    Arrival Time: Jun 22, 2014 18:09:22.938212000 CEST
    [Time shift for this packet: 0.000000000 seconds]
    Epoch Time: 1403453362.938212000 seconds
    [Time delta from previous captured frame: 0.000000000 seconds]
    [Time delta from previous displayed frame: 0.000000000 seconds]
    [Time since reference or first frame: 0.078125000 seconds]
    Frame Number: 52
    Frame Length: 29 bytes (232 bits)
    Capture Length: 29 bytes (232 bits)
    [Frame is marked: False]
    [Frame is ignored: False]
    [Protocols in frame: usb]
USB URB
    USBPcap pseudoheader length: 28
    IRP ID: 0xffffffff86591aa0
    IRP USBD_STATUS: USBD_STATUS_SUCCESS (0x00000000)
    URB Function: URB_FUNCTION_CONTROL_TRANSFER (0x0008)
    IRP information: 0x01, Direction: PDO -> FDO
        0000 000. = Reserved: 0x00
        .... ...1 = Direction: PDO -> FDO (0x01)
    URB bus id: 1
    Device address: 1
    Endpoint: 0x80, Direction: IN
        1... .... = Direction: IN (1)
        .000 0000 = Endpoint value: 0
    URB transfer type: URB_CONTROL (0x02)
    Packet Data Length: 1
    Control transfer stage: Data (1)
    [Request in: 51]
    [Time from request: 0.000000000 seconds]
    [bInterfaceClass: Unknown (0xffff)]
CONTROL response data

0000  1c 00 a0 1a 59 86 ff ff ff ff 00 00 00 00 08 00   ....Y...........
0010  01 01 00 01 00 80 02 01 00 00 00 01 00            .............

No.     Time        Source                Destination           Protocol Length Info
     53 0.078125    1.0                   host                  USB      28     GET CONFIGURATION Status

Frame 53: 28 bytes on wire (224 bits), 28 bytes captured (224 bits)
    Encapsulation type: USB packets with USBPcap header (153)
    Arrival Time: Jun 22, 2014 18:09:22.938212000 CEST
    [Time shift for this packet: 0.000000000 seconds]
    Epoch Time: 1403453362.938212000 seconds
    [Time delta from previous captured frame: 0.000000000 seconds]
    [Time delta from previous displayed frame: 0.000000000 seconds]
    [Time since reference or first frame: 0.078125000 seconds]
    Frame Number: 53
    Frame Length: 28 bytes (224 bits)
    Capture Length: 28 bytes (224 bits)
    [Frame is marked: False]
    [Frame is ignored: False]
    [Protocols in frame: usb]
USB URB
    USBPcap pseudoheader length: 28
    IRP ID: 0xffffffff86591aa0
    IRP USBD_STATUS: USBD_STATUS_SUCCESS (0x00000000)
    URB Function: URB_FUNCTION_CONTROL_TRANSFER (0x0008)
    IRP information: 0x01, Direction: PDO -> FDO
        0000 000. = Reserved: 0x00
        .... ...1 = Direction: PDO -> FDO (0x01)
    URB bus id: 1
    Device address: 1
    Endpoint: 0x80, Direction: IN
        1... .... = Direction: IN (1)
        .000 0000 = Endpoint value: 0
    URB transfer type: URB_CONTROL (0x02)
    Packet Data Length: 0
    Control transfer stage: Status (2)
    [Request in: 51]
    [Time from request: 0.000000000 seconds]
    [bInterfaceClass: Unknown (0xffff)]

0000  1c 00 a0 1a 59 86 ff ff ff ff 00 00 00 00 08 00   ....Y...........
